:020000040000FA
:040000000EEF00F00F
:0400080004EF48F0C9
:100018000CEF48F0F4EF29F00E500C24D96E0F5075
:100028000D20DA6E3A0EDE18D8B405D00C680D68CB
:100038000E680F681200020E0E24146E000E0F20B8
:10004800156E14500C24D96E15500D20DA6EDF5041
:10005800036E010E0E24166E000E0F20176E16503A
:100068000C24D96E17500D20DA6EDF503FEC39F0B2
:10007800186E196A12C0D9FF13C0DAFF18C0DEFF64
:1000880019C0DDFF12C0D9FF13C0DAFF010EDB5023
:1000980004E1110EDE5CD8A009D0FC0E0C6EFF0E38
:1000A8000D6EFF0E0E6EFF0E0F6E1200040E0E2464
:1000B800146E000E0F20156E14500C24D96E1550B6
:1000C8000D20DA6EDF50036E050E0E24166E000E3C
:1000D8000F20176E16500C24D96E17500D20DA6EAB
:1000E800DF50046E060E0E24186E000E0F20196ED7
:1000F80018500C24D96E19500D20DA6EDF50056E99
:10010800030E0E241A6E000E0F201B6E1A500C24BC
:10011800D96E1B500D20DA6EDF5017EC30F020EE50
:1001280002F01250D9261350DA2203C0DEFF04C0B1
:10013800DDFF20EE04F01250D9261350DA22080E03
:100148000E24146E000E0F20156E14500C24E16E50
:1001580015500D20E26EE750036E070E0E24166E42
:10016800000E0F20176E16500C24E16E17500D204C
:10017800E26EE7503FEC39F0DF6E000E1C6E3DD0AA
:100188001C50010D050EF326000EF422F350122424
:10019800D96EF4501320DA6E1C501CC014F0156A86
:1001A8001426000E15220E5014260F5015220A0E82
:1001B8001426000E152214500C24E16E15500D2043
:1001C800E26EE750036E1C501CC016F0176A162624
:1001D800000E17220E5016260F501722090E16264B
:1001E800000E172216500C24E16E17500D20E26EF7
:1001F800E7503FEC39F0DF6E1C2A12C0D9FF13C05C
:10020800DAFF1C50166E176ADE50165CDE5017585F
:10021800D8A0B6D720EE15F01250D9261350DA22FE
:100228001C501CC014F0156A1426000E15220E501E
:1002380014260F5015220A0E1426000E15221450EB
:100248000C24E16E15500D20E26EE750036E1C5031
:100258001CC016F0176A1626000E17220E50162616
:100268000F501722090E1626000E172216500C24BE
:10027800E16E17500D20E26EE7503FEC39F0DF6E6B
:1002880012C0D9FF13C0DAFF10EE16F01250E126A3
:100298001350E222DFCFE7FF20EE02F01250D926FA
:1002A8001350DA22DECF14F0DDCF15F015C014F0AC
:1002B800156A20EE16F01250D9261350DA2214507F
:1002C800DF2620EE02F01250D9261350DA22DF5032
:1002D800146E20EE16F01250D9261350DA2214505C
:1002E800DF2620EE04F01250D9261350DA22DF5010
:1002F800146E20EE16F01250D9261350DA2214503C
:10030800DF26000E1C6E17D01C50010D050EF326BB
:10031800000EF422F3501224D96EF4501320DA6E32
:10032800DF50146E20EE16F01250D9261350DA2240
:100338001450DF261C2A12C0D9FF13C0DAFF1C5044
:10034800166E176ADE50165CDE501758D8A0DCD738
:1003580020EE15F01250D9261350DA22DF50146E11
:1003680020EE16F01250D9261350DA221450DF2648
:1003780020EE16F01250D9261350DA22DF50D8B4E6
:1003880009D0FE0E0C6EFF0E0D6EFF0E0E6EFF0EE8
:100398000F6E120020EE04F01250D9261350DA2204
:1003A800DE04D8A409D0000E0C6E000E0D6E000EEF
:1003B8000E6E000E0F6E12001C501CC014F0156A51
:1003C8001426000E15220B0E1424166E000E15208E
:1003D800176E186A17BE18061850196E16500E2692
:1003E80017500F221850102219501122010E0E26F4
:1003F800000E0F22102211220E500C24D96E0F501D
:100408000D20DA6E3A0EDE18D8A409D00EC00CF012
:100418000FC00DF010C00EF011C00FF01200010E49
:100428000E26000E0F22102211220E500C24D96E17
:100438000F500D20DA6E3A0EDE18D8A409D00EC07F
:100448000CF00FC00DF010C00EF011C00FF012002C
:10045800010E0E26000E0F22102211220E500C241F
:10046800D96E0F500D20DA6E3A0EDE18D8A409D0D6
:100478000EC00CF00FC00DF010C00EF011C00FF040
:100488001200FD0E0C6EFF0E0D6EFF0E0E6EFF0EAF
:100498000F6E1200B9D103EC12F00009D8A41200B3
:1004A80000019F6912000FEC09F00009D8A412009E
:1004B80000019F6912009905D8A402D09F69120013
:1004C80012C188F013C187F087C00BF088C00CF008
:1004D8000D6A0E6AE4EC22F00009D8A41200000E9E
:1004E800026E240E016E29EC2CF0000E016E060E31
:1004F800026E210E036E8F0E046E03500410D8A4F2
:10050800000E056E000E076E240E066E25EC31F007
:10051800FD0E00019F6F1200F7C101F0F8C102F053
:1005280001D80AD00500FA6E0101EB51FD6EEC51BD
:10053800FE6EFF6AFA50120001C043F002C044F098
:1005480003C045F004C046F0F7C101F0F8C102F05D
:1005580001D80AD00500FA6E0101ED51FD6EEE5189
:10056800FE6EFF6AFA50120001C03FF002C040F070
:10057800416A426A26EE00F046C0DFFF26EE01F02F
:1005880045C0DFFF26EE02F044C0DFFF26EE03F091
:1005980043C0DFFF26EE04F042C0DFFF26EE05F081
:1005A80041C0DFFF26EE06F040C0DFFF26EE07F071
:1005B8003FC0DFFF000E0001886F080E876F000E36
:1005C800026E080E016E29EC2CF0FD0E00019F6FE3
:1005D80012009905D8A402D09F691200000E886FF6
:1005E800120E876F000E026E120E016E29EC2CF0AF
:1005F800000E476E110E476401D014D04750010D0C
:100608001F0EF324D96E010EF420DA6E4750010D47
:10061800000EF324E16E060EF420E26EDFCFE7FF52
:10062800472AE8D7FD0E00019F6F1200030EE8CF9E
:1006380000F6000EE8CF01F6F7C101F0F8C102F0AC
:1006480001D80AD00500FA6E0101F351FD6EF4518C
:10065800FE6EFF6AFA5012000009D8A404D0000EFA
:100668003D6E000E03D0000E3D6E800E3C6E26EEF1
:1006780002F03CC0DFFF000EE8CF03F6000E0001D9
:10068800886F040E876F000E026E040E016E29EC4F
:100698002CF0FD0E00019F6F120001012151F00B9B
:1006A8000509216F200E2B6F000E2C6F010E0D0116
:1006B8008C6F000E886F000E896F000E8A6F000E17
:1006C8008B6F00019F691200000E0B6E000E0C6EFE
:1006D800000E0D6E000E0E6EE4EC22F00009D8A498
:1006E8001200010121510F0B060AD8A407D00D01F1
:1006F8008C05D8A403D000019F691200EDEC31F0FD
:10070800000E0D01886F000E896F000E8A6F000EB3
:100718008B6F00019F691200000E0D01886F000E9B
:10072800896F000E8A6F000E8B6F00019F6912009F
:1007380089518A11D8B406D089C0D9FF8AC0DAFF96
:10074800DFBE120001010B510A11091104E1400E2C
:10075800085DD8A009D0400E3E6E400E085F000E1E
:10076800095B0A5B0B5B0AD008C13EF0000E086FFC
:10077800000E096F000E0A6F000E0B6F3E503A6EA6
:100788003B6A3A500001875D3B508859D8A005D094
:100798003E50875F000E885B1AD0000E476E13D05C
:1007A80087518811D8B404D08707D8A088070AD001
:1007B8004750010D000EF324D96E060EF420DA6EB0
:1007C800000EDF6E472A3E50475CD8A0E9D7010EDD
:1007D800016E000E026E060E036E3EC004F0020E9D
:1007E80089EC20F001C089F002C08AF001010851AB
:1007F80009110A110B11D8A4120000019F691200F7
:100808007F0E85EC1FF0120000019F51000AD8B43A
:100818005BD7030AD8B4DDD6110AD8B44CD6080A77
:10082800D8B404D7010AD8B477D7050AD8B435D7CD
:100838003B0AD8B471D60D0AD8B42DD6020AD8B45A
:1008480032D6050AD8B468D7D20AD8B471D7030A01
:10085800D7D7000E0001FE6F000EFD6F000EF26F7D
:10086800000EF36F000EF46F000EF56F7F518011CC
:1008780081118211D8A410D0D20E306E000E316EC4
:10088800FF51DEEC2FF0ECC0B0F0EDC0B1F0000E7F
:100898000001AF6F000EAE6F7FC0C4F080C0C5F01E
:1008A80081C0C6F082C0C7F00001C41FC51FC61FA3
:1008B800C71FC42B000EC523C623C7237B51C425DD
:1008C800C86F7C51C521C96F7D51C621CA6F7E5141
:1008D800C721CB6FCB51CA11C91104E1320EC85DD3
:1008E800D8A01FD07FC042F080C043F081C044F040
:1008F80082C045F0320E466E000E476E000E486EFE
:10090800000E496E800E4A6E020E4B6EB00E4C6E93
:10091800000E4D6EAE0E4E6E000E4F6E0BEC0EF0CE
:1009280034D07FC042F080C043F081C044F082C020
:1009380045F07FC0C4F080C0C5F081C0C6F082C059
:10094800C7F00001C41FC51FC61FC71FC42B000E58
:10095800C523C623C7237B51C425466E7C51C521B8
:10096800476E7D51C621486E7E51C721496E800E63
:100978004A6E020E4B6EB00E4C6E000E4D6EAE0EF1
:100988004E6E000E4F6E0BEC0EF0800E0C6E020ECB
:100998000D6E000E0E6E000E0F6E000E106E000E25
:1009A800116ECB0E126E010E136E10EC00F00CC01F
:1009B800F2F00DC0F3F00EC0F4F00FC0F5F0010135
:1009C800694B6A2BF10E0001F25DFF0EF359FF0E21
:1009D800F459FF0EF559D8A005D0500E666F500E89
:1009E800676F1200F2517F27F3518023F45181235E
:1009F800F5518223FCD00101D0513F6F406B416B10
:100A0800426B41C142F140C141F13FC140F13F6BEE
:100A1800D1513F1341C142F140C141F13FC140F1C1
:100A28003F6B41C142F140C141F13FC140F13F6BD1
:100A380033D792C0FAF0000E0001926F0101CD5138
:100A48003F250001F66F0101CE5140210001F76FEB
:100A5800000E010141210001F86F000E0101422141
:100A68000001F96FFA51F625016E000EF721026EAA
:100A7800000EF821036E000EF921046E4DEC39F0DA
:100A880001C0CEF002C0CFF00001FA51F625016E88
:100A9800000EF721026E000EF821036E000EF921F8
:100AA800046EFA5100080101CB25056E81EC25F092
:100AB8000009D8A4F1D60001FD51FE11D8A410D028
:100AC800CEC0FDF0CFC0FEF0FDC016F0FEC017F09E
:100AD8001CEC36F002EC3AF001C0CCF002C0CDF0CC
:100AE800FAC0FBF00001FC6B5DD0FB51F625016EEE
:100AF800FC51F721026E000EF821036E000EF92159
:100B0800046E4DEC39F00001FD5101182AE1FE5147
:100B18000218D8A426D0FB51F625096EFC51F721FE
:100B28000A6E000EF8210B6E000EF9210C6EFDC046
:100B38000DF0FEC00EF01EEC32F009C0D0F00AC075
:100B4800D1F0D00E0001FB25D96E010EFC21DA6E22
:100B5800D051CC25E16ED151CD21E26EDFCFE7FF38
:100B68001ED0F2517F5FF351805BF451815BF551E8
:100B7800825B01016907D8A06A07FBC092F0FDC03B
:100B880009F0FEC00AF086EC30F0FDC009F0FEC0A6
:100B98000AF0E6EC27F00101654B662B1200000114
:100BA800FB4BFC2B0101CB510001FB5D0101CC513A
:100BB8000001FC59D8B070D698D70001FD51FE113C
:100BC800D8B41200FDC009F0FEC00AF086EC30F07F
:100BD800FDC009F0FEC00AF0E6EC27F00101654B04
:100BE800662B700E0001666F700E676F12000101B0
:100BF800CF51000AD8B41DD7010AD8B4DED7050AE8
:100C0800D8B4F9D649D6000E0001ED6F000EEE6F8C
:100C1800000EEF6F000EF06F7F518011811182116D
:100C2800D8A410D0CC0E306E000E316EFF51DEEC21
:100C38002FF0E6C0B0F0E7C0B1F0000E0001AF6FD2
:100C4800000EAE6FFF514FEC30F036C07BF037C06E
:100C58007CF038C07DF039C07EF0000E0001EC6FEA
:100C68000F0EEC6501D012007FC0C4F080C0C5F043
:100C780081C0C6F082C0C7F0C41FC51FC61FC71FEA
:100C8800C42B000EC523C623C7237B51C425C86FB8
:100C98007C51C521C96F7D51C621CA6F7E51C721BC
:100CA800CB6FCB51CA11C91104E1320EC85DD8A06F
:100CB8001FD07FC042F080C043F081C044F082C0A2
:100CC80045F0320E466E000E476E000E486E000E5E
:100CD800496E800E4A6E020E4B6EB00E4C6E000EC0
:100CE8004D6EAE0E4E6E000E4F6E0BEC0EF034D005
:100CF8007FC042F080C043F081C044F082C045F01C
:100D08007FC0C4F080C0C5F081C0C6F082C0C7F003
:100D18000001C41FC51FC61FC71FC42B000EC52353
:100D2800C623C7237B51C425466E7C51C521476E17
:100D38007D51C621486E7E51C721496E800E4A6E8C
:100D4800020E4B6EB00E4C6E000E4D6EAE0E4E6E19
:100D5800000E4F6E0BEC0EF0800E0C6E020E0D6E38
:100D6800000E0E6E000E0F6E000E106E000E116E4D
:100D7800CB0E126E010E136E10EC00F00CC0EDF0ED
:100D88000DC0EEF00EC0EFF00FC0F0F00101694B9E
:100D98006A2B040ECF19D8A41CD0D0513F6F406BDA
:100DA800416B426B41C142F140C141F13FC140F149
:100DB8003F6BD1513F1341C142F140C141F13FC1A5
:100DC80040F13F6B41C142F140C141F13FC140F1A7
:100DD8003F6BCF51D8A45DD0CD513F250001F16FB5
:100DE8000101CE5140210001F26F000E01014121A5
:100DF8000001F36F000E010142210001F46F0101AF
:100E080047510001F15D010148510001F25901010A
:100E180049510001F35901014A510001F459D8B070
:100E280008D0F1C047F1F2C048F1F3C049F1F4C06D
:100E38004AF1F1510101435D0001F25101014459A8
:100E48000001F351010145590001F45101014659CE
:100E5800D8B008D0F1C043F1F2C044F1F3C045F175
:100E6800F4C046F1F1C001F0F2C002F0F3C003F0A3
:100E7800F4C004F0CBC105F081EC25F0FF0AD8A43A
:100E880008D00B0E0001936F500E666F500E676FFF
:100E980012000001ED51EE11EF11F011D8A427D086
:100EA80069C167F16AC168F1000E01016A6F000E3D
:100EB800696F000E00017F6F000E806F000E816F5A
:100EC800000E826F000E01013F6F000E406F000E92
:100ED800416F000E426F000E666F000E656F000EC8
:100EE8000001926F400E666F400E676F1200F10EA0
:100EF800ED5DFF0EEE59FF0EEF59FF0EF059D8A029
:100F080007D0ED510F0B936F500E666F500EEDD753
:100F1800ED517F27EE518023EF518123F051822339
:100F2800EC2B9ED6000E1D6E17D01D50010D700EB5
:100F3800F324F66E8D0EF420F76EF86A000EF82290
:100F48001D50010D7B0EF324D96E010EF420DA6ECC
:100F58000800F5CFDFFF1D2A1D50010D700EF32488
:100F6800F66E8D0EF420F76EF86A000EF82208006F
:100F7800F5500009D8A4D9D7000E1D6E17D01D5002
:100F8800010DBA0EF324F66E8C0EF420F76EF86A93
:100F9800000EF8221D50010D8F0EF324D96E010E9C
:100FA800F420DA6E0800F5CFDFFF1D2A1D50010D71
:100FB800BA0EF324F66E8C0EF420F76EF86A000E63
:100FC800F8220800F5500009D8A4D9D7000E1D6EE4
:100FD800D6D01D50010D820EF324F66E8C0EF4202F
:100FE800F76EF86A000EF8221D50010DA30EF324C7
:100FF800D96E010EF420DA6E0800F5CFDFFF1D2A46
:101008001D50010D820EF324F66E8C0EF420F76E3F
:10101800F86A000EF8220800F5500009D8B4C0D0CC
:10102800D8D71D50010DD00EF324F66E8D0EF42086
:10103800F76EF86A000EF8221D50010DA30EF32476
:10104800D96E010EF420DA6E0800F5CFDFFF1D2AF5
:101058001D50010DD00EF324F66E8D0EF420F76EA0
:10106800F86A000EF8220800F5500009D8B498D0A4
:10107800D8D71D50010DDF0EF324F66E8D0EF42027
:10108800F76EF86A000EF8221D50010DA30EF32426
:10109800D96E010EF420DA6E0800F5CFDFFF1D2AA5
:1010A8001D50010DDF0EF324F66E8D0EF420F76E41
:1010B800F86A000EF8220800F5500009D8B470D07C
:1010C800D8D71D50010DFD0EF324F66E8D0EF420B9
:1010D800F76EF86A000EF8221D50010DA30EF324D6
:1010E800D96E010EF420DA6E0800F5CFDFFF1D2A55
:1010F8001D50010DFD0EF324F66E8D0EF420F76ED3
:10110800F86A000EF8220800F5500009D8B448D053
:10111800D8D71D50010D5A0EF324F66E8C0EF4200C
:10112800F76EF86A000EF8221D50010DA30EF32485
:10113800D96E010EF420DA6E0800F5CFDFFF1D2A04
:101148001D50010D5A0EF324F66E8C0EF420F76E26
:10115800F86A000EF8220800F5500009D8A4D9D77B
:1011680025EC3AF001C00EF002C00FF0106A116AC7
:10117800C50E126E010E136E79EC18F011D054ECF6
:101188003AF00B0AD8B4DCD7070AD8B4B1D7010AA9
:10119800D8B486D7030AD8B45BD7010AD8B430D7F5
:1011A800000E1D6E17D01D50010D410EF324F66E72
:1011B8008E0EF420F76EF86A000EF8221D50010D0D
:1011C800B70EF324D96E010EF420DA6E0800F5CFBD
:1011D800DFFF1D2A1D50010D410EF324F66E8E0E01
:1011E800F420F76EF86A000EF8220800F55000099E
:1011F800D8A4D9D72AEC3AF001C019F002C01AF0E5
:101208001D50010DB70EF3241B6E010EF4201C6E49
:101218009CEC28F0120046D111C186F012C185F06D
:1012280013C184F014C183F016C188F017C187F088
:101238008751306E8851316E326A336A090ED89000
:101248003036313632363336E82EF9D730C00BF027
:1012580031C00CF032C00DF033C00EF0E4EC22F0D7
:101268000009D8A431D1F7C101F0F8C102F001D8C2
:101278000AD00500FA6E0101F351FD6EF451FE6EBD
:10128800FF6AFA5012000009D8B416D0010E0D01F9
:101298008C6F01012151F00B0709216F270E2B6F6D
:1012A800000E2C6F000E016E020E7EEC1EF0000E7A
:1012B80000019D6F9D511200010E0001A06F875122
:1012C8008811D8A402D0000E56D0030E9D6F000ED0
:1012D8000101776F060E786F000E0D01886F020E00
:1012E800896F000E8A6F000E8B6F0D01885189116E
:1012F8008A118B11D8B41ED000018B518C11D8B42F
:1013080006D08BC0D9FF8CC0DAFFDFBEDDD0000E5F
:10131800016E77C102F078C103F0400E046E020E30
:1013280089EC20F001C08BF002C08CF0040E0001A3
:101338009D6F23D0F7C101F0F8C102F001D80AD09F
:101348000500FA6E0101F351FD6EF451FE6EFF6A5D
:10135800FA5012000009D8B40CD0010E0D018C6FA0
:1013680001012151F00B0209216F270E2B6F000E8E
:101378002C6F020E95D09D6FA7D08B518C11D8B4CD
:1013880006D08BC0D9FF8CC0DAFFDFBE9DD020EE1F
:1013980001F08B51D9268C51DA22DF50306E30C0E3
:1013A80031F0326A336A346A31500101085F3250D1
:1013B800095B33500A5B34500B5B000120EE01F0EF
:1013C8008B51D9268C51DA22DF50306E30C031F083
:1013D800326A336A346A31500D01885F3250895B52
:1013E80033508A5B34508B5B400E01017727000E27
:1013F8007823030E55D00D018C51D8A43CD0F7C1E9
:1014080025F0F8C126F083C027F084C028F085C0F5
:1014180029F086C02AF0000E2B6E060E2C6E0001F5
:101428008351841185118611D8A402D0010E01D0F0
:10143800000E2D6E01D80AD00500FA6E0101F55193
:10144800FD6EF651FE6EFF6AFA501200E806D8B437
:1014580012D0640E00019C6102D09C2B35D0010E85
:101468000D018C6F01012151F00B0309216F000E52
:101478002B6F000E2C6F010E00018327000E8423B2
:10148800852386238707D8A08807010E74D7020E04
:101498000D018C6F000E016E020E7EEC1EF0000E28
:1014A800000169D700019D51000AD8B4B5D6010AD8
:1014B800D8B405D7030AD8B49ED7010AD8B415D72B
:1014C800070AD8B45AD7E3D700019D5112000D017D
:1014D8003205D8A411D030511F0B0009D8A40CD064
:1014E8000001728F030E0D013119D8A402D0010E2C
:1014F80001D0000E0001AB6F0D013251D8A41200CB
:1015080030511F0B020AD8A4120034510F0B0009E6
:10151800D8B4120034510F0B186E030E1860120065
:10152800200E5F18D8A412000001728F0D0134BF7D
:1015380019D034510F0B186E1850020D390EF324C0
:10154800D96E010EF420DA6EDECF1CF0DDCF1DF06F
:1015580034510F0B186E1850010D5D0EF324D96E1F
:10156800010E18D034510F0B186E1850020D750E5D
:10157800F324D96E000EF420DA6EDECF1CF0DDCF36
:101588001DF034510F0B186E1850010D600EF32426
:10159800D96E010EF420DA6EDF501B6E1BB006D038
:1015A800FB0E1C141C6EFF0E1D1404D0040E1C1020
:1015B8001C6E1D501D6E34BF0AD034510F0B186EAF
:1015C8001850020D390EF324D96E010E09D034518A
:1015D8000F0B186E1850020D750EF324D96E000EFD
:1015E800F420DA6E1CC0DEFF1DC0DDFF030E3119CA
:1015F800D8A42DD01CC0D9FF1DC0DAFFDFAE1AD089
:1016080034BF0AD034510F0B186E1850010D5D0EFF
:10161800F324D96E010E0AD00D0134510F0B186E48
:101628001850010D600EF324D96E010EF420DA6E05
:101638000101DF821CC0D9FF1DC0DAFF000EDB8468
:101648001CC0D9FF1DC0DAFF000EDB8E1200040E8D
:101658001C181C6E1D501D6E1CC0D9FF1DC0DAFF62
:10166800DFAE1BD01CC0D9FF1DC0DAFF7F0EDF160E
:101678001CC0D9FF1DC0DAFF000EDB8C000E116EF6
:10168800050E106E1CC012F01DC013F0000E156E72
:10169800020E146E29EC2EF006D01CC0D9FF1DC016
:1016A800DAFF000EDB8C040E1C181C6E1D501D6E1C
:1016B8001BB206D01CC0D9FF1DC0DAFFDFAE30D088
:1016C8000D0134BF0AD034510F0B186E1850010D9C
:1016D8005D0EF324D96E010E0AD00D0134510F0BA3
:1016E800186E1850010D600EF324D96E010EF42007
:1016F800DA6E0101DF921CC0D9FF1DC0DAFF3B0E74
:10170800DF16000E116E050E106E1CC012F01DC003
:1017180013F0000E156E020E146E29EC2EF006D092
:101728001CC0D9FF1DC0DAFF3B0EDF160D01345176
:101738000F0B186E1850010D260EF324196E0F0E9C
:10174800F4201A6E19C0D9FF1AC0DAFFFE0EDF1690
:10175800120091D0EB0E12003C0E1200900E1200F7
:10176800F10EF66E8F0EF76E000EF86E0800F5504B
:101778001200F20EF66E8F0EF76EF86A0800F5503A
:101788001200F30EF66E8F0EF76EF86A0800F55029
:101798001200F40EF66E8F0EF76EF86A0800F55018
:1017A8001200F50EF66E8F0EF76EF86A0800F55007
:1017B8001200F60EF66E8F0EF76EF86A0800F550F6
:1017C8001200F70EF66E8F0EF76EF86A0800F550E5
:1017D8001200F80EF66E8F0EF76EF86A0800F550D4
:1017E8001200000E1200020E1200010E1200010E6D
:1017F8001200000E1200010E1200400E1200000E20
:101808001200FF0E12001F0E1200F80E1200200E1A
:101818001200000E12003F0E1200000E1200100EF1
:101828001200000E1200000E1200000E1200000E30
:101838001200000E1200010E1200000E1200220EFD
:101848001200000E1200000E1200460E1200410E89
:101858001200540E1200310E1200360E1200200E25
:101868001200200E1200200E1200550E1200AA0EB1
:101878001200000E120001C003F002C004F0045070
:10188800000AD8B404D0010AD8B48DD0F2D70350D6
:10189800000AD8B45FD7010AD8B45ED7030AD8B40F
:1018A8005DD7010AD8B45CD7070AD8B462D7010A51
:1018B800D8B467D7030AD8B46CD7010AD8B471D79B
:1018C8000F0AD8B476D7010AD8B47BD7030AD8B49C
:1018D80080D7010AD8B485D7070AD8B484D7010AB3
:1018E800D8B483D7030AD8B482D7010AD8B481D729
:1018F8001F0AD8B480D7010AD8B47FD7030AD8B44E
:101908007ED7010AD8B47DD7070AD8B47CD7010A94
:10191800D8B47BD7030AD8B47AD7010AD8B479D710
:101928000F0AD8B478D7010AD8B477D7030AD8B43D
:1019380076D7010AD8B475D7070AD8B474D7010A7C
:10194800D8B473D7030AD8B472D7010AD8B471D7F8
:10195800370AD8B470D7010AD8B46FD7050AD8B4F3
:101968006ED7010AD8B46DD7030AD8B46CD7010A68
:10197800D8B469D7190AD8B468D7010AD8B467D7D0
:101988000F0AD8B466D7010AD8B465D7030AD8B401
:1019980064D7010AD8B463D7070AD8B462D7010A52
:1019A800D8B461D766D70350FE0AD8B45ED7010A07
:1019B800D8B45DD75ED7200E5F18D8A4120018D10E
:1019C80000018B518C11D8B406D08BC0D9FF8CC0C4
:1019D800DAFFDFBE1200000E526E1E0E526401D0F6
:1019E80014D05250010D400EF324D96E0D0EF42080
:1019F800DA6E5250010D000EF324E16E010EF42050
:101A0800E26EDFCFE7FF522AE8D7000120EE01F0AF
:101A18008B51D9268C51DA221F0EDE18D8A472D029
:101A2800550E010100196EE1530E01196BE1420ECA
:101A3800021968E1430E0319D8A464D0010E00010D
:101A4800986F01010D51D8A452D0110E0E614FD0DC
:101A58000E51D8B44CD00CC14DF03F0E4D16D8A441
:101A680046D0550E0D01806F530E816F420E826F66
:101A7800530E836F04C184FD05C185FD06C186FD33
:101A880007C187FD000E886F000E896F000E8A6FF0
:101A9800000E8B6F000E8C6F00019F69000E9E6F09
:101AA800000E9D6F000E9C6F030E01010F19D8B434
:101AB80008D02191219321952197000E2B6F000EBC
:101AC8002C6F0CAF02D0010E01D0020E0001A06FE6
:101AD8000101085109110A110B11D8B402D0000EE6
:101AE80001D0010E0001996F0FC19FF01200010E85
:101AF800016E020E7EEC1EF0000E016E020E7EECF0
:101B08001EF01200010E016E020E7EEC1EF0000E99
:101B1800016E020E7EEC1EF0000E0001986F12009E
:101B28006DEC1DF0FF0AD8A41200030E0001A06F8F
:101B380012006DEC1DF0FF0AD8A412000D018C51A3
:101B4800D8A408D0885189118A118B11D8B402D031
:101B5800020E8C6F030E0001A06F120079C04EF0C8
:101B68007AC04FF04E504F10D8B40AD079C050F018
:101B78007AC051F050C0D9FF51C0DAFFDFBE120061
:101B8800010E016E800E026E0D0E036E0D0E046EB8
:101B9800020E89EC20F001C089F002C08AF0000131
:101BA8008B518C11D8B406D08BC0D9FF8CC0DAFF0A
:101BB800DFBE0FD0000E016E400E026E0D0E036EDA
:101BC800400E046E020E89EC20F001C08BF002C0BA
:101BD8008CF0000E0001A06F1200000EA06F020E24
:101BE8000D018C6F000E016E020E7EEC1EF01200CD
:101BF8000001A051000AD8B4E3D6010AD8B490D79E
:101C0800030AD8B496D7010AD8B4A8D7E6D742C0F1
:101C180050F043C051F044C052F045C053F00A0E92
:101C280005D0D8905332523251325032E82EF9D77B
:101C380050C0BCF051C0BDF04EC0D9FF4FC0DAFF54
:101C4800DE500001BC5DDE50BD59D8B002D0FF0E99
:101C580012004CC0D9FF4DC0DAFFDECF38F0DDCF1F
:101C680039F04EC0D9FF4FC0DAFFDECF50F0DDCFDC
:101C780051F0501E511E504A512ABC5150243A6E00
:101C8800BD5151203B6E8BEC2BF04CC0D9FF4DC0A1
:101C9800DAFF38C0DEFF39C0DDFF4EC0D9FF4FC0C4
:101CA800DAFFBCC0DEFFBDC0DDFF4CC0D9FF4DC0B0
:101CB800DAFFDECFB8F0DDCFB9F0BCC050F0BDC060
:101CC80051F0090ED89050365136E82EFBD750C047
:101CD800C0F051C0C1F00001C26BC36BC0C050F06E
:101CE800C1C051F0501E511E504A512A4250502432
:101CF800BA6F43505120BB6F000EC06F000EC16F0A
:101D0800000EC26F000EC36F89D0020EBB19BA1144
:101D1800D8A40FD0B8C030F0B9C031F030EC33F0EF
:101D280030C0B8F031C0B9F0000E0001BB6F000E32
:101D3800BA6FB8C001F0B9C002F0F5EC39F001C0D3
:101D4800B6F002C0B7F0BAC050F0BBC051F0501E98
:101D5800511E504A512A000E50240001BE6F020E37
:101D68005120BF6FBE51506EBF51516E526A536AB7
:101D7800C0C054F0C1C055F0C2C056F0C3C057F03F
:101D8800541E551E561E571E542A000E5522562202
:101D9800572246505424586E47505520596E485083
:101DA80056205A6E495057205B6E5050585C51501F
:101DB800595852505A5853505B58D8B00ED0C0C0DA
:101DC80050F0C1C051F0501E511E504A512A465081
:101DD8005024BE6F47505120BF6FB6C028F0B7C01F
:101DE80029F0BAC02AF0BBC02BF0BEC02CF0BFC08F
:101DF8002DF0C0514A242E6EC1514B202F6E51EC4C
:101E080038F00001BE51C027BF51C123000EC223C4
:101E1800000EC323BE51BA27BF51BB234650C05D35
:101E28004750C1594850C2594950C359D8A06DD7D5
:101E3800000E1200000E266E000E256E020E265CA5
:101E4800D8B010D0CC0E2524D96E020E2620DA6E1A
:101E580025C001F026C002F058EC26F0DF6E254AB6
:101E6800262AECD7000E216E000E206ECC0E226EB4
:101E7800020E236E24EC35F0000E266E000E256E41
:101E8800020E265CD8B010D0CC0E2524D96E020ED6
:101E98002620DA6E25C001F026C002F0ADEC0BF06A
:101EA800DF6E254A262AECD7000E216E010E206E21
:101EB800CC0E226E020E236E24EC35F0000E266E38
:101EC800000E256E020E265CD8B010D0CC0E25244C
:101ED800D96E020E2620DA6E25C001F026C002F067
:101EE800DCEC33F0DF6E254A262AECD7000E216E93
:101EF800020E206ECC0E226E020E236E24EC35F0FC
:101F0800000E266E000E256E020E265CD8B00BD091
:101F1800CC0E2524D96E020E2620DA6E000EDF6E56
:101F2800254A262AF1D7000E266E030E256E265066
:101F380011E1220E255CD8B00DD025C020F026C0B6
:101F480021F0CC0E226E020E236E24EC35F0254AC9
:101F5800262AEDD7000E266E000E256E020E265C90
:101F6800D8B010D0CC0E2524D96E020E2620DA6EF9
:101F780025C001F026C002F0C1EC14F0DF6E254A3E
:101F8800262AECD7000E216E220E206ECC0E226E71
:101F9800020E236E24EC35F0000E266E000E256E20
:101FA800020E265CD8B00BD0CC0E2524D96E020EBA
:101FB8002620DA6E000EDF6E254A262AF1D7000E9B
:101FC800266E230E256E265011E1260E255CD8B00C
:101FD8000DD025C020F026C021F0CC0E226E020EB6
:101FE800236E24EC35F0254A262AEDD7000E266EFE
:101FF800000E256E020E265CD8B010D0CC0E25241B
:10200800D96E020E2620DA6E25C001F026C002F035
:102018002AEC38F0DF6E254A262AECD7000E216E0E
:10202800260E206ECC0E226E020E236E24EC35F0A6
:10203800000E120005C0D9FF06C0DAFF130EDF6ECE
:1020480020EE01F00550D9260650DA224B0EDF6E3D
:1020580020EE02F00550D9260650DA22160EDF6E61
:10206800D5EC39F001C00CF002C00DF003C00EF041
:1020780004C00FF020EE03F00550D9260650DA22EE
:102088000F50DF6E20EE04F00550D9260650DA22F4
:102098000EC0DFFF20EE05F00550D9260650DA22E3
:1020A8000D50DF6E20EE06F00550D9260650DA22D4
:1020B8000CC0DFFF2AEC3AF001C010F002C011F0AA
:1020C80020EE07F00550D9260650DA221150DF6EAF
:1020D80020EE08F00550D9260650DA2210C0DFFF9E
:1020E80034EC3AF001C010F002C011F020EE09F013
:1020F8000550D9260650DA221150DF6E20EE0AF07C
:102108000550D9260650DA2210C0DFFF20EE0BF06A
:102118000550D9260650DA2254EC3AF0DF6E2FEC3F
:102128003AF001C010F002C011F020EE0CF005509A
:10213800D9260650DA221150DF6E20EE0DF0055038
:10214800D9260650DA2210C0DFFF20EC3AF001C091
:1021580010F002C011F020EE0EF00550D9260650FE
:10216800DA221150DF6E20EE0FF00550D926065006
:10217800DA2210C0DFFF25EC3AF001C010F002C0EF
:1021880011F020EE10F00550D9260650DA22115031
:10219800DF6E20EE11F00550D9260650DA2210C065
:1021A800DFFF20EE12F00550D9260650DA2248EC5F
:1021B8003AF0DF6E20EE13F00550D9260650DA22E9
:1021C8004EEC3AF0DF6E20EE14F00550D92606509A
:1021D800DA224BEC3AF0DF6E20EC3AF001500A6E4E
:1021E8002B0E0A6402D02B0E0A6E000E0B6E14D052
:1021F8000B50A5EC39F0076E0B50086E096A150EE6
:102208000826000E092208500524D96E0950062018
:10221800DA6E07C0DFFF0B2A0A500B5CD8B0120039
:10222800E7D7000E196E17D01950010DA00EF32430
:10223800F66E8D0EF420F76EF86A000EF82219502B
:10224800010D7B0EF324D96E010EF420DA6E08001E
:10225800F5CFDFFF192A1950010DA00EF324F66EF1
:102268008D0EF420F76EF86A000EF8220800F5507B
:102278000009D8A4D9D7000E196E17D01950010D2E
:10228800950EF324F66E8C0EF420F76EF86A000EA5
:10229800F8221950010D8F0EF324D96E010EF42087
:1022A800DA6E0800F5CFDFFF192A1950010D950ED7
:1022B800F324F66E8C0EF420F76EF86A000EF822FE
:1022C8000800F5500009D8A4D9D7000E196E17D008
:1022D8001950010D6E0EF324F66E8E0EF420F76E73
:1022E800F86A000EF8221950010DA30EF324D96ED6
:1022F800010EF420DA6E0800F5CFDFFF192A195015
:10230800010D6E0EF324F66E8E0EF420F76EF86A49
:10231800000EF8220800F5500009D8A4D9D7D5EC4A
:1023280039F001C00EF002C00FF003C010F004C075
:1023380011F01950010DA30EF324126E010EF420B2
:10234800136E79EC18F0060F186E000E196E1CD07B
:102358001950010D670EF324F66E8E0EF420F76EF9
:10236800F86A000EF822195018C016F0176A1626D7
:10237800000E1722A30E1624D96E010E1720DA6E4E
:102388000800F5CFDFFF192A1950010D670EF32455
:10239800F66E8E0EF420F76EF86A000EF82208002A
:1023A800F5500009D8A4D4D7000E196E17D01950CB
:1023B800010DCC0EF324F66E8C0EF420F76EF86A3D
:1023C800000EF8221950010DB70EF324D96E010E34
:1023D800F420DA6E0800F5CFDFFF192A1950010D35
:1023E800CC0EF324F66E8C0EF420F76EF86A000E0D
:1023F800F8220800F5500009D8B41200D8D7D7D071
:1024080011C186F012C185F013C184F014C183F0A4
:1024180016C188F017C187F08751366E8851376E1C
:10242800386A396A090ED89036363736383639362A
:10243800E82EF9D736C00BF037C00CF038C00DF0D5
:1024480039C00EF0E4EC22F00009D8A4C2D0010E85
:1024580000019E6F87518811D8A402D0000E46D083
:102468008707D8A08807020E9E6F89518A11D8B4B1
:1024780006D089C0D9FF8AC0DAFFDFBEAAD0F7C16B
:102488002CF0F8C12DF083C02EF084C02FF085C049
:1024980030F086C031F0000E326E060E336E01D871
:1024A8000AD00500FA6E0101F151FD6EF251FE6E7F
:1024B800FF6AFA501200E806D8B41AD0640E000178
:1024C8009C6102D09C2B85D0020E0D018C6F0101FE
:1024D8002151F00B0309216F000E2B6F000E2C6F9A
:1024E800010E016E020E7EEC1EF05ED09E6F71D062
:1024F800010E00018327000E842385238623000E06
:102508000D01886F020E896F000E8A6F000E8B6FA7
:10251800000E0101776F060E786F030E00019E6FA3
:102528000D01885189118A118B11D8A402D0010E8E
:102538003CD0040E00019E6F89518A11D8B406D090
:1025480089C0D9FF8AC0DAFFDFBE43D0010E016E11
:1025580077C102F078C103F0400E046E020E89ECD8
:1025680020F001C089F002C08AF0030E00019E6FBE
:10257800400E0101085F000E095B0A5B0B5B400E11
:102588000D01885F000E895B8A5B8B5B400E010141
:102598007727000E78231DD0020E0D018C6F010ED7
:1025A800016E020E7EEC1EF0000E00019FD70001A6
:1025B8009E51000AD8B424D7010AD8B44BD7030ACD
:1025C800D8B453D7010AD8B4ABD7070AD8B4B4D70C
:1025D800E3D700019E511200000E1D6E17D01D504A
:1025E800010DC00EF324F66E8D0EF420F76EF86A16
:1025F800000EF8221D50010D7B0EF324D96E010E3A
:10260800F420DA6E0800F5CFDFFF1D2A1D50010DFA
:10261800C00EF324F66E8D0EF420F76EF86A000EE5
:10262800F8220800F5500009D8A4D9D7000E1D6E6D
:1026380017D01D50010D380EF324F66E8E0EF420BF
:10264800F76EF86A000EF8221D50010D8F0EF32464
:10265800D96E010EF420DA6E0800F5CFDFFF1D2ACF
:102668001D50010D380EF324F66E8E0EF420F76E11
:10267800F86A000EF8220800F5500009D8A4D9D746
:10268800000E1A6E000E196E1D50010D8F0EF324E8
:102698001B6E010EF4201C6E9CEC28F01D261D50AC
:1026A800010D8F0EF324D96E010EF420DA6E2E0E72
:1026B800DF6E1D2A000E1A6E050E196E1D50010DD3
:1026C8008F0EF3241B6E010EF4201C6E9CEC28F078
:1026D8001D261D50010D8F0EF324D96E010EF42016
:1026E800DA6E2E0EDF6E1D2A000E1A6E010E196E9E
:1026F8001D50010D8F0EF3241B6E010EF4201C6E6D
:102708009CEC28F01D26000E1D6E17D01D50010DE3
:102718007E0EF324F66E8E0EF420F76EF86A000E25
:10272800F8221D50010DA30EF324D96E010EF420DA
:10273800DA6E0800F5CFDFFF1D2A1D50010D7E0E51
:10274800F324F66E8E0EF420F76EF86A000EF82267
:102758000800F5500009D8A4D9D7000E1D6E17D06F
:102768001D50010DEE0EF324F66E8D0EF420F76E5B
:10277800F86A000EF8221D50010DB70EF324D96E29
:10278800010EF420DA6E0800F5CFDFFF1D2A1D5078
:10279800010DEE0EF324F66E8D0EF420F76EF86A36
:1027A800000EF8220800F5500009D8B41200D8D756
:1027B800000E1D6E17D01D50010D600EF324F66E2D
:1027C8008D0EF420F76EF86A000EF8221D50010DE8
:1027D8007B0EF324D96E010EF420DA6E0800F5CFD3
:1027E800DFFF1D2A1D50010D600EF324F66E8D0EBD
:1027F800F420F76EF86A000EF8220800F550000978
:10280800D8A4D9D7000E1D6E17D01D50010DA80EE3
:10281800F324F66E8C0EF420F76EF86A000EF82298
:102828001D50010D8F0EF324D96E010EF420DA6EBF
:102838000800F5CFDFFF1D2A1D50010DA80EF32457
:10284800F66E8C0EF420F76EF86A000EF822080077
:10285800F5500009D8A4D9D7000E1D6E17D01D5009
:10286800010D590EF324F66E8E0EF420F76EF86AF9
:10287800000EF8221D50010DA30EF324D96E010E8F
:10288800F420DA6E0800F5CFDFFF1D2A1D50010D78
:10289800590EF324F66E8E0EF420F76EF86A000EC9
:1028A800F8220800F5500009D8A4D9D72AEC3AF044
:1028B80001C019F002C01AF01D50010DA30EF32437
:1028C8001B6E010EF4201C6E9CEC28F01D261D507A
:1028D800010DA30EF324D96E010EF420DA6E2F0E2B
:1028E800DF6E1D2A34EC3AF001C019F002C01AF06C
:1028F8001D50010DA30EF3241B6E010EF4201C6E57
:102908009CEC28F0000E1D6E17D01D50010D500EC6
:10291800F324F66E8D0EF420F76EF86A000EF82296
:102928001D50010DB70EF324D96E010EF420DA6E96
:102938000800F5CFDFFF1D2A1D50010D500EF324AE
:10294800F66E8D0EF420F76EF86A000EF822080075
:10295800F5500009D8A4D9D72FEC3AF001C019F0E6
:1029680002C01AF01D50010DB70EF3241B6E010EA4
:10297800F4201C6E9CEC28F0120002501DE1200E81
:10298800015CD8B019D0025010E10B0E015CD8B030
:102998000CD0DC0E0124F66E8F0E0220F76EF86A5A
:1029A800000EF8220800F55012000B0E0118021054
:1029B800D8A402D0080E1200025003E1400E015CB8
:1029C800D8B0A4D0200E015E000E025A025010E1C9
:1029D800080E015CD8B00CD0E80E0124F66E8F0EFC
:1029E8000220F76EF86A000EF8220800F55012006F
:1029F800025046E10B0E015CD8B042D0F80E036ECF
:102A0800FF0E046E01C005F002C006F00350052653
:102A180004500622FA0E0524F66E8F0E0620F76E75
:102A2800F86A000EF8220800F5501200200E120075
:102A3800060E1200280E1200780E1200DE0E12008A
:102A4800380E12005F0E12004B0E1200000E12001C
:102A5800000E1200040E1200770E1200DE0E120095
:102A6800380E1200020E1200000E12000C0E120098
:102A7800000E1200000E1200000E1200000E1200CE
:102A880001C003F002C004F00450000AD8A4F6D72D
:102A980003500B0AD8B4CAD7060AD8B4C9D7030A50
:102AA800D8B4C8D7010AD8B4C7D71F0AD8B4C6D76C
:102AB800010AD8B4C5D7030AD8B4C4D7010AD8B410
:102AC800C3D7070AD8B4C2D7010AD8B4C1D7030AF2
:102AD800D8B4C0D7010AD8B4BFD70F0AD8B4BED764
:102AE800010AD8B4BDD7030AD8B4BCD7010AD8B4F0
:102AF800BBD7070AD8B4BAD7010AD8B4B9D7030ADA
:102B0800D8B4B8D7010AD8B4B7D7B8D7000E1200CE
:102B18009ED000016151800A7F0FD8B005D0635163
:102B2800800A7F0FD8A01200000E616F000E636F3D
:102B380012006151800A7F0FD8B005D06351800A16
:102B48007F0FD8A01200000E616F000E636F120095
:102B58006151800A7F0FD8B005D06351800A7F0F7A
:102B6800D8A01200300E666F300E676F000E616FCE
:102B7800000E636F12006151800A7F0FD8B005D034
:102B88006351800A7F0FD8A01200000E616F000EFB
:102B9800636F12006151800A7F0FD8B005D063516E
:102BA800800A7F0FD8A01200000E616F000E636FBD
:102BB80012006151800A7F0FD8B005D06351800A96
:102BC8007F0FD8A01200600E666F600E676F000E50
:102BD800616F000E636F12006151800A7F0FD8B0D9
:102BE80005D06351800A7F0FD8A01200000E616FD4
:102BF800000E636F12006151800A7F0FD8B005D0B4
:102C08006351800A7F0FD8A01200010E0C6E000ECF
:102C18000B6E780E0D6EFAEC35F00A0EB0EC38F04B
:102C280075EC39F0120000016151800A7F0FD8B0AD
:102C380005D06351800A7F0FD8A01200100E666F6E
:102C4800100E676F000E616F000E636F12000001B7
:102C58006751000AD8B45DD7100AD8B46AD7300AC9
:102C6800D8B476D7100AD8B486D7700AD8B4A1D702
:102C7800100AD8B48FD7300AD8B4AED7100AD8B44F
:102C8800BAD7E00AD8A41200CED7000E206E17D00B
:102C98002050010D800EF324F66E8D0EF420F76E91
:102CA800F86A000EF8222050010D7B0EF324D96E2D
:102CB800010EF420DA6E0800F5CFDFFF202A20503D
:102CC800010D800EF324F66E8D0EF420F76EF86A6F
:102CD800000EF8220800F5500009D8A4D9D7000E34
:102CE800206E17D02050010D450EF324F66E8C0E81
:102CF800F420F76EF86A000EF8222050010D8F0EAE
:102D0800F324D96E010EF420DA6E0800F5CFDFFF48
:102D1800202A2050010D450EF324F66E8C0EF42067
:102D2800F76EF86A000EF8220800F5500009D8A4DA
:102D3800D9D734EC3AF001C019F002C01AF0A30E4A
:102D48001B6E010E1C6E9CEC28F01F6E1F2A000ED5
:102D5800206E1CD02050010D490EF324F66E8E0E05
:102D6800F420F76EF86A000EF82220501FC01DF0FC
:102D78001E6A1D26000E1E22A30E1D24D96E010EEA
:102D88001E20DA6E0800F5CFDFFF202A2050010D43
:102D9800490EF324F66E8E0EF420F76EF86A000ED4
:102DA800F8220800F5500009D8A4D4D7000E206EE8
:102DB80017D02050010DDE0EF324F66E8C0EF42091
:102DC800F76EF86A000EF8222050010DB70EF324B2
:102DD800D96E010EF420DA6E0800F5CFDFFF202A45
:102DE8002050010DDE0EF324F66E8C0EF420F76EE3
:102DF800F86A000EF8220800F5500009D8B412004D
:102E0800D8D75F50D8A411D0000E656E000E0F0100
:102E1800366F160E396F9F0E376F7B0E366F01D0E7
:102E2800658665A6FDD7010E5F6E5F04D8B465BAE6
:102E380009D0000E626E000E0F01366F368136899A
:102E4800020E5F6E62A406D00F0136A503D062940D
:102E5800F4EC36F065A202D0A198120062A008D066
:102E68000F0136A105D077EC1AF0040E5F6E629060
:102E780062A804D00F0136B990EC37F062AC1CD0D0
:102E88000F0136AD0ED0000E116E730E106E000ECF
:102E9800126E000E136E000E156E010E146E29ECE4
:102EA8002EF0629CC2EC38F00001A751D8A4A70705
:102EB800A751D8B423EC27F062AA04D00F0136BB7F
:102EC800D8EC35F062A212D00F0136A30FD07F0ED6
:102ED800116E1068000E126E000E136E000E156E45
:102EE800010E146E29EC2EF0000E636E040E5F6066
:102EF80002D0A19812000F0136A73CD0000E206E18
:102F0800030E206401D036D062A634D064CFB4F06A
:102F18000001B431E832E8320F0BA96F6296B4B5FC
:102F280007D0A951010D5D0EF324D96E010E07D00B
:102F38000001A951010D600EF324D96E010EF42091
:102F4800DA6E0101DF700001A951D8A403D0F4ECB6
:102F580028F00ED0000E116E720E106EB40E126EA6
:102F6800000E136E000E156E000E146E29EC2EF076
:102F7800202AC6D7A1981200000E1D6E17D01D502A
:102F8800010D400EF324F66E8D0EF420F76EF86AEC
:102F9800000EF8221D50010D7B0EF324D96E010E90
:102FA800F420DA6E0800F5CFDFFF1D2A1D50010D51
:102FB800400EF324F66E8D0EF420F76EF86A000EBC
:102FC800F8220800F5500009D8A4D9D7000E1D6EC4
:102FD80017D01D50010D750EF324F66E8E0EF420D9
:102FE800F76EF86A000EF8221D50010D8F0EF324BB
:102FF800D96E010EF420DA6E0800F5CFDFFF1D2A26
:103008001D50010D750EF324F66E8E0EF420F76E2A
:10301800F86A000EF8220800F5500009D8A4D9D79C
:10302800000E1D6E17D01D50010D300EF324F66EE4
:103038008D0EF420F76EF86A000EF8221D50010D6F
:10304800A30EF324D96E010EF420DA6E0800F5CF32
:10305800DFFF1D2A1D50010D300EF324F66E8D0E74
:10306800F420F76EF86A000EF8220800F5500009FF
:10307800D8A4D9D72FEC3AF001C019F002C01AF041
:103088001D50010DA30EF3241B6E010EF4201C6EBF
:103098009CEC28F0000E1D6E17D01D50010D200E5F
:1030A800F324F66E8D0EF420F76EF86A000EF822FF
:1030B8001D50010DB70EF324D96E010EF420DA6EFF
:1030C8000800F5CFDFFF1D2A1D50010D200EF32447
:1030D800F66E8D0EF420F76EF86A000EF8220800DE
:1030E800F5500009D8B41200D8D7115010100F109D
:1030F80006E10A0E0E5CD8B002D0010E59D011506C
:1031080010100F1006E1640E0E5CD8B002D0020E4B
:103118004FD01150101008E1E80E0E5C030E0F5846
:10312800D8B002D0030E44D01150101008E1100E90
:103138000E5C270E0F58D8B002D0040E39D01150AB
:103148000AE1A00E0E5C860E0F58010E1058D8B07A
:1031580002D0050E2DD011500AE1400E0E5C420E31
:103168000F580F0E1058D8B002D0060E21D01150AB
:103178000AE1800E0E5C960E0F58980E1058D8B0C3
:1031880002D0070E15D0E10E0F5CF50E1058050E93
:103198001158D8B002D0080E0BD0CA0E0F5C9A0E88
:1031A80010583B0E1158D8B002D0090E01D00A0EA3
:1031B800156E1504146E14BE42D01450016E026AC6
:1031C80001BE0206000E046E010E036E8AEC38F092
:1031D80001501224D96E02501320DA6E0EC001F08D
:1031E8000FC002F010C003F011C004F00A0E056E03
:1031F800000E066E000E076E000E086E58EC31F0D9
:103208000150300FDF6E0EC001F00FC002F010C089
:1032180003F011C004F00A0E056E000E066E000ED3
:10322800076E000E086EAEEC2EF001C00EF002C064
:103238000FF003C010F004C011F01406BCD71550ED
:103248001200000E016E17D00150010D100EF3246C
:10325800F66E8D0EF420F76EF86A000EF822015013
:10326800010D7B0EF324D96E010EF420DA6E0800EE
:10327800F5CFDFFF012A0150010D100EF324F66E81
:103288008D0EF420F76EF86A000EF8220800F5504B
:103298000009D8A4D9D7000E016E17D00150010D2E
:1032A800250EF324F66E8E0EF420F76EF86A000EE3
:1032B800F8220150010D8F0EF324D96E010EF4206F
:1032C800DA6E0800F5CFDFFF012A0150010D250E47
:1032D800F324F66E8E0EF420F76EF86A000EF822CC
:1032E8000800F5500009D8A4D9D7000E016E17D0F0
:1032F8000150010D7D0EF324F66E8E0EF420F76E4C
:10330800F86A000EF8220150010DA30EF324D96EBD
:10331800010EF420DA6E0800F5CFDFFF012A015014
:10332800010D7D0EF324F66E8E0EF420F76EF86A0A
:10333800000EF8220800F5500009D8A4D9D7000ECD
:10334800016E17D00150010D000EF324F66E8D0E9C
:10335800F420F76EF86A000EF8220150010DB70E3E
:10336800F324D96E010EF420DA6E0800F5CFDFFFE2
:10337800012A0150010D000EF324F66E8D0EF42083
:10338800F76EF86A000EF8220800F5500009D8B464
:103398001200D8D7000E016E17D00150010DB00EE3
:1033A800F324F66E8D0EF420F76EF86A000EF822FC
:1033B8000150010D7B0EF324D96E010EF420DA6E54
:1033C8000800F5CFDFFF012A0150010DB00EF324EC
:1033D800F66E8D0EF420F76EF86A000EF8220800DB
:1033E800F5500009D8A4D9D7000E016E17D00150A6
:1033F800010DEF0EF324F66E8C0EF420F76EF86ACA
:10340800000EF8220150010D8F0EF324D96E010E23
:10341800F420DA6E0800F5CFDFFF012A0150010D14
:10342800EF0EF324F66E8C0EF420F76EF86A000E99
:10343800F8220800F5500009D8A4D9D7000E016E6B
:1034480017D00150010D6E0EF324F66E8C0EF42089
:10345800F76EF86A000EF8220150010DA30EF3244E
:10346800D96E010EF420DA6E0800F5CFDFFF012ACD
:103478000150010D6E0EF324F66E8C0EF420F76EDB
:10348800F86A000EF8220800F5500009D8A4D9D728
:10349800000E016E17D00150010D2F0EF324F66EA9
:1034A8008E0EF420F76EF86A000EF8220150010D16
:1034B800B70EF324D96E010EF420DA6E0800F5CFAA
:1034C800DFFF012A0150010D2F0EF324F66E8E0E38
:1034D800F420F76EF86A000EF8220800F55000098B
:1034E800D8B41200D8D7A098000E636E000E626E92
:1034F800000E0F01266F270E016E0F0E026E000ED2
:10350800046E000E036E000E066E020E056EEBECE6
:1035180037F0160E0F01396F9F0E376F7B0E366F1F
:10352800000E096E0B0E096401D00ED00950040D6F
:10353800000EF324D96E0D0EF420DA6EDE6ADE6A10
:10354800DE6ADD6A092AEED7658C000E0F01386F36
:103558006598659C6296000E0001726F000E01016D
:10356800346F000E366F000E356F62B6F3D7010E5A
:103578000001A56F010EA46F000EA36F000EA26FCD
:10358800000EAA6F000E096E020E096401D02ED03B
:103598000950020D750EF324D96E000EF420DA6E70
:1035A800000EDE6E000EDD6E0950020D390EF3249A
:1035B800D96E010EF420DA6E000EDE6E000EDD6E9E
:1035C8000950010D600EF324D96E010EF420DA6E55
:1035D800000EDF6E0950010D5D0EF324D96E010E49
:1035E800F420DA6E000EDF6E092ACED7080E00012D
:1035F800756F0D0E766F160E0F01266F0D0E0D01ED
:10360800036F300E026F080E016F040E006F008FFB
:10361800000E0001B56F000E0101536F000E546FCC
:10362800000E556F000E566F000E0001A16F000EC0
:103638005F6E1200800E0D013019D8A41200C00E62
:103648000001726F88D07C0E00016F6F8F0E706F53
:10365800000E746F120E736F12000D013251D8A450
:1036680043D03251020D7B0EF324F66E8E0EF420F9
:10367800F76EF86A000EF8220900F5CF6FF00A001D
:10368800F5CF70F0020E00016F25016E000E70215B
:10369800026E01C0F6FF02C0F7FFF86A0E0EF7646B
:1036A80003D00800F55005D0F6CFE9FFF7CFEAFFC1
:1036B800EF500001736F030E6F25016E000E70212D
:1036C800026E01C0F6FF02C0F7FFF86A0E0EF7643B
:1036D80003D00800F55005D0F6CFE9FFF7CFEAFF91
:1036E800EF500001746F1200000E0001726F12009B
:1036F800040E0D01326127D03251020D510EF32410
:10370800F66E8E0EF420F76EF86A000EF8220900A5
:10371800F5CF6FF00A00F5CF70F06FC0F6FF70C0FC
:10372800F7FFF86A0E0EF76403D00800F55005D0CD
:10373800F6CFE9FFF7CFEAFFEF50016E0150000125
:10374800736F746B1200000E0001726F1200000E8E
:103758000001726F12000D013351010AD8B473D7FA
:10376800030AD8B47AD7010AD8B4C2D7F0D7000E62
:103778001F6E17D01F50010D900EF324F66E8D0E9C
:10378800F420F76EF86A000EF8221F50010D7B0E28
:10379800F324D96E010EF420DA6E0800F5CFDFFFAE
:1037A8001F2A1F50010D900EF324F66E8D0EF42083
:1037B800F76EF86A000EF8220800F5500009D8A440
:1037C800D9D7000E1F6E17D01F50010D180EF32405
:1037D800F66E8E0EF420F76EF86A000EF8221F506F
:1037E800010D8F0EF324D96E010EF420DA6E080055
:1037F800F5CFDFFF1F2A1F50010D180EF324F66EB8
:103808008E0EF420F76EF86A000EF8220800F550C4
:103818000009D8A4D9D7000E1F6E17D01F50010D6C
:10382800600EF324F66E8E0EF420F76EF86A000E22
:10383800F8221F50010DA30EF324D96E010EF420B7
:10384800DA6E0800F5CFDFFF1F2A1F50010D600E4A
:10385800F324F66E8E0EF420F76EF86A000EF82246
:103868000800F5500009D8A4D9D72AEC3AF001C0CD
:1038780019F002C01AF01F501D6E1E6A010E1D2697
:10388800000E1E22A30E1D241B6E010E1E201C6E90
:103898009CEC28F01200000E3F6E3F0E3D6E000EAD
:1038A8003E6E36C0D9FF37C0DAFF7F0EDF6401D025
:1038B800120036C0D9FF37C0DAFF200EDE18D8B4A0
:1038C800120036C0D9FF37C0DAFFDF50D8A418D0AD
:1038D80039C0D9FF3AC0DAFF000EDF6E20EE01F0E2
:1038E8003950D9263A50DA224B0EDF6E20EE02F01C
:1038F8003950D9263A50DA22160EDF6E030E3F6E83
:10390800010E406E55D04050010DF3503624D96E4B
:10391800F4503720DA6E990EDE18D8B412002DD084
:103928004050010DF3503624D96EF4503720DA6E2A
:10393800DF5054EC2DF00BD04050010DF3503624DD
:10394800D96EF4503720DA6EDF5054EC2DF0402A4F
:103958002FD04050010DF35036242F6EF4503720ED
:10396800306E39C031F03AC032F03DC033F03EC05D
:1039780034F0BBEC36F040261BD04050010DF3501C
:103988003624D96EF4503720DA6EDF50F00B3B6ED8
:103998003C6A3C50000AD8A412003B50200AD8B414
:1039A800BFD7100AD8B4C8D7600AD8A41200D1D794
:1039B8003850405CD8B01200A6D7000120EE01F0C4
:1039C8008F51D9269051DA22DF50026E0250010140
:1039D800355D000E3659D8A035C102F00250355F6A
:1039E800000E365B000E016E11D00150010D380E2D
:1039F800F324D96E0D0EF420DA6E31C1E1FF32C125
:103A0800E2FFDFCFE7FF314B322B012A0250015C86
:103A1800D8A0EBD735513611D8B433D0000120EEF9
:103A280001F08D51D9268E51DA22080EDF6E20EE74
:103A380002F08D51D9268E51DA22380EDE6E0D0E27
:103A4800DD6E8FC0D9FF90C0DAFFDFBC0DD08DC00E
:103A5800D9FF8EC0DAFF480EDF6E8DC0D9FF8EC049
:103A6800DAFF000EDB8E12008DC0D9FF8EC0DAFFA0
:103A7800080EDF6E8DC0D9FF8EC0DAFF000EDB8E18
:103A88001200000120EE01F08D51D9268E51DA2264
:103A9800080EDF6E20EE02F08D51D9268E51DA2203
:103AA800300EDE6E0D0EDD6E8DC0D9FF8EC0DAFFD2
:103AB800040EDF6E8DC0D9FF8EC0DAFF000EDB8EDC
:103AC8000101349F0001A651D8A4120023EC27F06D
:103AD8001200F7C101F0F8C102F001D80AD00500C0
:103AE800FA6E0101EF51FD6EF051FE6EFF6AFA5059
:103AF80012000009D8B40CD001010D51010D9A0E25
:103B0800F324D96E000EF420DA6EDE04D8A419D09E
:103B18000DC148F0010E496E000E4A6E482A03D0C6
:103B2800D89049364A36482EFBD7491C4B6E4A1C5A
:103B38004C6E4B50010173174C507417BCEC31F0AC
:103B48004ED00DC148F0010E496E000E4A6E482A4B
:103B580003D0D89049364A36482EFBD70101735115
:103B6800491674514A1649504A10D8A436D0F7C19C
:103B780001F0F8C102F001D809D00500FA6EE95148
:103B8800FD6EEA51FE6EFF6AFA50120001500210F3
:103B9800D8B420D00DC148F0010E496E000E4A6E0F
:103BA800482A03D0D89049364A36482EFBD7495080
:103BB800010173134A5074132151F00B0609216F48
:103BC800280E2B6F000E2C6F010E0D018C6F4EEC22
:103BD80002F005D0BCEC31F002D04EEC02F000014E
:103BE8009F51120072D000016151D8A403D06351D3
:103BF800D8B41200BAEC39F0000E0001616F000E63
:103C0800636F1200000E01016E6F000E6D6F020EE1
:103C18000001956F12008996000E01016E6F000E6B
:103C28006D6F030E0001956F120001016D4B6E2B35
:103C38006E5104E1040E6D5DD8A012008986000E55
:103C48006E6F000E6D6F040E0001956F1200FEEC92
:103C580034F08B8223EC39F0000E01016E6F000EF8
:103C68006D6F000E6C6F000E6B6F050E0001956F87
:103C780012006751D8A40BD001016B4B6C2BFA0EC4
:103C88006B196C11D8A403D0100E0001676F0001E6
:103C98006051D8A412D06151D8A40FD06251D8A4D1
:103CA8000CD06351D8A409D001016D2903E16E2914
:103CB800D8B412006D4B6E2B1200000E01016E6F0E
:103CC800000E6D6F8CEC15F0120000019551000A82
:103CD800D8B489D7010AD8B495D7030AD8B49BD7E2
:103CE800010AD8B4A2D7070AD8B4B1D7010AD8A410
:103CF8001200BFD7066E0650D8A42CD0000120EEC3
:103D080001F08D51D9268E51DA22080EDF6E20EE91
:103D180002F08D51D9268E51DA22300EDE6E0D0E4C
:103D2800DD6E8DC0D9FF8EC0DAFF0C0EDF6E8DC040
:103D3800D9FF8EC0DAFF000EDB8E75C0D9FF76C0C2
:103D4800DAFF040EDF6E75C0D9FF76C0DAFF000E09
:103D5800DB8E12000150026E036AD89002360336D9
:103D68000650046E056AD89004360536D890043695
:103D780005360250042603500522D890043605362D
:103D8800D89004360536000E0424076E0D0E052063
:103D9800086E07C0D9FF08C0DAFF000EDB8407C031
:103DA800D9FF08C0DAFF000EDB8E0650040DF3CFF2
:103DB80002F0F4CF03F00150020DF3500226F45044
:103DC8000322D89002360336D89002360336040E02
:103DD8000226000E0322000E0224076E0D0E032099
:103DE800086E07C0D9FF08C0DAFF000EDB8407C0E1
:103DF800D9FF08C0DAFF000EDB8E1200000E016E3C
:103E0800400E026E0D0E036E400E046E020E89EC1B
:103E180020F001C08BF002C08CF079C089F07AC024
:103E28008AF0000E0001A06F9F69000E9E6F000EC1
:103E38009D6F000E996F000E01014F6F000E506FBD
:103E4800000E516F000E526F000E4B6F000E4C6F3C
:103E5800000E4D6F000E4E6F010E0001986F000EA0
:103E68000101746F000E736F000E0D6F46D00D5177
:103E7800010D9A0EF324D96E000EF420DA6E000EAE
:103E8800DF6EF7C101F0F8C102F001D809D00500D2
:103E9800FA6EEF51FD6EF051FE6EFF6AFA50120095
:103EA8000009D8B426D0F7C101F0F8C102F001D852
:103EB8000AD00500FA6E0101E951FD6EEA51FE6E65
:103EC800FF6AFA50120001500210D8B412D00DC186
:103ED8000CF0010E0D6E000E0E6E0C2A03D0D89059
:103EE8000D360E360C2EFBD70D50010173130E50F4
:103EF8007413EDEC31F001010D2B0D51D8A4120013
:103F0800B6D7096E000189518A11D8B406D089C084
:103F1800D9FF8AC0DAFFDFBE12008B518C11D8B4EA
:103F280006D08BC0D9FF8CC0DAFFDFBE1200A0C05C
:103F38000AF09F69000E9E6F000E9D6F08C188FDF4
:103F480009C189FD0AC18AFD0BC18BFD010E0D0156
:103F58008C6F030E0001A06F43D0020E0D018C6F11
:103F68001200010E016E020E7EEC1EF01200020E0F
:103F78000D018C6F010E016E020E7EEC1EF0120018
:103F8800000E016E020E7EEC1EF01200020E0D01F4
:103F98008C6F000E016E020E7EEC1EF01200EDEC2E
:103FA80031F001012151F00B0509216F200E2B6F13
:103FB800000E2C6F020E0A18D8A40CD00851091153
:103FC8000A110B11D8B406D0000E016E020E7EEC59
:103FD8001EF01200010E016E020E7EEC1EF01200A1
:103FE8000950010AD8B4B9D7030AD8B4BAD7010A14
:103FF800D8B4BDD7070AD8B4C3D7010AD8B4C6D72E
:104008007A0AD8A41200CBD715C0D9FF16C0DAFF98
:10401800100EDF6E20EE01F01550D9261650DA2268
:104028004B0EDF6E20EE02F01550D9261650DA221C
:10403800160EDF6E20EE03F01550D9261650DA2240
:104048001BEC3AF0DF6E20EE04F01550D92616501E
:10405800DA22000EDF6E20EE05F01550D926165034
:10406800DA22050EDF6E20EE06F01550D92616501E
:10407800DA22010EDF6E20EE07F01550D926165011
:10408800DA2251EC3AF0DF6E20EE08F01550D9260E
:104098001650DA2260C0DFFF20EE09F01550D9264D
:1040A8001650DA2261C0DFFF20EE0AF01550D9263B
:1040B8001650DA2262C0DFFF20EE0BF01550D92629
:1040C8001650DA2263C0DFFF20EE0CF01550D92617
:1040D8001650DA2264C0DFFF20EE0DF01550D92605
:1040E8001650DA2265C0DFFF20EE0EF01550D926F3
:1040F8001650DA2266C0DFFF20EE0FF01550D926E1
:104108001650DA2267C0DFFF1200096E0150D8B4DA
:1041180007D00950020D750EF324D96E000E06D093
:104128000950020D390EF324D96E010EF420DA6E0F
:10413800DECF0AF0DDCF0BF00A500B10D8A405D063
:10414800000E016E000E026E120020EE02F00A5000
:10415800D9260B50DA2202C0DEFF03C0DDFF20EEB5
:1041680001F00A50D9260B50DA2204C0DFFF0AC03A
:10417800D9FF0BC0DAFF400EDF160AC0D9FF0BC00B
:10418800DAFF000EDB860AC0D9FF0BC0DAFF000E8B
:10419800DB8E0150D8B418D00950020D750EF324E7
:1041A800D96E000EF420DA6EDECF05F0DDCF06F012
:1041B800040E0518076E0650086E0950020D750E9C
:1041C800F324D96E000E17D00950020D390EF324CE
:1041D800D96E010EF420DA6EDECF05F0DDCF06F0E1
:1041E800040E0518076E0650086E0950020D390EA8
:1041F800F324D96E010EF420DA6E07C0DEFF08C082
:10420800DDFF0AC001F00BC002F012006598000142
:1042180072BF3CD0010134AF0DD0020E0001AC6F6B
:10422800A251D8B4DAEC2BF0000E0001A46F000EF6
:10423800A56F1200000120EE01F08D51D9268E5194
:10424800DA22080EDF6E20EE02F08D51D9268E514B
:10425800DA22300EDE6E0D0EDD6E8DC0D9FF8EC0F7
:10426800DAFF0C0EDF6E8DC0D9FF8EC0DAFF000EAC
:10427800DB8E75C0D9FF76C0DAFF040EDF6E75C01D
:10428800D9FF76C0DAFF000EDB8E12000D0130AFC9
:1042980012D0010E0001AC6FA351D8B4DAEC2BF0A8
:1042A800000E0001A46F000EA56FA651D8A412003D
:1042B80023EC27F01200020E0001AC6F20EE01F093
:1042C8008D51D9268E51DA22080EDF6E20EE02F0CB
:1042D8008D51D9268E51DA22300EDE6E0D0EDD6E2E
:1042E8008DC0D9FF8EC0DAFF040EDF6E8DC0D9FFF6
:1042F8008EC0DAFF000EDB8E000EA46F000EA56FD5
:10430800A651D8A4120023EC27F01200F2A4120040
:10431800D10ED76E200ED66E0001642B000E656F8D
:10432800F2948450070B9719D8B42DD084B084A484
:104338000AD097B108D07F0E6019D8B404D0602B8A
:104348008B8E050E6E6F84B484A00BD097B509D000
:104358006051800AFF0FD8A004D060078B8E050E2D
:104368006E6F84B297B305D0010E616F8B8E050E08
:104378006E6F84A297A304D061698B8E050E6E6F51
:104388008450070B976F8050070B9619D8B42DD01F
:1043980080B480A00AD096B508D07F0E6219D8B430
:1043A80004D0622B8B8E050E6E6F80B080A40BD06C
:1043B80096B109D06251800AFF0FD8A004D06207D5
:1043C8008B8E050E6E6F80B296B305D0010E636FAB
:1043D8008B8E050E6E6F80A296A304D063698B8EB8
:1043E800050E6E6F8050070B966F6E51D8B4120091
:1043F8006E076E51D8A412008B9E12000D01303941
:10440800E832030B0009D8A4120047D00001728FCC
:10441800080E5F6E12001EEC1BF01200C5EC23F0B4
:104428001200B50E00016F6F000E706F7281010EE1
:10443800736F728F12004AEC29F012006BEC0AF0CD
:1044480012000D013451010DE70EF32400016F6FC6
:10445800010EF420706F7281010E736F728F12005B
:104468000001728F0D013451010DE70EF324D96E4E
:10447800010EF420DA6E32CDDFFF1200000E116E4D
:10448800020E106E000E126E000E136E000E156EE8
:10449800000E146E29EC2EF012000D013151000AA5
:1044A800D8B4C9D7010AD8B4C9D7020AD8B4C6D76C
:1044B800060AD8B4ABD7030AD8B4ADD7010AD8B422
:1044C800DDD70F0AD8B4ADD7010AD8B4A7D7030AE5
:1044D800D8B4B7D7010AD8B4C3D7070A12000D0158
:1044E80030511F0BE806D8A412003451D8A412008A
:1044F800060E3119D8B41AD022D00001B505D8A4B7
:104508001ED0910E6F6F8E0E706F000E746F090EB5
:104518000BD0C00E726F13D0450E00016F6F8F0E57
:10452800706F000E746F1D0E736FF3D70D0133514A
:10453800210AD8B4E2D7030AD8B4EED7010A0D018C
:104548003039E832030BE806D8A4120024D0B30EA1
:1045580000016F6F000E706F000E746F010E736FA5
:10456800C10E726F1200800E0001726F33CDB3F06E
:104578001200B20E00016F6F000E706F000E746FA4
:10458800010E736F810E726F1200800E0001726F40
:1045980032CDB2F012000D013151010AD8B4120027
:1045A800030AD8B4D4D7010AD8B4E3D70A0AD8B4CE
:1045B8001200030AD8B4D7D7010AD8A41200E5D745
:1045C8000B500C100D100E10D8A402D0010E01D003
:1045D800000E116E00019905D8A405D01104D8A4C5
:1045E80002D0000E12000B50010108191AE10C50FC
:1045F800091917E10D500A1914E10E500B19D8A426
:1046080010D00001A005D8A406D02A0E9F19D8B44E
:1046180008D0000E12002A0E9F19D8A402D0000E4E
:104628001200010108510B5C09510C580A510D5830
:104638000B510E58D8B002D0010E01D0000E0F6EEB
:10464800020E0001A019D8A414D02A0E9F19D8B4BC
:1046580005D01150D8A402D0050E1DD09905D8B4A4
:104668000FD01104D8B403D00F04D8A4F5D7040E82
:1046780012D02A0E9F19D8B40DD09905D8A402D00B
:10468800010E09D01104D8B403D00F04D8A402D065
:10469800020E01D0030E106E105085EC1FF0105062
:1046A8001200000E326E000E346E220E336E34503D
:1046B80066E1260E335CD8B062D033C028F034C02F
:1046C80029F0CC0E2A6E020E2B6E77EC38F0000E15
:1046D800366E000E356E020E365CD8B04BD0CC0E5E
:1046E8003524D96E020E3620DA6EDF50D8A402D0F7
:1046F800FF0E1200CC0E3524D96E020E3620DA6E6B
:10470800E50EDE18D8B430D02CC001F02DC002F070
:10471800CC0E3524036E020E3620046E000E066E93
:10472800080E056E6CEC2EF001500210D8A41CD0B7
:104738002EC001F02FC002F0080E3524306E000E96
:104748003620316ECC0E3024036E020E3120046EFA
:10475800000E066E030E056E6CEC2EF00150021072
:10476800D8A402D032501200322A200E3526000E6C
:104778003622B1D7334A342A345001E19AD7FF0E92
:1047880012000001728F270E016E0F0E026E000ECE
:10479800046E000E036E000E066E020E056EEBEC44
:1047A80037F0000E016E0D0E026E000E046E000E44
:1047B800036E000E066E300E056EEBEC37F0658C5E
:1047C800000E186E020E186401D016D01850010D94
:1047D800600EF324D96E010EF420DA6E000EDF6E3F
:1047E8001850010D5D0EF324D96E010EF420DA6E17
:1047F800000EDF6E182AE6D7E70E016E010E026E74
:10480800000E046E000E036E000E066E020E056E9C
:10481800EBEC37F0659C080E0001756F0D0E766F96
:10482800000E8F6F0D0E906F8FC08DF090C08EF0C0
:1048380032CDB5F0B551D8A403D0100E5F6E12007A
:10484800000E116E010E106EB50E126E000E136E74
:10485800000E156E010E146E29EC2EF0200E5F6E00
:10486800120017C0D9FF18C0DAFFDF501B6E7F0E89
:104878001B6452D019C0D9FF1AC0DAFF990EDF6E37
:1048880020EE01F01950D9261A50DA22990EDF6E5F
:10489800120019C015F01AC016F008EC20F012002A
:1048A80019C005F01AC006F0000E076E42EC28F099
:1048B800120019C005F01AC006F0010E076E42EC8E
:1048C80028F0120019C005F01AC006F01EEC10F00E
:1048D800120019C001F01AC002F017C003F018C086
:1048E80004F003500410D8A4200E056E000E076EC5
:1048F800400E066E25EC31F0120019C0D9FF1AC01F
:10490800DAFF990EDF6E20EE01F01950D9261A5001
:10491800DA22990EDF6E12001B50000AD8B412007A
:10492800100AD8B4B6D7010AD8B4BAD7030AD8B48B
:10493800C0D7010AD8B4C6D7330AD8B4CAD7DDD786
:10494800236E6DEC35F01ED0F0EC12F04DD0CEECAD
:1049580019F04AD015EC11F047D0BBEC1BF044D04D
:1049680049EC16F041D096EC07F03ED0DCEC13F0A1
:104978003BD0C0EC17F038D086EC33F035D025ECBE
:1049880019F032D02350F00B216E226A2250000A0F
:10499800D8A42AD02150000AD8B4D6D7100AD8B43F
:1049A800D6D7300AD8B4D6D7100AD8B4D6D7700A12
:1049B800D8B4D6D7100AD8B4D6D7300AD8B4D6D7F0
:1049C800100AD8B4D6D7F00AD8B4D6D7100AD8B4B3
:1049D800D6D70AD02E0E01018C6F2E0E01018B6FD7
:1049E8002E0E01018A6F15D000016439E842070BC9
:1049F800030B216E226A2250000AD8A40AD0215043
:104A0800010AD8B4EDD7030AD8B4E7D7010AD8B455
:104A1800E1D7F2AE1200490E01018D6F12000400B9
:104A28009AEC39F07EEC32F00009D8B404D0FCECF2
:104A380039F045EC3AF007EC34F0000E5BEC34F05A
:104A480077EC1AF0040005EC17F0C3EC39F03BECF6
:104A58002BF08AEC21F000016551D8A4F3D7F6ECCD
:104A68001DF025D0000EF1EC30F043D0010EF1EC32
:104A780030F03FD0020EF1EC30F03BD0030EF1ECF9
:104A880030F037D0040EF1EC30F033D0050EF1ECF5
:104A980030F02FD000016751A4EC24F02AD051EC5B
:104AA8003AF0050AD8A425D0BCEC30F022D0000199
:104AB8006451070B5D6E5E6A5E50000AD8A419D077
:104AC8005D50000AD8B4CED7010AD8B4CFD7030AAC
:104AD800D8B4D0D7010AD8B4D1D7070AD8B4D2D716
:104AE800010AD8B4D3D7030AD8B4D4D7010AD8B4A2
:104AF800D6D7010E0001656FA5D7000E0A6E000E0D
:104B08000C6E62D00C500124066E000E0220076E57
:104B1800000E0320086E000E0420096E09500810CC
:104B280004E1900E075CD8A018D00C500124066E42
:104B3800000E0220076E000E0320086E000E0420EF
:104B4800096E09500AE1F80E065CFF0E0758010EBF
:104B58000858D8B002D0000E29D00C500124066E97
:104B6800000E0220076E000E0320086E000E0420BF
:104B7800096E095008E1F80E065CFF0E0758010E91
:104B88000858D8A015D00C500124066E000E02203B
:104B9800076E000E0320086E000E0420096E0950EF
:104BA80007E1020E085CD8B003D0010E0B6E01D0ED
:104BB8000B680B28D8A402D0FF0E12000B500A5C19
:104BC800D8A00BC00AF00C2A05500C5CD8A09AD7C4
:104BD8000A501200080E016E0001745110E1080E0F
:104BE800735DD8B00CD073C001F0AD51D8A402D019
:104BF800010E04D0AD05D8A402D0020EAD6F01504D
:104C0800735F000E745B20EE01F07551D926765162
:104C1800DA2201C0DFFF380E0101796F0D0E7A6FBD
:104C2800000172A11DD03CD06FC0F6FF70C0F7FF25
:104C3800F86A79C1D9FF7AC1DAFF0E0EF76403D09A
:104C48000800F55005D0F6CFE9FFF7CFEAFFEF509F
:104C5800DF6E00016F4B702B0101794B7A2B010637
:104C68000150D8B41200E0D76FC0F6FF70C0F7FF4C
:104C7800F86A79C1D9FF7AC1DAFF0E0EF76403D05A
:104C88000800F55005D0F6CFE9FFF7CFEAFFEF505F
:104C9800DF6E00016F4B702B0101794B7A2B0106F7
:104CA8000150D8B41200E0D726D0800E1200000EB2
:104CB8001200020E1200000E1200040E1200020E64
:104CC8001200030E1200080E1200010E1200000E50
:104CD8001200000E1200000E1200FF0E12001F0E2E
:104CE8001200000E1200000E1200550E1200AA0E3D
:104CF8001200000E120001C003F002C004F00450BC
:104D0800010AD8A4F6D70350BE0AD8B4CED7010AF0
:104D1800D8B4CDD77F0AD8B4CCD7010AD8B4CBD76A
:104D2800030AD8B4CAD7010AD8B4C9D7070AD8B46D
:104D3800C8D7010AD8B4C7D7030AD8B4C6D7010A56
:104D4800D8B4C5D70F0AD8B4C4D7010AD8B4C3D7C2
:104D5800030AD8B4C2D7010AD8B4C1D7070AD8B44D
:104D6800C0D7010AD8B4BFD7330AD8B4BED7010A0E
:104D7800D8B4BDD7BED775C0D9FF76C0DAFF000159
:104D8800000EDFBC010E026E040E7519756F7651A8
:104D9800766F080E5F18D8A40CD00D0132517F0B26
:104DA8000F01386F3851D8B402D0100E01D0040E5C
:104DB8005F6E0001AC05D8A43BD020EE02F075511F
:104DC800D9267651DA22380EDE6E0D0EDD6EEEEC47
:104DD80025F0020E0001AD19D8A40DD075C0D9FF79
:104DE80076C0DAFF040EDF6E75C0D9FF76C0DAFF31
:104DF800000EDB8E12000250D8A40DD075C0D9FF6A
:104E080076C0DAFF480EDF6E75C0D9FF76C0DAFFCC
:104E1800000EDB8E120075C0D9FF76C0DAFF080ECF
:104E2800DF6E75C0D9FF76C0DAFF000EDB8E120088
:104E3800010134BF349F000E0001AC6F1200000165
:104E4800A551D8A41200010EA56FA451D8A4120030
:104E5800010EA46F020EAC19D8A415D020EE01F0F3
:104E68007551D9267651DA22000EDF6E75C0D9FF4A
:104E780076C0DAFF480EDF6E75C0D9FF76C0DAFF5C
:104E8800000EDB8E1200AC05D8A41200000EA86F2D
:104E980020EE01F08F51D9269051DA22080EDF6EEC
:104EA80020EE02F08F51D9269051DA22300EDE6EB4
:104EB8000D0EDD6E8FC0D9FF90C0DAFF040EDF6ED5
:104EC8008FC0D9FF90C0DAFF000EDB8E010EA86FED
:104ED80020EE01F08D51D9268E51DA22080EDF6EB0
:104EE80020EE02F08D51D9268E51DA22300EDE6E78
:104EF8000D0EDD6E8DC0D9FF8EC0DAFF800EDF6E1D
:104F080012000D0130511F0BE806D8A412003451CD
:104F1800D8A412004ED032513311D8A41200365101
:104F28003711D8A41200000E0001A06F9F69000E6F
:104F38009E6F000E9D6F010E986F3DC10CF03EC133
:104F48000DF00C500D10D8B40AD03DC10EF03EC182
:104F58000FF00EC0D9FF0FC0DAFFDFBE0FD0000E72
:104F6800016E400E026E0D0E036E400E046E020EB0
:104F780089EC20F001C08BF002C08CF0800E00019B
:104F8800726F12000D0132513311D8A41200360588
:104F98003711D8A41200000E386F380E00016F6F59
:104FA8000D0E706F000E746F010E736FC10E726F6D
:104FB80012000D013151FE0AD8B4E4D7010AD8A471
:104FC8001200A9D709C001F00AC002F0A8EC37F016
:104FD80001C013F002C014F003C015F004C016F0AD
:104FE80013C0F6FF14C0F7FF15C0F8FF16501510D0
:104FF80004E1900E145CD8A01200FF0E13240B6E6F
:10500800030E14200C6E000E15200D6E000E1620D7
:105018000E6E0E5032E10B28FF0E0C58010E0D5883
:10502800D8B01200000E106E000E0F6E000E116E3A
:105038000F0E116401D01200000E126E3F0E1264A2
:1050480001D00DD0000E0F24D96E080E1020DA6E94
:10505800DF50F56E0D000F4A102A122AEFD70A000A
:10506800840EA66EB50E16EC38F0010EF626000E6C
:10507800F722000EF822112ADBD712000750D8B405
:1050880006D005C0D9FF06C0DAFF120E05D005C04C
:10509800D9FF06C0DAFF110EDF6E20EE01F00550D1
:1050A800D9260650DA224B0EDF6E20EE02F00550AC
:1050B800D9260650DA22160EDF6E030E0D6E075043
:1050C800D8B402D0020E01D0000E0F6E0FC00EF041
:1050D8001AD0000E106E130E106401D013D010C039
:1050E80001F00E5001EC38F0086E0D50010DF35030
:1050F8000524D96EF4500620DA6E08C0DFFF0D2AA9
:10510800102AE9D70E2A0F50086E096A020E0826DF
:10511800000E09220E500A6E0B6A08500A5C0B50EA
:10512800800A0C6E0950800A0C58D8B01200D1D7EA
:105138001BC011F01CC012F019C013F01AC014F0F3
:10514800000E166E0A0E156E3DEC36F0100E195C48
:10515800270E1A58D8A00AD020EE05F01B50D926E1
:105168001C50DA22200EDF6E050E1200E80E195CC4
:10517800030E1A58D8A00AD020EE04F01B50D926E6
:105188001C50DA22200EDF6E040E12001A5004E1C1
:10519800640E195CD8A00AD020EE03F01B50D92663
:1051A8001C50DA22200EDF6E030E12001A5004E1A2
:1051B8000A0E195CD8A00AD020EE02F01B50D9269E
:1051C8001C50DA22200EDF6E020E120020EE01F0D3
:1051D8001B50D9261C50DA22200EDF6E010E120059
:1051E8002D0E0001A76FB4C01EF0FD0E1E16D8A428
:1051F80044D0B4C01EF0D8901E323F0E1E161E506A
:10520800040D000EF3248F6F0D0EF420906F8FC0E5
:105218008DF090C08EF0040E8D198D6F8E518E6FAB
:105228008FC0D9FF90C0DAFFDF30E8320F0B0D0ACC
:10523800D8A420D0300E016E0D0E026E20EE02F0C2
:105248008F51D9269051DA22DECF1EF0DDCF1FF024
:105258001EC003F01FC004F003500410D8A4200E91
:10526800056E000E076E080E066E25EC31F00BEC8D
:105278002DF012004EEC32F012000001B451FD0B7B
:10528800040AD8A41200BFEC26F01200000E0D018B
:10529800386F000E396F39D00001728F0001AB05ED
:1052A800D8A43ED00D0138833BD00001728F38D08E
:1052B8000001728F0D0134BF0AD034510F0B016EFB
:1052C8000150020D390EF324D96E010E09D0345164
:1052D8000F0B016E0150020D750EF324D96E000EEE
:1052E800F420DA6EDECF02F0DDCF03F002C0D9FF82
:1052F80003C0DAFFDFAE14D002C0D9FF03C0DAFF63
:10530800DFA40ED0010E386F0BD030511F0B000AEE
:10531800D8B4C2D7010AD8B4C8D7030AD8B4C8D7F2
:10532800000172AF1200380E6F6F0D0E706F728130
:10533800020E736F120027C0D9FF28C0DAFF560E7D
:10534800DE18D8A414D020EE01F02750D926285012
:10535800DA22DA0EDE18D8A40AD020EE02F027509E
:10536800D9262850DA22220EDE18D8B402D0030E2D
:1053780012001EEC0FF02E6E2BC0D9FF2CC0DAFFE6
:10538800DF50D8B42BD02BC0D9FF2CC0DAFF3F0E8A
:10539800DF6024D02BC0D9FF2CC0DAFFDFCF2DF07F
:1053A800010EDF262D50010DF3502924D96EF4503B
:1053B8002A20DA6E560EDF6E2BC0D9FF2CC0DAFF1A
:1053C800DFCF2DF0010EDF262D50010DF3502924DB
:1053D800D96EF4502A20DA6E2EC0DFFF030E1200B9
:1053E800B60EF66E720EF76E000EF86E02EEB2F0A2
:1053F80010EE1AF00900F5CFEEFFE550E150FAE1A2
:10540800600EF66E730EF76E000EF86E01EEE9F0A0
:1054180010EE14F00900F5CFEEFFE550E150FAE187
:10542800B60EF66E740EF76E000EF86E0900F5CF24
:10543800FFF002EECCF012EE00F0EE6AE550E1501B
:10544800FCE1E250FAE108EE00F014EE00F0EE6A3A
:10545800E550E150FCE1E250FAE102EE00F0B20E54
:10546800EE6AE806FDE101EE00F0E90EEE6AE806F4
:10547800FDE100EE60F0560EEE6AE806FDE15F6AB7
:10548800000113EF25F0000E296E000E286ECC0ED9
:105498002A6E020E2B6E77EC38F0000E2F6E000E7F
:1054A8002E6E020E2F5CD8B016D0CC0E2E24D96EDC
:1054B800020E2F20DA6E2EC001F02FC002F058EC39
:1054C80026F02D6EDE502D18D8B402D0000E120032
:1054D8002E4A2F2AE6D7000E296E010E286ECC0E12
:1054E8002A6E020E2B6E77EC38F0000E2F6E000E2F
:1054F8002E6E020E2F5CD8B016D0CC0E2E24D96E8C
:10550800020E2F20DA6E2EC001F02FC002F0ADEC93
:105518000BF02D6EDE502D18D8B402D0000E1200FC
:105528002E4A2F2AE6D7010E12000AC00EF00BC031
:105538000FF00EC001F00FC002F00CC003F00DC058
:1055480004F085EC34F001C00EF002C00FF0084AF8
:10555800092A0E500F10D8A4ECD708C0D9FF09C0EB
:10556800DAFF000EDF6E0806D8A009060AC001F0AF
:105578000BC002F00CC003F00DC004F05EEC36F076
:105588000150106E0AC001F00BC002F00CC003F00D
:105598000DC004F085EC34F001C00AF002C00BF035
:1055A800090E106402D0070E1026300E102608C00F
:1055B800D9FF09C0DAFF10C0DFFF0806D8A0090626
:1055C8000A500B10D8A4D2D7084A092A12008E0E06
:1055D8002C6E8F0E2D6EC70E2E6E8F0E2F6E55EC05
:1055E80023F00001FF6FFF29D8B434D0FF514FECEE
:1055F80030F036C07BF037C07CF038C07DF039C061
:105608007EF0000E01016A6F000E696F000E000146
:105618007F6F000E806F000E816F000E826F010198
:105628004769486949694A69000E436F000E446F2B
:10563800000E456F000E466F000E3F6F000E406F64
:10564800000E416F000E426F200E0001666F200EA3
:10565800676F1200000E7B6F000E7C6F000E7D6F6F
:10566800000E7E6F100E666F100E676F1200200E10
:105678005F6001D0120065B2120001017151721110
:10568800D8B406D071C1D9FF72C1DAFFDFBE1200EB
:105698006F517011D8B406D06FC1D9FF70C1DAFF4D
:1056A800DFBE19D0400E176E020E186E000E196E6E
:1056B800020E1A6E35EC24F0010E016E000E026E19
:1056C800020E036E400E046E010E89EC20F001C03C
:1056D8006FF102C070F1400E366E020E376E400E4A
:1056E800386E000E396E020E3A6E4FEC1CF0000E4A
:1056F800016E400E026E020E036E400E046E010E25
:1057080089EC20F001C071F102C072F11200000EA4
:105718003F6E000E3E6E3A043B10D8A43ED038C00F
:1057280030F039C031F030EC33F030C038F031C0EF
:1057380039F0120038C001F039C002F082EC39F0BB
:1057480001C040F002C041F038C001F039C002F099
:105758008EEC39F001C03CF002C03DF03E504018DC
:1057680004E13F504118D8B40AD040C028F041C0E5
:1057780029F0CC0E2A6E020E2B6E77EC38F03CC066
:1057880001F03DC002F0CC0E036E020E046EB5ECC3
:1057980035F001C038F002C039F03A503B10D8A4B7
:1057A800C9D738C038F039C039F01200000E0001EE
:1057B800A36F000EA26F020EAC19D8A41FD020EE62
:1057C80001F08D51D9268E51DA22080EDF6E20EEB7
:1057D80002F08D51D9268E51DA22380EDE6E0D0E6A
:1057E800DD6E8DC0D9FF8EC0DAFF480EDF6E8DC02A
:1057F800D9FF8EC0DAFF000EDB8E120073510D0147
:10580800365D000174510D013759D8B004D036CD3A
:1058180073F037CD74F0EEEC25F0000120EE02F0C5
:105828007551D9267651DA22380EDE6E0D0EDD6EF0
:1058380075C0D9FF76C0DAFF480EDF6E75C0D9FF94
:1058480076C0DAFF000EDB8E12000150036E0250A4
:10585800046E056A066A03500101085D045009597F
:1058680005500A5906500B59D8B00ED0000E0D013C
:10587800886F000E896F000E8A6F000E8B6F08C14B
:1058880087F009C188F0120000018751015C885136
:105898000258D8B004D001C087F002C088F0875100
:1058A800036E8851046E056A066A031E041E051EEF
:1058B800061E032A000E04220522062201010851B1
:1058C80003240D01886F0101095104200D01896F1E
:1058D80001010A5105200D018A6F01010B510620B3
:1058E8000D018B6F1200066E000E076E0D0E086E0E
:1058F8000150026E036AD890023603360650046ED1
:10590800056AD89004360536D89004360536025014
:10591800042603500522D89004360536D89004365C
:105928000536045007260550082207C0D9FF08C0CD
:10593800DAFFDF9E0150D8A407D00650020D390EB9
:10594800F324D96E010E06D00650020D750EF3240D
:10595800D96E000EF420DA6E07C0DEFF08C0DDFF46
:1059680007C0D9FF08C0DAFFDF9C20EE04F007501B
:10597800D9260850DA22DF8C1200889E889C888AF3
:1059880088988896888488928698869A869C869E27
:10599800869086928694869602506A6E01C06BFF46
:1059A800FF0E096EFF0E0A6E03C00BF004C00CF068
:1059B80009500B260A500C220CC00BF00C6A0B5035
:1059C800666E0304676E8C9E888088B0FED7889ABE
:1059D8008888889688940650686E05C069FFFF0E0F
:1059E800096EFF0E0A6E07C00BF008C00CF00950D4
:1059F8000B260A500C220CC00BF00C6A0B50666E7A
:105A08000704676E888088B0FED78C8E1200000E5F
:105A18000001AD6F000EA66F000EA36F000EA26FFF
:105A2800000EA86F000EAC6F75C0D9FF76C0DAFF04
:105A38007F0EDF16040E7519756F7651766F75C077
:105A4800D9FF76C0DAFF7F0EDF16040E7519756F61
:105A58007651766F8DC0D9FF8EC0DAFF7F0EDF16C4
:105A6800000E726F000E746F000E736F000E01014E
:105A7800346F000E366F000E356F02EC22F0000E08
:105A8800116E030E106E000E126E000E136E000ED5
:105A9800156E000E146E29EC2EF00AEC21F012009F
:105AA800246E33D0010E0C6E000E0B6E000E0D6EC0
:105AB800FAEC35F00A0EB0EC38F075EC39F012005B
:105AC800010E0C6E000E0B6E940E0D6EFAEC35F096
:105AD8000A0EB0EC38F075EC39F01200010E0C6EBD
