:020000040000FA
:040000000EEF00F00F
:0400080004EF48F0C9
:100018000CEF48F0D6EF29F00E500C24D96E0F5093
:100028000D20DA6E3A0EDE18D8B405D00C680D68CB
:100038000E680F681200020E0E24146E000E0F20B8
:10004800156E14500C24D96E15500D20DA6EDF5041
:10005800036E010E0E24166E000E0F20176E16503A
:100068000C24D96E17500D20DA6EDF5013EC39F0DE
:10007800186E196A12C0D9FF13C0DAFF18C0DEFF64
:1000880019C0DDFF12C0D9FF13C0DAFF010EDB5023
:1000980004E1110EDE5CD8A009D0FC0E0C6EFF0E38
:1000A8000D6EFF0E0E6EFF0E0F6E1200040E0E2464
:1000B800146E000E0F20156E14500C24D96E1550B6
:1000C8000D20DA6EDF50036E050E0E24166E000E3C
:1000D8000F20176E16500C24D96E17500D20DA6EAB
:1000E800DF50046E060E0E24186E000E0F20196ED7
:1000F80018500C24D96E19500D20DA6EDF50056E99
:10010800030E0E241A6E000E0F201B6E1A500C24BC
:10011800D96E1B500D20DA6EDF50F9EC2FF020EE6F
:1001280002F01250D9261350DA2203C0DEFF04C0B1
:10013800DDFF20EE04F01250D9261350DA22080E03
:100148000E24146E000E0F20156E14500C24E16E50
:1001580015500D20E26EE750036E070E0E24166E42
:10016800000E0F20176E16500C24E16E17500D204C
:10017800E26EE75013EC39F0DF6E000E1C6E3DD0D6
:100188001C50010D050EF326000EF422F350122424
:10019800D96EF4501320DA6E1C501CC014F0156A86
:1001A8001426000E15220E5014260F5015220A0E82
:1001B8001426000E152214500C24E16E15500D2043
:1001C800E26EE750036E1C501CC016F0176A162624
:1001D800000E17220E5016260F501722090E16264B
:1001E800000E172216500C24E16E17500D20E26EF7
:1001F800E75013EC39F0DF6E1C2A12C0D9FF13C088
:10020800DAFF1C50166E176ADE50165CDE5017585F
:10021800D8A0B6D720EE15F01250D9261350DA22FE
:100228001C501CC014F0156A1426000E15220E501E
:1002380014260F5015220A0E1426000E15221450EB
:100248000C24E16E15500D20E26EE750036E1C5031
:100258001CC016F0176A1626000E17220E50162616
:100268000F501722090E1626000E172216500C24BE
:10027800E16E17500D20E26EE75013EC39F0DF6E97
:1002880012C0D9FF13C0DAFF10EE16F01250E126A3
:100298001350E222DFCFE7FF20EE02F01250D926FA
:1002A8001350DA22DECF14F0DDCF15F015C014F0AC
:1002B800156A20EE16F01250D9261350DA2214507F
:1002C800DF2620EE02F01250D9261350DA22DF5032
:1002D800146E20EE16F01250D9261350DA2214505C
:1002E800DF2620EE04F01250D9261350DA22DF5010
:1002F800146E20EE16F01250D9261350DA2214503C
:10030800DF26000E1C6E17D01C50010D050EF326BB
:10031800000EF422F3501224D96EF4501320DA6E32
:10032800DF50146E20EE16F01250D9261350DA2240
:100338001450DF261C2A12C0D9FF13C0DAFF1C5044
:10034800166E176ADE50165CDE501758D8A0DCD738
:1003580020EE15F01250D9261350DA22DF50146E11
:1003680020EE16F01250D9261350DA221450DF2648
:1003780020EE16F01250D9261350DA22DF50D8B4E6
:1003880009D0FE0E0C6EFF0E0D6EFF0E0E6EFF0EE8
:100398000F6E120020EE04F01250D9261350DA2204
:1003A800DE04D8A409D0000E0C6E000E0D6E000EEF
:1003B8000E6E000E0F6E12001C501CC014F0156A51
:1003C8001426000E15220B0E1424166E000E15208E
:1003D800176E186A17BE18061850196E16500E2692
:1003E80017500F221850102219501122010E0E26F4
:1003F800000E0F22102211220E500C24D96E0F501D
:100408000D20DA6E3A0EDE18D8A409D00EC00CF012
:100418000FC00DF010C00EF011C00FF01200010E49
:100428000E26000E0F22102211220E500C24D96E17
:100438000F500D20DA6E3A0EDE18D8A409D00EC07F
:100448000CF00FC00DF010C00EF011C00FF012002C
:10045800010E0E26000E0F22102211220E500C241F
:10046800D96E0F500D20DA6E3A0EDE18D8A409D0D6
:100478000EC00CF00FC00DF010C00EF011C00FF040
:100488001200FD0E0C6EFF0E0D6EFF0E0E6EFF0EAF
:100498000F6E1200B9D109EC12F00009D8A41200AD
:1004A80000019E6912000FEC09F00009D8A412009F
:1004B80000019E6912009805D8A402D09E69120016
:1004C80012C187F013C186F086C00BF087C00CF00C
:1004D8000D6A0E6A72EC22F00009D8A41200000E10
:1004E800026E240E016E0BEC2CF0000E016E060E4F
:1004F800026E220E036E8F0E046E03500410D8A4F1
:10050800000E056E000E076E240E066E07EC31F025
:10051800FD0E00019E6F1200F7C101F0F8C102F054
:1005280001D80AD00500FA6E0101EB51FD6EEC51BD
:10053800FE6EFF6AFA50120001C043F002C044F098
:1005480003C045F004C046F0F7C101F0F8C102F05D
:1005580001D80AD00500FA6E0101ED51FD6EEE5189
:10056800FE6EFF6AFA50120001C03FF002C040F070
:10057800416A426A26EE00F046C0DFFF26EE01F02F
:1005880045C0DFFF26EE02F044C0DFFF26EE03F091
:1005980043C0DFFF26EE04F042C0DFFF26EE05F081
:1005A80041C0DFFF26EE06F040C0DFFF26EE07F071
:1005B8003FC0DFFF000E0001876F080E866F000E38
:1005C800026E080E016E0BEC2CF0FD0E00019E6F02
:1005D80012009805D8A402D09E691200000E876FF9
:1005E800120E866F000E026E120E016E0BEC2CF0CE
:1005F800000E476E110E476401D014D04750010D0C
:100608001F0EF324D96E010EF420DA6E4750010D47
:10061800000EF324E16E060EF420E26EDFCFE7FF52
:10062800472AE8D7FD0E00019E6F1200030EE8CF9F
:1006380000F6000EE8CF01F6F7C101F0F8C102F0AC
:1006480001D80AD00500FA6E0101F351FD6EF4518C
:10065800FE6EFF6AFA5012000009D8A404D0000EFA
:100668003D6E000E03D0000E3D6E800E3C6E26EEF1
:1006780002F03CC0DFFF000EE8CF03F6000E0001D9
:10068800876F040E866F000E026E040E016E0BEC6F
:100698002CF0FD0E00019E6F120001012151F00B9C
:1006A8000509216F200E2B6F000E2C6F010E0D0116
:1006B8008C6F000E886F000E896F000E8A6F000E17
:1006C8008B6F00019E691200000E0B6E000E0C6EFF
:1006D800000E0D6E000E0E6E72EC22F00009D8A40A
:1006E8001200010121510F0B060AD8A407D00D01F1
:1006F8008C05D8A403D000019E691200CFEC31F01C
:10070800000E0D01886F000E896F000E8A6F000EB3
:100718008B6F00019E691200000E0D01886F000E9C
:10072800896F000E8A6F000E8B6F00019E691200A0
:1007380088518911D8B406D088C0D9FF89C0DAFF9A
:10074800DFBE120001010B510A11091104E1400E2C
:10075800085DD8A009D0400E3E6E400E085F000E1E
:10076800095B0A5B0B5B0AD008C13EF0000E086FFC
:10077800000E096F000E0A6F000E0B6F3E503A6EA6
:100788003B6A3A500001865D3B508759D8A005D096
:100798003E50865F000E875B1AD0000E476E13D05E
:1007A80086518711D8B404D08607D8A087070AD005
:1007B8004750010D000EF324D96E060EF420DA6EB0
:1007C800000EDF6E472A3E50475CD8A0E9D7010EDD
:1007D800016E000E026E060E036E3EC004F0020E9D
:1007E8008FEC20F001C088F002C089F001010851A7
:1007F80009110A110B11D8A4120000019E691200F8
:100808007F0E8BEC1FF0120000019E51000AD8B435
:100818005BD7030AD8B4DDD6110AD8B44CD6080A77
:10082800D8B404D7010AD8B477D7050AD8B435D7CD
:100838003B0AD8B471D60D0AD8B42DD6020AD8B45A
:1008480032D6050AD8B468D7D20AD8B471D7030A01
:10085800D7D7000E0001FD6F000EFC6F000EF16F80
:10086800000EF26F000EF36F000EF46F7E517F11D1
:1008780080118111D8A410D0D10E306E000E316EC7
:10088800FE51C0EC2FF0EBC0AFF0ECC0B0F0000EA2
:100898000001AE6F000EAD6F7EC0C3F07FC0C4F024
:1008A80080C0C5F081C0C6F00001C31FC41FC51FAA
:1008B800C61FC32B000EC423C523C6237A51C325E4
:1008C800C76F7B51C421C86F7C51C521C96F7D5149
:1008D800C621CA6FCA51C911C81104E1320EC75DD9
:1008E800D8A01FD07EC042F07FC043F080C044F043
:1008F80081C045F0320E466E000E476E000E486EFF
:10090800000E496E800E4A6E020E4B6EAF0E4C6E94
:10091800000E4D6EAD0E4E6E000E4F6E0BEC0EF0CF
:1009280034D07EC042F07FC043F080C044F081C024
:1009380045F07EC0C3F07FC0C4F080C0C5F081C060
:10094800C6F00001C31FC41FC51FC61FC32B000E5E
:10095800C423C523C6237A51C325466E7B51C421BF
:10096800476E7C51C521486E7D51C621496E800E67
:100978004A6E020E4B6EAF0E4C6E000E4D6EAD0EF3
:100988004E6E000E4F6E0BEC0EF0800E0C6E020ECB
:100998000D6E000E0E6E000E0F6E000E106E000E25
:1009A800116ECB0E126E010E136E10EC00F00CC01F
:1009B800F1F00DC0F2F00EC0F3F00FC0F4F0010139
:1009C800694B6A2BF10E0001F15DFF0EF259FF0E23
:1009D800F359FF0EF459D8A005D0500E666F500E8B
:1009E800676F1200F1517E27F2517F23F351802364
:1009F800F4518123FCD00101D0513F6F406B416B12
:100A0800426B41C142F140C141F13FC140F13F6BEE
:100A1800D1513F1341C142F140C141F13FC140F1C1
:100A28003F6B41C142F140C141F13FC140F13F6BD1
:100A380033D791C0F9F0000E0001916F0101CD513B
:100A48003F250001F56F0101CE5140210001F66FED
:100A5800000E010141210001F76F000E0101422142
:100A68000001F86FF951F525016E000EF621026EAE
:100A7800000EF721036E000EF821046E21EC39F008
:100A880001C0CDF002C0CEF00001F951F525016E8C
:100A9800000EF621026E000EF721036E000EF821FB
:100AA800046EF95100080101CB25056E0FEC25F005
:100AB8000009D8A4F1D60001FC51FD11D8A410D02A
:100AC800CDC0FCF0CEC0FDF0FCC016F0FDC017F0A4
:100AD800FEEC35F0E2EC39F001C0CBF002C0CCF00E
:100AE800F9C0FAF00001FB6B5DD0FA51F525016EF3
:100AF800FB51F621026E000EF721036E000EF8215D
:100B0800046E21EC39F00001FC5101182AE1FD5175
:100B18000218D8A426D0FA51F525096EFB51F62102
:100B28000A6E000EF7210B6E000EF8210C6EFCC049
:100B38000DF0FDC00EF000EC32F009C0CFF00AC095
:100B4800D0F0D00E0001FA25D96E010EFB21DA6E25
:100B5800CF51CB25E16ED051CC21E26EDFCFE7FF3C
:100B68001ED0F1517E5FF2517F5BF351805BF451EF
:100B7800815B01016907D8A06A07FAC091F0FCC03F
:100B880009F0FDC00AF068EC30F0FCC009F0FDC0C7
:100B98000AF074EC27F00101654B662B1200000186
:100BA800FA4BFB2B0101CB510001FA5D0101CC513D
:100BB8000001FB59D8B070D698D70001FC51FD113F
:100BC800D8B41200FCC009F0FDC00AF068EC30F09F
:100BD800FCC009F0FDC00AF074EC27F00101654B78
:100BE800662B700E0001666F700E676F12000101B0
:100BF800CF51000AD8B41DD7010AD8B4DED7050AE8
:100C0800D8B4F9D649D6000E0001EC6F000EED6F8E
:100C1800000EEE6F000EEF6F7E517F118011811173
:100C2800D8A410D0CB0E306E000E316EFE51C0EC41
:100C38002FF0E5C0AFF0E6C0B0F0000E0001AE6FD7
:100C4800000EAD6FFE5131EC30F036C07AF037C08F
:100C58007BF038C07CF039C07DF0000E0001EB6FEE
:100C68000F0EEB6501D012007EC0C3F07FC0C4F048
:100C780080C0C5F081C0C6F0C31FC41FC51FC61FF2
:100C8800C32B000EC423C523C6237A51C325C76FBF
:100C98007B51C421C86F7C51C521C96F7D51C621C4
:100CA800CA6FCA51C911C81104E1320EC75DD8A074
:100CB8001FD07EC042F07FC043F080C044F081C0A6
:100CC80045F0320E466E000E476E000E486E000E5E
:100CD800496E800E4A6E020E4B6EAF0E4C6E000EC1
:100CE8004D6EAD0E4E6E000E4F6E0BEC0EF034D006
:100CF8007EC042F07FC043F080C044F081C045F020
:100D08007EC0C3F07FC0C4F080C0C5F081C0C6F00B
:100D18000001C31FC41FC51FC61FC32B000EC42359
:100D2800C523C6237A51C325466E7B51C421476E1D
:100D38007C51C521486E7D51C621496E800E4A6E90
:100D4800020E4B6EAF0E4C6E000E4D6EAD0E4E6E1B
:100D5800000E4F6E0BEC0EF0800E0C6E020E0D6E38
:100D6800000E0E6E000E0F6E000E106E000E116E4D
:100D7800CB0E126E010E136E10EC00F00CC0ECF0EE
:100D88000DC0EDF00EC0EEF00FC0EFF00101694BA1
:100D98006A2B040ECF19D8A41CD0D0513F6F406BDA
:100DA800416B426B41C142F140C141F13FC140F149
:100DB8003F6BD1513F1341C142F140C141F13FC1A5
:100DC80040F13F6B41C142F140C141F13FC140F1A7
:100DD8003F6BCF51D8A45DD0CD513F250001F06FB6
:100DE8000101CE5140210001F16F000E01014121A6
:100DF8000001F26F000E010142210001F36F0101B1
:100E080047510001F05D010148510001F15901010C
:100E180049510001F25901014A510001F359D8B072
:100E280008D0F0C047F1F1C048F1F2C049F1F3C071
:100E38004AF1F0510101435D0001F15101014459AA
:100E48000001F251010145590001F35101014659D0
:100E5800D8B008D0F0C043F1F1C044F1F2C045F178
:100E6800F3C046F1F0C001F0F1C002F0F2C003F0A7
:100E7800F3C004F0CBC105F00FEC25F0FF0AD8A4AD
:100E880008D00B0E0001926F500E666F500E676F00
:100E980012000001EC51ED11EE11EF11D8A427D08A
:100EA80069C167F16AC168F1000E01016A6F000E3D
:100EB800696F000E00017E6F000E7F6F000E806F5D
:100EC800000E816F000E01013F6F000E406F000E93
:100ED800416F000E426F000E666F000E656F000EC8
:100EE8000001916F400E666F400E676F1200F10EA1
:100EF800EC5DFF0EED59FF0EEE59FF0EEF59D8A02D
:100F080007D0EC510F0B926F500E666F500EEDD755
:100F1800EC517E27ED517F23EE518023EF51812341
:100F2800EB2B9ED6000E1D6E17D01D50010D300EF6
:100F3800F324F66E8D0EF420F76EF86A000EF82290
:100F48001D50010D7B0EF324D96E010EF420DA6ECC
:100F58000800F5CFDFFF1D2A1D50010D300EF324C8
:100F6800F66E8D0EF420F76EF86A000EF82208006F
:100F7800F5500009D8A4D9D7000E1D6E17D01D5002
:100F8800010DA70EF324F66E8D0EF420F76EF86AA5
:100F9800000EF8221D50010D8F0EF324D96E010E9C
:100FA800F420DA6E0800F5CFDFFF1D2A1D50010D71
:100FB800A70EF324F66E8D0EF420F76EF86A000E75
:100FC800F8220800F5500009D8A4D9D7000E1D6EE4
:100FD800D6D01D50010D640EF324F66E8C0EF4204D
:100FE800F76EF86A000EF8221D50010DA30EF324C7
:100FF800D96E010EF420DA6E0800F5CFDFFF1D2A46
:101008001D50010D640EF324F66E8C0EF420F76E5D
:10101800F86A000EF8220800F5500009D8B4C0D0CC
:10102800D8D71D50010D1F0EF324F66E8D0EF42037
:10103800F76EF86A000EF8221D50010DA30EF32476
:10104800D96E010EF420DA6E0800F5CFDFFF1D2AF5
:101058001D50010D1F0EF324F66E8D0EF420F76E51
:10106800F86A000EF8220800F5500009D8B498D0A4
:10107800D8D71D50010D4F0EF324F66E8C0EF420B8
:10108800F76EF86A000EF8221D50010DA30EF32426
:10109800D96E010EF420DA6E0800F5CFDFFF1D2AA5
:1010A8001D50010D4F0EF324F66E8C0EF420F76ED2
:1010B800F86A000EF8220800F5500009D8B470D07C
:1010C800D8D71D50010DC70EF324F66E8D0EF420EF
:1010D800F76EF86A000EF8221D50010DA30EF324D6
:1010E800D96E010EF420DA6E0800F5CFDFFF1D2A55
:1010F8001D50010DC70EF324F66E8D0EF420F76E09
:10110800F86A000EF8220800F5500009D8B448D053
:10111800D8D71D50010DA30EF324F66E8C0EF420C3
:10112800F76EF86A000EF8221D50010DA30EF32485
:10113800D96E010EF420DA6E0800F5CFDFFF1D2A04
:101148001D50010DA30EF324F66E8C0EF420F76EDD
:10115800F86A000EF8220800F5500009D8A4D9D77B
:1011680005EC3AF001C00EF002C00FF0106A116AE7
:10117800C50E126E010E136E7FEC18F011D034EC10
:101188003AF00B0AD8B4DCD7070AD8B4B1D7010AA9
:10119800D8B486D7030AD8B45BD7010AD8B430D7F5
:1011A800000E1D6E17D01D50010D3A0EF324F66E79
:1011B8008E0EF420F76EF86A000EF8221D50010D0D
:1011C800B70EF324D96E010EF420DA6E0800F5CFBD
:1011D800DFFF1D2A1D50010D3A0EF324F66E8E0E08
:1011E800F420F76EF86A000EF8220800F55000099E
:1011F800D8A4D9D70AEC3AF001C019F002C01AF005
:101208001D50010DB70EF3241B6E010EF4201C6E49
:101218002AEC28F0120046D111C185F012C184F0E1
:1012280013C183F014C182F016C187F017C186F08C
:101238008651306E8751316E326A336A090ED89002
:101248003036313632363336E82EF9D730C00BF027
:1012580031C00CF032C00DF033C00EF072EC22F049
:101268000009D8A431D1F7C101F0F8C102F001D8C2
:101278000AD00500FA6E0101F351FD6EF451FE6EBD
:10128800FF6AFA5012000009D8B416D0010E0D01F9
:101298008C6F01012151F00B0709216F270E2B6F6D
:1012A800000E2C6F000E016E020E84EC1EF0000E74
:1012B80000019C6F9C511200010E00019F6F865126
:1012C8008711D8A402D0000E56D0030E9C6F000ED2
:1012D8000101776F060E786F000E0D01886F020E00
:1012E800896F000E8A6F000E8B6F0D01885189116E
:1012F8008A118B11D8B41ED000018A518B11D8B431
:1013080006D08AC0D9FF8BC0DAFFDFBEDDD0000E61
:10131800016E77C102F078C103F0400E046E020E30
:101328008FEC20F001C08AF002C08BF0040E00019F
:101338009C6F23D0F7C101F0F8C102F001D80AD0A0
:101348000500FA6E0101F351FD6EF451FE6EFF6A5D
:10135800FA5012000009D8B40CD0010E0D018C6FA0
:1013680001012151F00B0209216F270E2B6F000E8E
:101378002C6F020E95D09C6FA7D08A518B11D8B4D0
:1013880006D08AC0D9FF8BC0DAFFDFBE9DD020EE21
:1013980001F08A51D9268B51DA22DF50306E30C0E5
:1013A80031F0326A336A346A31500101085F3250D1
:1013B800095B33500A5B34500B5B000120EE01F0EF
:1013C8008A51D9268B51DA22DF50306E30C031F085
:1013D800326A336A346A31500D01885F3250895B52
:1013E80033508A5B34508B5B400E01017727000E27
:1013F8007823030E55D00D018C51D8A43CD0F7C1E9
:1014080025F0F8C126F082C027F083C028F084C0F8
:1014180029F085C02AF0000E2B6E060E2C6E0001F6
:101428008251831184118511D8A402D0010E01D0F4
:10143800000E2D6E01D80AD00500FA6E0101F55193
:10144800FD6EF651FE6EFF6AFA501200E806D8B437
:1014580012D0640E00019B6102D09B2B35D0010E87
:101468000D018C6F01012151F00B0309216F000E52
:101478002B6F000E2C6F010E00018227000E8323B4
:10148800842385238607D8A08707010E74D7020E08
:101498000D018C6F000E016E020E84EC1EF0000E22
:1014A800000169D700019C51000AD8B4B5D6010AD9
:1014B800D8B405D7030AD8B49ED7010AD8B415D72B
:1014C800070AD8B45AD7E3D700019C5112000D017E
:1014D8003205D8A411D030511F0B0009D8A40CD064
:1014E8000001718F030E0D013119D8A402D0010E2D
:1014F80001D0000E0001AA6F0D013251D8A41200CC
:1015080030511F0B020AD8A4120034510F0B0009E6
:10151800D8B4120034510F0B186E030E1860120065
:10152800200E5F18D8A412000001718F0D0134BF7E
:1015380019D034510F0B186E1850020D390EF324C0
:10154800D96E010EF420DA6EDECF1CF0DDCF1DF06F
:1015580034510F0B186E1850010D5D0EF324D96E1F
:10156800010E18D034510F0B186E1850020D740E5E
:10157800F324D96E000EF420DA6EDECF1CF0DDCF36
:101588001DF034510F0B186E1850010D600EF32426
:10159800D96E010EF420DA6EDF501B6E1BB006D038
:1015A800FB0E1C141C6EFF0E1D1404D0040E1C1020
:1015B8001C6E1D501D6E34BF0AD034510F0B186EAF
:1015C8001850020D390EF324D96E010E09D034518A
:1015D8000F0B186E1850020D740EF324D96E000EFE
:1015E800F420DA6E1CC0DEFF1DC0DDFF030E3119CA
:1015F800D8A42DD01CC0D9FF1DC0DAFFDFAE1AD089
:1016080034BF0AD034510F0B186E1850010D5D0EFF
:10161800F324D96E010E0AD00D0134510F0B186E48
:101628001850010D600EF324D96E010EF420DA6E05
:101638000101DF821CC0D9FF1DC0DAFF000EDB8468
:101648001CC0D9FF1DC0DAFF000EDB8E1200040E8D
:101658001C181C6E1D501D6E1CC0D9FF1DC0DAFF62
:10166800DFAE1BD01CC0D9FF1DC0DAFF7F0EDF160E
:101678001CC0D9FF1DC0DAFF000EDB8C000E116EF6
:10168800050E106E1CC012F01DC013F0000E156E72
:10169800020E146E0BEC2EF006D01CC0D9FF1DC034
:1016A800DAFF000EDB8C040E1C181C6E1D501D6E1C
:1016B8001BB206D01CC0D9FF1DC0DAFFDFAE30D088
:1016C8000D0134BF0AD034510F0B186E1850010D9C
:1016D8005D0EF324D96E010E0AD00D0134510F0BA3
:1016E800186E1850010D600EF324D96E010EF42007
:1016F800DA6E0101DF921CC0D9FF1DC0DAFF3B0E74
:10170800DF16000E116E050E106E1CC012F01DC003
:1017180013F0000E156E020E146E0BEC2EF006D0B0
:101728001CC0D9FF1DC0DAFF3B0EDF160D01345176
:101738000F0B186E1850010D260EF324196E0F0E9C
:10174800F4201A6E19C0D9FF1AC0DAFFFE0EDF1690
:10175800120091D0EB0E12003C0E1200900E1200F7
:10176800F20EF66E8F0EF76E000EF86E0800F5504A
:101778001200F30EF66E8F0EF76EF86A0800F55039
:101788001200F40EF66E8F0EF76EF86A0800F55028
:101798001200F50EF66E8F0EF76EF86A0800F55017
:1017A8001200F60EF66E8F0EF76EF86A0800F55006
:1017B8001200F70EF66E8F0EF76EF86A0800F550F5
:1017C8001200F80EF66E8F0EF76EF86A0800F550E4
:1017D8001200F90EF66E8F0EF76EF86A0800F550D3
:1017E8001200000E1200020E1200010E1200010E6D
:1017F8001200000E1200010E1200400E1200000E20
:101808001200FF0E12001F0E1200F80E1200200E1A
:101818001200000E12003F0E1200000E1200100EF1
:101828001200000E1200000E1200000E1200000E30
:101838001200000E1200010E1200000E1200220EFD
:101848001200000E1200000E1200460E1200410E89
:101858001200540E1200310E1200360E1200200E25
:101868001200200E1200200E1200550E1200AA0EB1
:101878001200000E120001C003F002C004F0045070
:10188800000AD8B404D0010AD8B48DD0F2D70350D6
:10189800000AD8B45FD7010AD8B45ED7030AD8B40F
:1018A8005DD7010AD8B45CD7070AD8B462D7010A51
:1018B800D8B467D7030AD8B46CD7010AD8B471D79B
:1018C8000F0AD8B476D7010AD8B47BD7030AD8B49C
:1018D80080D7010AD8B485D7070AD8B484D7010AB3
:1018E800D8B483D7030AD8B482D7010AD8B481D729
:1018F8001F0AD8B480D7010AD8B47FD7030AD8B44E
:101908007ED7010AD8B47DD7070AD8B47CD7010A94
:10191800D8B47BD7030AD8B47AD7010AD8B479D710
:101928000F0AD8B478D7010AD8B477D7030AD8B43D
:1019380076D7010AD8B475D7070AD8B474D7010A7C
:10194800D8B473D7030AD8B472D7010AD8B471D7F8
:10195800370AD8B470D7010AD8B46FD7050AD8B4F3
:101968006ED7010AD8B46DD7030AD8B46CD7010A68
:10197800D8B469D7190AD8B468D7010AD8B467D7D0
:101988000F0AD8B466D7010AD8B465D7030AD8B401
:1019980064D7010AD8B463D7070AD8B462D7010A52
:1019A800D8B461D766D70350FE0AD8B45ED7010A07
:1019B800D8B45DD75ED7200E5F18D8A4120018D10E
:1019C80000018A518B11D8B406D08AC0D9FF8BC0C8
:1019D800DAFFDFBE1200000E526E1E0E526401D0F6
:1019E80014D05250010D400EF324D96E0D0EF42080
:1019F800DA6E5250010D000EF324E16E010EF42050
:101A0800E26EDFCFE7FF522AE8D7000120EE01F0AF
:101A18008A51D9268B51DA221F0EDE18D8A472D02B
:101A2800550E010100196EE1530E01196BE1420ECA
:101A3800021968E1430E0319D8A464D0010E00010D
:101A4800976F01010D51D8A452D0110E0E614FD0DD
:101A58000E51D8B44CD00CC14DF03F0E4D16D8A441
:101A680046D0550E0D01806F530E816F420E826F66
:101A7800530E836F04C184FD05C185FD06C186FD33
:101A880007C187FD000E886F000E896F000E8A6FF0
:101A9800000E8B6F000E8C6F00019E69000E9D6F0B
:101AA800000E9C6F000E9B6F030E01010F19D8B436
:101AB80008D02191219321952197000E2B6F000EBC
:101AC8002C6F0CAF02D0010E01D0020E00019F6FE7
:101AD8000101085109110A110B11D8B402D0000EE6
:101AE80001D0010E0001986F0FC19EF01200010E87
:101AF800016E020E84EC1EF0000E016E020E84ECE4
:101B08001EF01200010E016E020E84EC1EF0000E93
:101B1800016E020E84EC1EF0000E0001976F120099
:101B280073EC1DF0FF0AD8A41200030E00019F6F8A
:101B3800120073EC1DF0FF0AD8A412000D018C519D
:101B4800D8A408D0885189118A118B11D8B402D031
:101B5800020E8C6F030E00019F6F120078C04EF0CA
:101B680079C04FF04E504F10D8B40AD078C050F01A
:101B780079C051F050C0D9FF51C0DAFFDFBE120062
:101B8800010E016E800E026E0D0E036E0D0E046EB8
:101B9800020E8FEC20F001C088F002C089F000012D
:101BA8008A518B11D8B406D08AC0D9FF8BC0DAFF0E
:101BB800DFBE0FD0000E016E400E026E0D0E036EDA
:101BC800400E046E020E8FEC20F001C08AF002C0B5
:101BD8008BF0000E00019F6F1200000E9F6F020E27
:101BE8000D018C6F000E016E020E84EC1EF01200C7
:101BF80000019F51000AD8B4E3D6010AD8B490D79F
:101C0800030AD8B496D7010AD8B4A8D7E6D742C0F1
:101C180050F043C051F044C052F045C053F00A0E92
:101C280005D0D8905332523251325032E82EF9D77B
:101C380050C0BBF051C0BCF04EC0D9FF4FC0DAFF56
:101C4800DE500001BB5DDE50BC59D8B002D0FF0E9B
:101C580012004CC0D9FF4DC0DAFFDECF38F0DDCF1F
:101C680039F04EC0D9FF4FC0DAFFDECF50F0DDCFDC
:101C780051F0501E511E504A512ABB5150243A6E01
:101C8800BC5151203B6E6DEC2BF04CC0D9FF4DC0C0
:101C9800DAFF38C0DEFF39C0DDFF4EC0D9FF4FC0C4
:101CA800DAFFBBC0DEFFBCC0DDFF4CC0D9FF4DC0B2
:101CB800DAFFDECFB7F0DDCFB8F0BBC050F0BCC064
:101CC80051F0090ED89050365136E82EFBD750C047
:101CD800BFF051C0C0F00001C16BC26BBFC050F073
:101CE800C0C051F0501E511E504A512A4250502433
:101CF800B96F43505120BA6F000EBF6F000EC06F0E
:101D0800000EC16F000EC26F89D0020EBA19B91148
:101D1800D8A40FD0B7C030F0B8C031F012EC33F00F
:101D280030C0B7F031C0B8F0000E0001BA6F000E35
:101D3800B96FB7C001F0B8C002F0D5EC39F001C0F6
:101D4800B5F002C0B6F0B9C050F0BAC051F0501E9C
:101D5800511E504A512A000E50240001BD6F020E38
:101D68005120BE6FBD51506EBE51516E526A536ABA
:101D7800BFC054F0C0C055F0C1C056F0C2C057F043
:101D8800541E551E561E571E542A000E5522562202
:101D9800572246505424586E47505520596E485083
:101DA80056205A6E495057205B6E5050585C51501F
:101DB800595852505A5853505B58D8B00ED0BFC0DB
:101DC80050F0C0C051F0501E511E504A512A465082
:101DD8005024BD6F47505120BE6FB5C028F0B6C023
:101DE80029F0B9C02AF0BAC02BF0BDC02CF0BEC093
:101DF8002DF0BF514A242E6EC0514B202F6E33EC6C
:101E080038F00001BD51BF27BE51C023000EC123C9
:101E1800000EC223BD51B927BE51BA234650BF5D3B
:101E28004750C0594850C1594950C259D8A06DD7D8
:101E3800000E1200000E266E000E256E020E265CA5
:101E4800D8B010D0CC0E2524D96E020E2620DA6E1A
:101E580025C001F026C002F0E6EC25F0DF6E254A29
:101E6800262AECD7000E216E000E206ECC0E226EB4
:101E7800020E236E06EC35F0000E266E000E256E5F
:101E8800020E265CD8B010D0CC0E2524D96E020ED6
:101E98002620DA6E25C001F026C002F0ADEC0BF06A
:101EA800DF6E254A262AECD7000E216E010E206E21
:101EB800CC0E226E020E236E06EC35F0000E266E56
:101EC800000E256E020E265CD8B010D0CC0E25244C
:101ED800D96E020E2620DA6E25C001F026C002F067
:101EE800BEEC33F0DF6E254A262AECD7000E216EB1
:101EF800020E206ECC0E226E020E236E06EC35F01A
:101F0800000E266E000E256E020E265CD8B00BD091
:101F1800CC0E2524D96E020E2620DA6E000EDF6E56
:101F2800254A262AF1D7000E266E030E256E265066
:101F380011E1220E255CD8B00DD025C020F026C0B6
:101F480021F0CC0E226E020E236E06EC35F0254AE7
:101F5800262AEDD7000E266E000E256E020E265C90
:101F6800D8B010D0CC0E2524D96E020E2620DA6EF9
:101F780025C001F026C002F0C7EC14F0DF6E254A38
:101F8800262AECD7000E216E220E206ECC0E226E71
:101F9800020E236E06EC35F0000E266E000E256E3E
:101FA800020E265CD8B00BD0CC0E2524D96E020EBA
:101FB8002620DA6E000EDF6E254A262AF1D7000E9B
:101FC800266E230E256E265011E1260E255CD8B00C
:101FD8000DD025C020F026C021F0CC0E226E020EB6
:101FE800236E06EC35F0254A262AEDD7000E266E1C
:101FF800000E256E020E265CD8B010D0CC0E25241B
:10200800D96E020E2620DA6E25C001F026C002F035
:102018000CEC38F0DF6E254A262AECD7000E216E2C
:10202800260E206ECC0E226E020E236E06EC35F0C4
:10203800000E120005C0D9FF06C0DAFF130EDF6ECE
:1020480020EE01F00550D9260650DA224B0EDF6E3D
:1020580020EE02F00550D9260650DA22160EDF6E61
:10206800B5EC39F001C00CF002C00DF003C00EF061
:1020780004C00FF020EE03F00550D9260650DA22EE
:102088000F50DF6E20EE04F00550D9260650DA22F4
:102098000EC0DFFF20EE05F00550D9260650DA22E3
:1020A8000D50DF6E20EE06F00550D9260650DA22D4
:1020B8000CC0DFFF0AEC3AF001C010F002C011F0CA
:1020C80020EE07F00550D9260650DA221150DF6EAF
:1020D80020EE08F00550D9260650DA2210C0DFFF9E
:1020E80014EC3AF001C010F002C011F020EE09F033
:1020F8000550D9260650DA221150DF6E20EE0AF07C
:102108000550D9260650DA2210C0DFFF20EE0BF06A
:102118000550D9260650DA2234EC3AF0DF6E0FEC7F
:102128003AF001C010F002C011F020EE0CF005509A
:10213800D9260650DA221150DF6E20EE0DF0055038
:10214800D9260650DA2210C0DFFF00EC3AF001C0B1
:1021580010F002C011F020EE0EF00550D9260650FE
:10216800DA221150DF6E20EE0FF00550D926065006
:10217800DA2210C0DFFF05EC3AF001C010F002C00F
:1021880011F020EE10F00550D9260650DA22115031
:10219800DF6E20EE11F00550D9260650DA2210C065
:1021A800DFFF20EE12F00550D9260650DA2228EC7F
:1021B8003AF0DF6E20EE13F00550D9260650DA22E9
:1021C8002EEC3AF0DF6E20EE14F00550D9260650BA
:1021D800DA222BEC3AF0DF6E00EC3AF001500A6E8E
:1021E8002B0E0A6402D02B0E0A6E000E0B6E14D052
:1021F8000B5085EC39F0076E0B50086E096A150E06
:102208000826000E092208500524D96E0950062018
:10221800DA6E07C0DFFF0B2A0A500B5CD8B0120039
:10222800E7D7000E196E17D01950010D630EF3246D
:10223800F66E8D0EF420F76EF86A000EF82219502B
:10224800010D7B0EF324D96E010EF420DA6E08001E
:10225800F5CFDFFF192A1950010D630EF324F66E2E
:102268008D0EF420F76EF86A000EF8220800F5507B
:102278000009D8A4D9D7000E196E17D01950010D2E
:10228800F30EF324F66E8D0EF420F76EF86A000E46
:10229800F8221950010D8F0EF324D96E010EF42087
:1022A800DA6E0800F5CFDFFF192A1950010DF30E79
:1022B800F324F66E8D0EF420F76EF86A000EF822FD
:1022C8000800F5500009D8A4D9D7000E196E17D008
:1022D8001950010D650EF324F66E8E0EF420F76E7C
:1022E800F86A000EF8221950010DA30EF324D96ED6
:1022F800010EF420DA6E0800F5CFDFFF192A195015
:10230800010D650EF324F66E8E0EF420F76EF86A52
:10231800000EF8220800F5500009D8A4D9D719C032
:1023280018F0B5EC39F001C00EF002C00FF003C090
:1023380010F004C011F01950166E176A010E162617
:10234800000E1722A30E1624126E010E1720136E0C
:102358007FEC18F01826000E196E1CD01950010DCC
:10236800750EF324F66E8E0EF420F76EF86A000EE2
:10237800F822195018C016F0176A1626000E1722F0
:10238800A30E1624D96E010E1720DA6E0800F5CFB9
:10239800DFFF192A1950010D750EF324F66E8E0E03
:1023A800F420F76EF86A000EF8220800F5500009CC
:1023B800D8A4D4D7000E196E17D01950010D8E0E5F
:1023C800F324F66E8C0EF420F76EF86A000EF822ED
:1023D8001950010DB70EF324D96E010EF420DA6EF0
:1023E8000800F5CFDFFF192A1950010D8E0EF324CE
:1023F800F66E8C0EF420F76EF86A000EF8220800CC
:10240800F5500009D8B41200D8D7D7D011C185F03B
:1024180012C184F013C183F014C182F016C187F091
:1024280017C186F08651366E8751376E386A396A19
:10243800090ED8903636373638363936E82EF9D779
:1024480036C00BF037C00CF038C00DF039C00EF0B4
:1024580072EC22F00009D8A4C2D0010E00019D6FD1
:1024680086518711D8A402D0000E46D08607D8A07E
:102478008707020E9D6F88518911D8B406D088C08D
:10248800D9FF89C0DAFFDFBEAAD0F7C12CF0F8C1A6
:102498002DF082C02EF083C02FF084C030F085C0AC
:1024A80031F0000E326E060E336E01D80AD00500E8
:1024B800FA6E0101F151FD6EF251FE6EFF6AFA509B
:1024C8001200E806D8B41AD0640E00019B6102D04D
:1024D8009B2B85D0020E0D018C6F01012151F00B51
:1024E8000309216F000E2B6F000E2C6F010E016E79
:1024F800020E84EC1EF05ED09D6F71D0010E0001BB
:102508008227000E832384238523000E0D01886F04
:10251800020E896F000E8A6F000E8B6F000E01018C
:10252800776F060E786F030E00019D6F0D018851BD
:1025380089118A118B11D8A402D0010E3CD0040E47
:1025480000019D6F88518911D8B406D088C0D9FF81
:1025580089C0DAFFDFBE43D0010E016E77C102F0F9
:1025680078C103F0400E046E020E8FEC20F001C01B
:1025780088F002C089F0030E00019D6F400E010132
:10258800085F000E095B0A5B0B5B400E0D01885F5C
:10259800000E895B8A5B8B5B400E01017727000E7A
:1025A80078231DD0020E0D018C6F010E016E020EF4
:1025B80084EC1EF0000E00019FD700019D51000A17
:1025C800D8B424D7010AD8B44BD7030AD8B453D700
:1025D800010AD8B4ABD7070AD8B4B4D7E3D70001F7
:1025E8009D511200000E1D6E17D01D50010D960E44
:1025F800F324F66E8D0EF420F76EF86A000EF822BA
:102608001D50010D7B0EF324D96E010EF420DA6EF5
:102618000800F5CFDFFF1D2A1D50010D960EF3248B
:10262800F66E8D0EF420F76EF86A000EF822080098
:10263800F5500009D8A4D9D7000E1D6E17D01D502B
:10264800010D4C0EF324F66E8E0EF420F76EF86A28
:10265800000EF8221D50010D8F0EF324D96E010EC5
:10266800F420DA6E0800F5CFDFFF1D2A1D50010D9A
:102678004C0EF324F66E8E0EF420F76EF86A000EF8
:10268800F8220800F5500009D8A4D9D7000E1A6E10
:10269800000E196E1D50010D8F0EF3241B6E010ED6
:1026A800F4201C6E2AEC28F01D261D50010D8F0EFB
:1026B800F324D96E010EF420DA6E2E0EDF6E1D2A79
:1026C800000E1A6E050E196E1D50010D8F0EF324A3
:1026D8001B6E010EF4201C6E2AEC28F01D261D50DE
:1026E800010D8F0EF324D96E010EF420DA6E2E0E32
:1026F800DF6E1D2A000E1A6E000E196E1D50010D98
:102708008F0EF3241B6E010EF4201C6E2AEC28F0A9
:102718001D26000E1D6E17D01D50010D7F0EF324CF
:10272800F66E8E0EF420F76EF86A000EF8221D5031
:10273800010DA30EF324D96E010EF420DA6E080001
:10274800F5CFDFFF1D2A1D50010D7F0EF324F66E15
:102758008E0EF420F76EF86A000EF8220800F55085
:102768000009D8A4D9D7000E1D6E17D01D50010D31
:10277800D60EF324F66E8D0EF420F76EF86A000E6E
:10278800F8221D50010DB70EF324D96E010EF42066
:10279800DA6E0800F5CFDFFF1D2A1D50010DD60E99
:1027A800F324F66E8D0EF420F76EF86A000EF82208
:1027B8000800F5500009D8B41200D8D7000E1D6ED5
:1027C80017D01D50010D0E0EF324F66E8D0EF42059
:1027D800F76EF86A000EF8221D50010D7B0EF324E7
:1027E800D96E010EF420DA6E0800F5CFDFFF1D2A3E
:1027F8001D50010D0E0EF324F66E8D0EF420F76EAB
:10280800F86A000EF8220800F5500009D8A4D9D7B4
:10281800000E1D6E17D01D50010DB70EF324F66E75
:102828008C0EF420F76EF86A000EF8221D50010D88
:102838008F0EF324D96E010EF420DA6E0800F5CF5E
:10284800DFFF1D2A1D50010DB70EF324F66E8C0E06
:10285800F420F76EF86A000EF8220800F550000917
:10286800D8A4D9D7000E1D6E17D01D50010D310EFA
:10287800F324F66E8E0EF420F76EF86A000EF82236
:102888001D50010DA30EF324D96E010EF420DA6E4B
:102898000800F5CFDFFF1D2A1D50010D310EF3246E
:1028A800F66E8E0EF420F76EF86A000EF822080015
:1028B800F5500009D8A4D9D70AEC3AF001C019F0AC
:1028C80002C01AF01D50010DA30EF3241B6E010E59
:1028D800F4201C6E2AEC28F01D261D50010DA30EB5
:1028E800F324D96E010EF420DA6E2F0EDF6E1D2A46
:1028F80014EC3AF001C019F002C01AF01D50010D95
:10290800A30EF3241B6E010EF4201C6E2AEC28F093
:10291800000E1D6E17D01D50010DFD0EF324F66E2E
:102928008C0EF420F76EF86A000EF8221D50010D87
:10293800B70EF324D96E010EF420DA6E0800F5CF35
:10294800DFFF1D2A1D50010DFD0EF324F66E8C0EBF
:10295800F420F76EF86A000EF8220800F550000916
:10296800D8A4D9D70FEC3AF001C019F002C01AF078
:102978001D50010DB70EF3241B6E010EF4201C6EC2
:102988002AEC28F0120002501DE1200E015CD8B09C
:1029980019D0025010E10B0E015CD8B00CD0DD0E3E
:1029A8000124F66E8F0E0220F76EF86A000EF822E8
:1029B8000800F55012000B0E01180210D8A402D01E
:1029C800080E1200025003E1400E015CD8B0A4D0FA
:1029D800200E015E000E025A025010E1080E015C42
:1029E800D8B00CD0E90E0124F66E8F0E0220F76ED7
:1029F800F86A000EF8220800F5501200025046E16D
:102A08000B0E015CD8B042D0F80E036EFF0E046EB8
:102A180001C005F002C006F0035005260450062246
:102A2800FB0E0524F66E8F0E0620F76EF86A000E70
:102A3800F8220800F5501200200E1200060E1200AF
:102A4800280E1200780E1200DE0E1200380E120048
:102A58005F0E12004B0E1200000E1200000E120044
:102A6800040E1200770E1200DE0E1200380E12004D
:102A7800020E1200000E12000C0E1200000E1200C0
:102A8800000E1200000E1200000E120001C003F02A
:102A980002C004F00450000AD8A4F6D703500B0A69
:102AA800D8B4CAD7060AD8B4C9D7030AD8B4C8D77D
:102AB800010AD8B4C7D71F0AD8B4C6D7010AD8B4F0
:102AC800C5D7030AD8B4C4D7010AD8B4C3D7070AEC
:102AD800D8B4C2D7010AD8B4C1D7030AD8B4C0D76A
:102AE800010AD8B4BFD70F0AD8B4BED7010AD8B4E0
:102AF800BDD7030AD8B4BCD7010AD8B4BBD7070AD4
:102B0800D8B4BAD7010AD8B4B9D7030AD8B4B8D751
:102B1800010AD8B4B7D7B8D7000E12009ED000016A
:102B28006151800A7F0FD8B005D06351800A7F0FAA
:102B3800D8A01200000E616F000E636F1200615181
:102B4800800A7F0FD8B005D06351800A7F0FD8A0C4
:102B58001200000E616F000E636F12006151800A4F
:102B68007F0FD8B005D06351800A7F0FD8A012001C
:102B7800300E666F300E676F000E616F000E636F68
:102B880012006151800A7F0FD8B005D06351800AC6
:102B98007F0FD8A01200000E616F000E636F120045
:102BA8006151800A7F0FD8B005D06351800A7F0F2A
:102BB800D8A01200000E616F000E636F1200615101
:102BC800800A7F0FD8B005D06351800A7F0FD8A044
:102BD8001200600E666F600E676F000E616F000E68
:102BE800636F12006151800A7F0FD8B005D063511E
:102BF800800A7F0FD8A01200000E616F000E636F6D
:102C080012006151800A7F0FD8B005D06351800A45
:102C18007F0FD8A01200010E0C6E000E0B6E780EFE
:102C28000D6EDCEC35F00A0E92EC38F049EC39F018
:102C3800120000016151800A7F0FD8B005D063519E
:102C4800800A7F0FD8A01200100E666F100E676FF3
:102C5800000E616F000E636F120000016751000AD9
:102C6800D8B45DD7100AD8B46AD7300AD8B476D7A2
:102C7800100AD8B486D7700AD8B4A1D7100AD8B425
:102C88008FD7300AD8B4AED7100AD8B4BAD7E00A6A
:102C9800D8A41200CED7000E206E17D02050010DF8
:102CA800410EF324F66E8D0EF420F76EF86A000ECE
:102CB800F8222050010D7B0EF324D96E010EF4206A
:102CC800DA6E0800F5CFDFFF202A2050010D410EF3
:102CD800F324F66E8D0EF420F76EF86A000EF822D3
:102CE8000800F5500009D8A4D9D7000E206E17D0D7
:102CF8002050010D010EF324F66E8E0EF420F76EAF
:102D0800F86A000EF8222050010D8F0EF324D96EB8
:102D1800010EF420DA6E0800F5CFDFFF202A2050DC
:102D2800010D010EF324F66E8E0EF420F76EF86A8C
:102D3800000EF8220800F5500009D8A4D9D714ECE1
:102D48003AF001C019F002C01AF0A30E1B6E010E72
:102D58001C6E2AEC28F01F6E1F2A000E206E1CD055
:102D68002050010D430EF324F66E8E0EF420F76EFC
:102D7800F86A000EF82220501FC01DF01E6A1D269A
:102D8800000E1E22A30E1D24D96E010E1E20DA6E1F
:102D98000800F5CFDFFF202A2050010D430EF32451
:102DA800F66E8E0EF420F76EF86A000EF822080010
:102DB800F5500009D8A4D4D7000E206E17D02050A3
:102DC800010D790EF324F66E8C0EF420F76EF86A76
:102DD800000EF8222050010DB70EF324D96E010E13
:102DE800F420DA6E0800F5CFDFFF202A2050010D0D
:102DF800790EF324F66E8C0EF420F76EF86A000E46
:102E0800F8220800F5500009D8B41200D8D75F504E
:102E1800D8A411D0000E656E000E0F01366F160E85
:102E2800396F9F0E376F7B0E366F01D0658665A6AA
:102E3800FDD7010E5F6E5F04D8B465BA09D0000EE5
:102E4800626E000E0F01366F36813689020E5F6E94
:102E580062A406D00F0136A503D06294D6EC36F0F2
:102E680065A202D0A198120062A008D00F0136A175
:102E780005D07DEC1AF0040E5F6E629062A804D053
:102E88000F0136B972EC37F062AC1CD00F0136ADC9
:102E98000ED0000E116E730E106E000E126E000E24
:102EA800136E000E156E010E146E0BEC2EF0629C64
:102EB800A4EC38F00001A651D8A4A607A651D8B4AE
:102EC800B1EC26F062AA04D00F0136BBBAEC35F09B
:102ED80062A212D00F0136A30FD07F0E116E1068B8
:102EE800000E126E000E136E000E156E010E146E9B
:102EF8000BEC2EF0000E636E040E5F6002D0A198FA
:102F080012000F0136A73CD0000E206E030E20647D
:102F180001D036D062A634D064CFB3F00001B3310B
:102F2800E832E8320F0BA86F6296B3B507D0A85104
:102F3800010D5D0EF324D96E010E07D00001A851D2
:102F4800010D600EF324D96E010EF420DA6E010132
:102F5800DF700001A851D8A403D082EC28F00ED06D
:102F6800000E116E720E106EB30E126E000E136EFE
:102F7800000E156E000E146E0BEC2EF0202AC6D72C
:102F8800A1981200000E1D6E17D01D50010DEC0EF9
:102F9800F324F66E8C0EF420F76EF86A000EF82211
:102FA8001D50010D7B0EF324D96E010EF420DA6E4C
:102FB8000800F5CFDFFF1D2A1D50010DEC0EF3248C
:102FC800F66E8C0EF420F76EF86A000EF8220800F0
:102FD800F5500009D8A4D9D7000E1D6E17D01D5082
:102FE800010D550EF324F66E8E0EF420F76EF86A76
:102FF800000EF8221D50010D8F0EF324D96E010E1C
:10300800F420DA6E0800F5CFDFFF1D2A1D50010DF0
:10301800550EF324F66E8E0EF420F76EF86A000E45
:10302800F8220800F5500009D8A4D9D7000E1D6E63
:1030380017D01D50010DDB0EF324F66E8C0EF42014
:10304800F76EF86A000EF8221D50010DA30EF32446
:10305800D96E010EF420DA6E0800F5CFDFFF1D2AC5
:103068001D50010DDB0EF324F66E8C0EF420F76E66
:10307800F86A000EF8220800F5500009D8A4D9D73C
:103088000FEC3AF001C019F002C01AF01D50010D02
:10309800A30EF3241B6E010EF4201C6E2AEC28F0FC
:1030A800000E1D6E17D01D50010D3A0EF324F66E5A
:1030B8008C0EF420F76EF86A000EF8221D50010DF0
:1030C800B70EF324D96E010EF420DA6E0800F5CF9E
:1030D800DFFF1D2A1D50010D3A0EF324F66E8C0EEB
:1030E800F420F76EF86A000EF8220800F55000097F
:1030F800D8B41200D8D7115010100F1006E10A0EDC
:103108000E5CD8B002D0010E59D0115010100F101B
:1031180006E1640E0E5CD8B002D0020E4FD01150FA
:10312800101008E1E80E0E5C030E0F58D8B002D05C
:10313800030E44D01150101008E1100E0E5C270E3B
:103148000F58D8B002D0040E39D011500AE1A00EA1
:103158000E5C860E0F58010E1058D8B002D0050E1E
:103168002DD011500AE1400E0E5C420E0F580F0E82
:103178001058D8B002D0060E21D011500AE1800EA6
:103188000E5C960E0F58980E1058D8B002D0070E45
:1031980015D0E10E0F5CF50E1058050E1158D8B079
:1031A80002D0080E0BD0CA0E0F5C9A0E10583B0EB8
:1031B8001158D8B002D0090E01D00A0E156E1504A8
:1031C800146E14BE42D01450016E026A01BE02068B
:1031D800000E046E010E036E6CEC38F001501224E0
:1031E800D96E02501320DA6E0EC001F00FC002F043
:1031F80010C003F011C004F00A0E056E000E066E32
:10320800000E076E000E086E3AEC31F00150300FD8
:10321800DF6E0EC001F00FC002F010C003F011C045
:1032280004F00A0E056E000E066E000E076E000E04
:10323800086E90EC2EF001C00EF002C00FF003C033
:1032480010F004C011F01406BCD715501200000E7F
:10325800016E17D00150010DCA0EF324F66E8C0EC4
:10326800F420F76EF86A000EF8220150010D7B0E6B
:10327800F324D96E010EF420DA6E0800F5CFDFFFD3
:10328800012A0150010DCA0EF324F66E8C0EF420AB
:10329800F76EF86A000EF8220800F5500009D8A465
:1032A800D9D7000E016E17D00150010D1A0EF32464
:1032B800F66E8E0EF420F76EF86A000EF8220150B2
:1032C800010D8F0EF324D96E010EF420DA6E08007A
:1032D800F5CFDFFF012A0150010D1A0EF324F66E17
:1032E8008E0EF420F76EF86A000EF8220800F550EA
:1032F8000009D8A4D9D7000E016E17D00150010DCE
:103308007E0EF324F66E8E0EF420F76EF86A000E29
:10331800F8220150010DA30EF324D96E010EF420FA
:10332800DA6E0800F5CFDFFF012A0150010D7E0E8D
:10333800F324F66E8E0EF420F76EF86A000EF8226B
:103348000800F5500009D8A4D9D7000E016E17D08F
:103358000150010D250EF324F66E8C0EF420F76E45
:10336800F86A000EF8220150010DB70EF324D96E49
:10337800010EF420DA6E0800F5CFDFFF012A0150B4
:10338800010D250EF324F66E8C0EF420F76EF86A04
:10339800000EF8220800F5500009D8B41200D8D75A
:1033A800000E016E17D00150010D850EF324F66E44
:1033B8008D0EF420F76EF86A000EF8220150010D08
:1033C8007B0EF324D96E010EF420DA6E0800F5CFD7
:1033D800DFFF012A0150010D850EF324F66E8D0ED4
:1033E800F420F76EF86A000EF8220800F55000097C
:1033F800D8A4D9D7000E016E17D00150010D260EA2
:10340800F324F66E8E0EF420F76EF86A000EF8229A
:103418000150010D8F0EF324D96E010EF420DA6EDF
:103428000800F5CFDFFF012A0150010D260EF32415
:10343800F66E8E0EF420F76EF86A000EF822080079
:10344800F5500009D8A4D9D7000E016E17D0015045
:10345800010D740EF324F66E8D0EF420F76EF86AE3
:10346800000EF8220150010DA30EF324D96E010EAF
:10347800F420DA6E0800F5CFDFFF012A0150010DB4
:10348800740EF324F66E8D0EF420F76EF86A000EB3
:10349800F8220800F5500009D8A4D9D7000E016E0B
:1034A80017D00150010DB70EF324F66E8D0EF420DF
:1034B800F76EF86A000EF8220150010DB70EF324DA
:1034C800D96E010EF420DA6E0800F5CFDFFF012A6D
:1034D8000150010DB70EF324F66E8D0EF420F76E31
:1034E800F86A000EF8220800F5500009D8B4120056
:1034F800D8D7A098000E636E000E626E000E0F0102
:10350800266F270E016E0F0E026E000E046E000E5F
:10351800036E000E066E020E056ECDEC37F0160E29
:103528000F01396F9F0E376F7B0E366F000E096ED5
:103538000B0E096401D00ED00950040D000EF324BF
:10354800D96E0D0EF420DA6EDE6ADE6ADE6ADD6A96
:10355800092AEED7658C000E0F01386F6598659CB7
:103568006296000E0001716F000E0101346F000EAB
:10357800366F000E356F62B6F3D7010E0001A46FE7
:10358800010EA36F000EA26F000EA16F000EA96FAF
:10359800000E096E020E096401D02ED00950020DEA
:1035A800740EF324D96E000EF420DA6E000EDE6E6F
:1035B800000EDD6E0950020D390EF324D96E010E8E
:1035C800F420DA6E000EDE6E000EDD6E0950010D7D
:1035D800600EF324D96E010EF420DA6E000EDF6E51
:1035E8000950010D5D0EF324D96E010EF420DA6E38
:1035F800000EDF6E092ACED7080E0001746F0D0E7B
:10360800756F160E0F01266F0D0E0D01036F300E2C
:10361800026F080E016F040E006F008F000E00018C
:10362800B46F000E0101536F000E546F000E556FFA
:10363800000E566F000E0001A06F000E5F6E1200A4
:10364800800E0D013019D8A41200C00E0001716F50
:1036580088D07D0E00016E6F8F0E6F6F000E736F36
:10366800120E726F12000D013251D8A443D032519C
:10367800020D7C0EF324F66E8E0EF420F76EF86AB7
:10368800000EF8220900F5CF6EF00A00F5CF6FF0B2
:10369800020E00016E25016E000E6F21026E01C040
:1036A800F6FF02C0F7FFF86A0E0EF76403D00800B1
:1036B800F55005D0F6CFE9FFF7CFEAFFEF5000014C
:1036C800726F030E6E25016E000E6F21026E01C02F
:1036D800F6FF02C0F7FFF86A0E0EF76403D0080081
:1036E800F55005D0F6CFE9FFF7CFEAFFEF5000011C
:1036F800736F1200000E0001716F1200040E0D01AD
:10370800326127D03251020D6D0EF324F66E8E0E03
:10371800F420F76EF86A000EF8220900F5CF6EF073
:103728000A00F5CF6FF06EC0F6FF6FC0F7FFF86ABA
:103738000E0EF76403D00800F55005D0F6CFE9FF68
:10374800F7CFEAFFEF50016E01500001726F736B03
:103758001200000E0001716F1200000E0001716F5F
:1037680012000D013351010AD8B473D7030AD8B433
:103778007AD7010AD8B4C2D7F0D7000E1F6E17D077
:103788001F50010D520EF324F66E8D0EF420F76EC5
:10379800F86A000EF8221F50010D7B0EF324D96E33
:1037A800010EF420DA6E0800F5CFDFFF1F2A1F5044
:1037B800010D520EF324F66E8D0EF420F76EF86AA2
:1037C800000EF8220800F5500009D8A4D9D7000E39
:1037D8001F6E17D01F50010DE50EF324F66E8D0EE7
:1037E800F420F76EF86A000EF8221F50010D8F0EB4
:1037F800F324D96E010EF420DA6E0800F5CFDFFF4E
:103808001F2A1F50010DE50EF324F66E8D0EF420CD
:10381800F76EF86A000EF8220800F5500009D8A4DF
:10382800D9D7000E1F6E17D01F50010D5D0EF3245F
:10383800F66E8E0EF420F76EF86A000EF8221F500E
:10384800010DA30EF324D96E010EF420DA6E0800E0
:10385800F5CFDFFF1F2A1F50010D5D0EF324F66E12
:103868008E0EF420F76EF86A000EF8220800F55064
:103878000009D8A4D9D70AEC3AF001C019F002C05F
:103888001AF01F501D6E1E6A010E1D26000E1E2204
:10389800A30E1D241B6E010E1E201C6E2AEC28F0A0
:1038A8001200000E3F6E3F0E3D6E000E3E6E36C09B
:1038B800D9FF37C0DAFF7F0EDF6401D0120036C0AF
:1038C800D9FF37C0DAFF200EDE18D8B4120036C090
:1038D800D9FF37C0DAFFDF50D8A418D039C0D9FFD4
:1038E8003AC0DAFF000EDF6E20EE01F03950D9261B
:1038F8003A50DA224B0EDF6E20EE02F03950D9260C
:103908003A50DA22160EDF6E030E3F6E010E406E3D
:1039180055D04050010DF3503624D96EF45037205D
:10392800DA6E990EDE18D8B412002DD04050010D71
:10393800F3503624D96EF4503720DA6EDF5036EC67
:103948002DF00BD04050010DF3503624D96EF450B1
:103958003720DA6EDF5036EC2DF0402A2FD0405059
:10396800010DF35036242F6EF4503720306E39C0D5
:1039780031F03AC032F03DC033F03EC034F09DEC37
:1039880036F040261BD04050010DF3503624D96E36
:10399800F4503720DA6EDF50F00B3B6E3C6A3C5037
:1039A800000AD8A412003B50200AD8B4BFD7100A86
:1039B800D8B4C8D7600AD8A41200D1D73850405C10
:1039C800D8B01200A6D7000120EE01F08E51D926FA
:1039D8008F51DA22DF50026E02500101355D000E70
:1039E8003659D8A035C102F00250355F000E365B5B
:1039F800000E016E11D00150010D380EF324D96E5E
:103A08000D0EF420DA6E31C1E1FF32C1E2FFDFCFE3
:103A1800E7FF314B322B012A0250015CD8A0EBD7CB
:103A280035513611D8B433D0000120EE01F08C5155
:103A3800D9268D51DA22080EDF6E20EE02F08C5165
:103A4800D9268D51DA22380EDE6E0D0EDD6E8EC04F
:103A5800D9FF8FC0DAFFDFBC0DD08CC0D9FF8DC075
:103A6800DAFF480EDF6E8CC0D9FF8DC0DAFF000E7A
:103A7800DB8E12008CC0D9FF8DC0DAFF080EDF6E16
:103A88008CC0D9FF8DC0DAFF000EDB8E120000015A
:103A980020EE01F08C51D9268D51DA22080EDF6E06
:103AA80020EE02F08C51D9268D51DA22300EDE6ECE
:103AB8000D0EDD6E8CC0D9FF8DC0DAFF040EDF6EEF
:103AC8008CC0D9FF8DC0DAFF000EDB8E0101349F58
:103AD8000001A551D8A41200B1EC26F01200F7C1DC
:103AE80001F0F8C102F001D80AD00500FA6E010110
:103AF800EF51FD6EF051FE6EFF6AFA501200000998
:103B0800D8B40CD001010D51010D990EF324D96ED2
:103B1800000EF420DA6EDE04D8A419D00DC148F0E6
:103B2800010E496E000E4A6E482A03D0D8904936D5
:103B38004A36482EFBD7491C4B6E4A1C4C6E4B50DC
:103B4800010173174C5074179EEC31F04ED00DC123
:103B580048F0010E496E000E4A6E482A03D0D890EC
:103B680049364A36482EFBD701017351491674511C
:103B78004A1649504A10D8A436D0F7C101F0F8C106
:103B880002F001D809D00500FA6EE951FD6EEA513C
:103B9800FE6EFF6AFA50120001500210D8B420D00D
:103BA8000DC148F0010E496E000E4A6E482A03D036
:103BB800D89049364A36482EFBD74950010173132D
:103BC8004A5074132151F00B0609216F280E2B6FF0
:103BD800000E2C6F010E0D018C6F4EEC02F005D01B
:103BE8009EEC31F002D04EEC02F000019E51120022
:103BF80072D000016151D8A403D06351D8B4120027
:103C08009AEC39F0000E0001616F000E636F12002C
:103C1800000E01016E6F000E6D6F020E0001946FB1
:103C280012008996000E01016E6F000E6D6F030E73
:103C38000001946F120001016D4B6E2B6E5104E16F
:103C4800040E6D5DD8A012008986000E6E6F000EFE
:103C58006D6F040E0001946F1200E0EC34F08B825B
:103C680056EC39F0000E01016E6F000E6D6F000EFC
:103C78006C6F000E6B6F050E0001946F1200675198
:103C8800D8A40BD001016B4B6C2BFA0E6B196C117D
:103C9800D8A403D0100E0001676F00016051D8A4AA
:103CA80012D06151D8A40FD06251D8A40CD063515E
:103CB800D8A409D001016D2903E16E29D8B41200F6
:103CC8006D4B6E2B1200000E01016E6F000E6D6FB2
:103CD80092EC15F0120000019451000AD8B489D76B
:103CE800010AD8B495D7030AD8B49BD7010AD8B427
:103CF800A2D7070AD8B4B1D7010AD8A41200BFD7EF
:103D0800066E0650D8A42CD0000120EE01F08C518C
:103D1800D9268D51DA22080EDF6E20EE02F08C5182
:103D2800D9268D51DA22300EDE6E0D0EDD6E8CC076
:103D3800D9FF8DC0DAFF0C0EDF6E8CC0D9FF8DC0A5
:103D4800DAFF000EDB8E74C0D9FF75C0DAFF040EEF
:103D5800DF6E74C0D9FF75C0DAFF000EDB8E12006B
:103D68000150026E036AD890023603360650046E7C
:103D7800056AD89004360536D890043605360250C0
:103D8800042603500522D89004360536D890043608
:103D98000536000E0424076E0D0E0520086E07C0B8
:103DA800D9FF08C0DAFF000EDB8407C0D9FF08C0BE
:103DB800DAFF000EDB8E0650040DF3CF02F0F4CFCD
:103DC80003F00150020DF3500226F4500322D8905C
:103DD80002360336D89002360336040E0226000E49
:103DE8000322000E0224076E0D0E0320086E07C082
:103DF800D9FF08C0DAFF000EDB8407C0D9FF08C06E
:103E0800DAFF000EDB8E1200000E016E400E026E0D
:103E18000D0E036E400E046E020E8FEC20F001C0F2
:103E28008AF002C08BF078C088F079C089F0000E63
:103E380000019F6F9E69000E9D6F000E9C6F000E23
:103E4800986F000E01014F6F000E506F000E516FFA
:103E5800000E526F000E4B6F000E4C6F000E4D6F30
:103E6800000E4E6F010E0001976F000E0101746F76
:103E7800000E736F000E0D6F46D00D51010D990E97
:103E8800F324D96E000EF420DA6E000EDF6EF7C14F
:103E980001F0F8C102F001D809D00500FA6EEF511F
:103EA800FD6EF051FE6EFF6AFA5012000009D8B498
:103EB80026D0F7C101F0F8C102F001D80AD00500F8
:103EC800FA6E0101E951FD6EEA51FE6EFF6AFA5081
:103ED800120001500210D8B412D00DC10CF0010E1E
:103EE8000D6E000E0E6E0C2A03D0D8900D360E36CD
:103EF8000C2EFBD70D50010173130E507413CFEC29
:103F080031F001010D2B0D51D8A41200B6D7096E5E
:103F1800000188518911D8B406D088C0D9FF89C05A
:103F2800DAFFDFBE12008A518B11D8B406D08AC0DE
:103F3800D9FF8BC0DAFFDFBE12009FC00AF09E696E
:103F4800000E9D6F000E9C6F08C188FD09C189FD98
:103F58000AC18AFD0BC18BFD010E0D018C6F030E8A
:103F680000019F6F43D0020E0D018C6F1200010EED
:103F7800016E020E84EC1EF01200020E0D018C6F11
:103F8800010E016E020E84EC1EF01200000E016E8E
:103F9800020E84EC1EF01200020E0D018C6F000E52
:103FA800016E020E84EC1EF01200CFEC31F001011C
:103FB8002151F00B0509216F200E2B6F000E2C6F7D
:103FC800020E0A18D8A40CD0085109110A110B11B5
:103FD800D8B406D0000E016E020E84EC1EF012005A
:103FE800010E016E020E84EC1EF012000950010A47
:103FF800D8B4B9D7030AD8B4BAD7010AD8B4BDD748
:10400800070AD8B4C3D7010AD8B4C6D77A0AD8A43D
:104018001200CBD715C0D9FF16C0DAFF100EDF6E1D
:1040280020EE01F01550D9261650DA224B0EDF6E1D
:1040380020EE02F01550D9261650DA22160EDF6E41
:1040480020EE03F01550D9261650DA22FBEC39F091
:10405800DF6E20EE04F01550D9261650DA22000E35
:10406800DF6E20EE05F01550D9261650DA22050E1F
:10407800DF6E20EE06F01550D9261650DA22000E13
:10408800DF6E20EE07F01550D9261650DA2231ECF3
:104098003AF0DF6E20EE08F01550D9261650DA22D5
:1040A80060C0DFFF20EE09F01550D9261650DA223D
:1040B80061C0DFFF20EE0AF01550D9261650DA222B
:1040C80062C0DFFF20EE0BF01550D9261650DA2219
:1040D80063C0DFFF20EE0CF01550D9261650DA2207
:1040E80064C0DFFF20EE0DF01550D9261650DA22F5
:1040F80065C0DFFF20EE0EF01550D9261650DA22E3
:1041080066C0DFFF20EE0FF01550D9261650DA22D0
:1041180067C0DFFF1200096E0150D8B407D00950FC
:10412800020D740EF324D96E000E06D00950020D4C
:10413800390EF324D96E010EF420DA6EDECF0AF0C0
:10414800DDCF0BF00A500B10D8A405D0000E016E7D
:10415800000E026E120020EE02F00A50D9260B5013
:10416800DA2202C0DEFF03C0DDFF20EE01F00A50B4
:10417800D9260B50DA2204C0DFFF0AC0D9FF0BC0D2
:10418800DAFF400EDF160AC0D9FF0BC0DAFF000EB7
:10419800DB860AC0D9FF0BC0DAFF000EDB8E0150A8
:1041A800D8B418D00950020D740EF324D96E000E3D
:1041B800F420DA6EDECF05F0DDCF06F0040E051828
:1041C800076E0650086E0950020D740EF324D96E5E
:1041D800000E17D00950020D390EF324D96E010EC6
:1041E800F420DA6EDECF05F0DDCF06F0040E0518F8
:1041F800076E0650086E0950020D390EF324D96E69
:10420800010EF420DA6E07C0DEFF08C0DDFF0AC029
:1042180001F00BC002F012006598000171BF3CD09C
:10422800010134AF0DD0020E0001AB6FA151D8B41B
:10423800BCEC2BF0000E0001A36F000EA46F12005F
:10424800000120EE01F08C51D9268D51DA22080E9A
:10425800DF6E20EE02F08C51D9268D51DA22300E15
:10426800DE6E0D0EDD6E8CC0D9FF8DC0DAFF0C0E30
:10427800DF6E8CC0D9FF8DC0DAFF000EDB8E74C0F4
:10428800D9FF75C0DAFF040EDF6E74C0D9FF75C0A0
:10429800DAFF000EDB8E12000D0130AF12D0010ED6
:1042A8000001AB6FA251D8B4BCEC2BF0000E00019A
:1042B800A36F000EA46FA551D8A41200B1EC26F08C
:1042C8001200020E0001AB6F20EE01F08C51D926CE
:1042D8008D51DA22080EDF6E20EE02F08C51D926BD
:1042E8008D51DA22300EDE6E0D0EDD6E8CC0D9FFD8
:1042F8008DC0DAFF040EDF6E8CC0D9FF8DC0DAFFE7
:10430800000EDB8E000EA36F000EA46FA551D8A47B
:104318001200B1EC26F012000D013039E832030B1F
:104328000009D8A4120047D00001718F080E5F6EF3
:10433800120024EC1BF0120053EC23F01200B40E10
:1043480000016E6F000E6F6F7181010E726F718FB9
:104358001200D8EC28F012006BEC0AF012000D01E4
:104368003451010DE70EF32400016E6F010EF420A5
:104378006F6F7181010E726F718F12000001718F62
:104388000D013451010DE70EF324D96E010EF4200E
:10439800DA6E32CDDFFF1200000E116E020E106EC3
:1043A800000E126E000E136E000E156E000E146EC7
:1043B8000BEC2EF012000D013151000AD8B4C9D708
:1043C800010AD8B4C9D7020AD8B4C6D7060AD8B4DD
:1043D800ABD7030AD8B4ADD7010AD8B4DDD70F0AD2
:1043E800D8B4ADD7010AD8B4A7D7030AD8B4B7D779
:1043F800010AD8B4C3D7070A12000D0130511F0BA8
:10440800E806D8A412003451D8A41200060E3119B7
:10441800D8B41AD022D00001B405D8A41ED0920E68
:104428006E6F8E0E6F6F000E736F090E0BD0C00E7D
:10443800716F13D0460E00016E6F8F0E6F6F000EF6
:10444800736F1D0E726FF3D70D013351210AD8B463
:10445800E2D7030AD8B4EED7010A0D013039E832A1
:10446800030BE806D8A4120024D0B20E00016E6F28
:10447800000E6F6F000E736F010E726FC10E716FB9
:104488001200800E0001716F33CDB2F01200B10E30
:1044980000016E6F000E6F6F000E736F010E726F6A
:1044A800810E716F1200800E0001716F32CDB1F074
:1044B80012000D013151010AD8B41200030AD8B410
:1044C800D4D7010AD8B4E3D70A0AD8B41200030A29
:1044D800D8B4D7D7010AD8A41200E5D70B500C10CE
:1044E8000D100E10D8A402D0010E01D0000E116ECE
:1044F80000019805D8A405D01104D8A402D0000E54
:1045080012000B50010108191AE10C50091917E1A2
:104518000D500A1914E10E500B19D8A410D000013F
:104528009F05D8A406D02A0E9E19D8B408D0000E2C
:1045380012002A0E9E19D8A402D0000E1200010102
:1045480008510B5C09510C580A510D580B510E5863
:10455800D8B002D0010E01D0000E0F6E020E00017D
:104568009F19D8A414D02A0E9E19D8B405D011507A
:10457800D8A402D0050E1DD09805D8B40FD01104C8
:10458800D8B403D00F04D8A4F5D7040E12D02A0E3D
:104598009E19D8B40DD09805D8A402D0010E09D020
:1045A8001104D8B403D00F04D8A402D0020E01D04D
:1045B800030E106E10508BEC1FF010501200000EFE
:1045C800326E000E346E220E336E345066E1260EC3
:1045D800335CD8B062D033C028F034C029F0CC0E98
:1045E8002A6E020E2B6E59EC38F0000E366E000E55
:1045F800356E020E365CD8B04BD0CC0E3524D96E51
:10460800020E3620DA6EDF50D8A402D0FF0E120058
:10461800CC0E3524D96E020E3620DA6EE50EDE1881
:10462800D8B430D02CC001F02DC002F0CC0E352407
:10463800036E020E3620046E000E066E080E056E1E
:104648004EEC2EF001500210D8A41CD02EC001F060
:104658002FC002F0080E3524306E000E3620316E61
:10466800CC0E3024036E020E3120046E000E066E4E
:10467800030E056E4EEC2EF001500210D8A402D0A5
:1046880032501200322A200E3526000E3622B1D7BB
:10469800334A342A345001E19AD7FF0E1200000140
:1046A800718F270E016E0F0E026E000E046E000E43
:1046B800036E000E066E020E056ECDEC37F0000E8E
:1046C800016E0D0E026E000E046E000E036E000EDB
:1046D800066E300E056ECDEC37F0658C000E186E48
:1046E800020E186401D016D01850010D600EF32484
:1046F800D96E010EF420DA6E000EDF6E1850010D2F
:104708005D0EF324D96E010EF420DA6E000EDF6E12
:10471800182AE6D7E70E016E010E026E000E046E2F
:10472800000E036E000E066E020E056ECDEC37F01D
:10473800659C080E0001746F0D0E756F000E8E6F6C
:104748000D0E8F6F8EC08CF08FC08DF032CDB4F00F
:10475800B451D8A403D0100E5F6E1200000E116E73
:10476800010E106EB40E126E000E136E000E156E52
:10477800010E146E0BEC2EF0200E5F6E120017C0A7
:10478800D9FF18C0DAFFDF501B6E7F0E1B6452D0B2
:1047980019C0D9FF1AC0DAFF990EDF6E20EE01F0BA
:1047A8001950D9261A50DA22990EDF6E120019C054
:1047B80015F01AC016F00EEC20F0120019C005F022
:1047C8001AC006F0000E076ED0EC27F0120019C0D0
:1047D80005F01AC006F0010E076ED0EC27F01200A3
:1047E80019C005F01AC006F01EEC10F0120019C02E
:1047F80001F01AC002F017C003F018C004F003500B
:104808000410D8A4200E056E000E076E400E066E2A
:1048180007EC31F0120019C0D9FF1AC0DAFF990E5F
:10482800DF6E20EE01F01950D9261A50DA22990EBF
:10483800DF6E12001B50000AD8B41200100AD8B458
:10484800B6D7010AD8B4BAD7030AD8B4C0D7010A70
:10485800D8B4C6D7330AD8B4CAD7DDD7236E4FEC3D
:1048680035F01ED0F6EC12F04DD0D4EC19F04AD049
:1048780015EC11F047D0C1EC1BF044D04FEC16F00A
:1048880041D096EC07F03ED0E2EC13F03BD0C6ECFA
:1048980017F038D068EC33F035D02BEC19F032D063
:1048A8002350F00B216E226A2250000AD8A42AD085
:1048B8002150000AD8B4D6D7100AD8B4D6D7300AAF
:1048C800D8B4D6D7100AD8B4D6D7700AD8B4D6D7A1
:1048D800100AD8B4D6D7300AD8B4D6D7100AD8B464
:1048E800D6D7F00AD8B4D6D7100AD8B4D6D70AD0B3
:1048F8002E0E01018D6F2E0E01018C6F2E0E0101FF
:104908008B6F15D000016439E842070B030B216E49
:10491800226A2250000AD8A40AD02150010AD8B429
:10492800EDD7030AD8B4E7D7010AD8B4E1D7F2AE75
:104938001200490E01018D6F120004007AEC39F063
:1049480060EC32F00009D8B404D0DCEC39F025EC86
:104958003AF0E9EC33F0000E3DEC34F07DEC1AF05F
:1049680004000BEC17F0A3EC39F01DEC2BF082ECF3
:1049780029F000016551D8A4F3D7FCEC1DF025D02F
:10498800000ED3EC30F043D0010ED3EC30F03FD022
:10499800020ED3EC30F03BD0030ED3EC30F037D01E
:1049A800040ED3EC30F033D0050ED3EC30F02FD01A
:1049B8000001675132EC24F02AD031EC3AF0050AB4
:1049C800D8A425D09EEC30F022D000016451070B0A
:1049D8005D6E5E6A5E50000AD8A419D05D50000A68
:1049E800D8B4CED7010AD8B4CFD7030AD8B4D0D711
:1049F800010AD8B4D1D7070AD8B4D2D7010AD8B493
:104A0800D3D7030AD8B4D4D7010AD8B4D6D7010E5D
:104A18000001656FA5D7000E0A6E000E0C6E62D0FD
:104A28000C500124066E000E0220076E000E0320B3
:104A3800086E000E0420096E0950081004E1900E5B
:104A4800075CD8A018D00C500124066E000E022076
:104A5800076E000E0320086E000E0420096E095030
:104A68000AE1F80E065CFF0E0758010E0858D8B088
:104A780002D0000E29D00C500124066E000E022030
:104A8800076E000E0320086E000E0420096E095000
:104A980008E1F80E065CFF0E0758010E0858D8A06A
:104AA80015D00C500124066E000E0220076E000E71
:104AB8000320086E000E0420096E095007E1020E5B
:104AC800085CD8B003D0010E0B6E01D00B680B2820
:104AD800D8A402D0FF0E12000B500A5CD8A00BC05D
:104AE8000AF00C2A05500C5CD8A09AD70A5012007C
:104AF800080E016E0001735110E1080E725DD8B006
:104B08000CD072C001F0AC51D8A402D0010E04D070
:104B1800AC05D8A402D0020EAC6F0150725F000E33
:104B2800735B20EE01F07451D9267551DA2201C069
:104B3800DFFF380E0101796F0D0E7A6F000171A148
:104B48001DD03CD06EC0F6FF6FC0F7FFF86A79C180
:104B5800D9FF7AC1DAFF0E0EF76403D00800F550CA
:104B680005D0F6CFE9FFF7CFEAFFEF50DF6E00017F
:104B78006E4B6F2B0101794B7A2B01060150D8B48B
:104B88001200E0D76EC0F6FF6FC0F7FFF86A79C170
:104B9800D9FF7AC1DAFF0E0EF76403D00800F5508A
:104BA80005D0F6CFE9FFF7CFEAFFEF50DF6E00013F
:104BB8006E4B6F2B0101794B7A2B01060150D8B44B
:104BC8001200E0D726D0800E1200000E1200020E4E
:104BD8001200000E1200040E1200020E1200030E44
:104BE8001200080E1200010E1200000E1200000E34
:104BF8001200000E1200FF0E12001F0E1200000E0F
:104C08001200000E1200550E1200AA0E1200000E1D
:104C1800120001C003F002C004F00450010AD8A435
:104C2800F6D70350BE0AD8B4CED7010AD8B4CDD728
:104C38007F0AD8B4CCD7010AD8B4CBD7030AD8B4E2
:104C4800CAD7010AD8B4C9D7070AD8B4C8D7010A3D
:104C5800D8B4C7D7030AD8B4C6D7010AD8B4C5D7B9
:104C68000F0AD8B4C4D7010AD8B4C3D7030AD8B432
:104C7800C2D7010AD8B4C1D7070AD8B4C0D7010A25
:104C8800D8B4BFD7330AD8B4BED7010AD8B4BDD771
:104C9800BED774C0D9FF75C0DAFF0001000EDFBCB3
:104CA800010E026E040E7419746F7551756F080E3B
:104CB8005F18D8A40CD00D0132517F0B0F01386F4B
:104CC8003851D8B402D0100E01D0040E5F6E000126
:104CD800AB05D8A43BD020EE02F07451D92675510B
:104CE800DA22380EDE6E0D0EDD6E7CEC25F0020E3B
:104CF8000001AC19D8A40DD074C0D9FF75C0DAFF73
:104D0800040EDF6E74C0D9FF75C0DAFF000EDB8EAB
:104D180012000250D8A40DD074C0D9FF75C0DAFFB4
:104D2800480EDF6E74C0D9FF75C0DAFF000EDB8E47
:104D3800120074C0D9FF75C0DAFF080EDF6E74C0A8
:104D4800D9FF75C0DAFF000EDB8E1200010134BFF7
:104D5800349F000E0001AB6F12000001A451D8A4CB
:104D68001200010EA46FA351D8A41200010EA36F64
:104D7800020EAB19D8A415D020EE01F07451D92633
:104D88007551DA22000EDF6E74C0D9FF75C0DAFFE4
:104D9800480EDF6E74C0D9FF75C0DAFF000EDB8ED7
:104DA8001200AB05D8A41200000EA76F20EE01F088
:104DB8008E51D9268F51DA22080EDF6E20EE02F0CE
:104DC8008E51D9268F51DA22300EDE6E0D0EDD6E31
:104DD8008EC0D9FF8FC0DAFF040EDF6E8EC0D9FFF8
:104DE8008FC0DAFF000EDB8E010EA76F20EE01F0F8
:104DF8008C51D9268D51DA22080EDF6E20EE02F092
:104E08008C51D9268D51DA22300EDE6E0D0EDD6EF4
:104E18008CC0D9FF8DC0DAFF800EDF6E12000D0145
:104E280030511F0BE806D8A412003451D8A4120040
:104E38004ED032513311D8A4120036513711D8A4AC
:104E48001200000E00019F6F9E69000E9D6F000EFC
:104E58009C6F010E976F3DC10CF03EC10DF00C50D8
:104E68000D10D8B40AD03DC10EF03EC10FF00EC0EF
:104E7800D9FF0FC0DAFFDFBE0FD0000E016E400E63
:104E8800026E0D0E036E400E046E020E8FEC20F0C3
:104E980001C08AF002C08BF0800E0001716F120011
:104EA8000D0132513311D8A4120036053711D8A498
:104EB8001200000E386F380E00016E6F0D0E6F6F06
:104EC800000E736F010E726FC10E716F12000D012B
:104ED8003151FE0AD8B4E4D7010AD8A41200A9D7E0
:104EE80009C001F00AC002F08AEC37F001C013F0E3
:104EF80002C014F003C015F004C016F013C0F6FF8A
:104F080014C0F7FF15C0F8FF1650151004E1900EF5
:104F1800145CD8A01200FF0E13240B6E030E14208D
:104F28000C6E000E15200D6E000E16200E6E0E5023
:104F380032E10B28FF0E0C58010E0D58D8B01200A4
:104F4800000E106E000E0F6E000E116E0F0E116423
:104F580001D01200000E126E3F0E126401D00DD067
:104F6800000E0F24D96E080E1020DA6EDF50F56E91
:104F78000D000F4A102A122AEFD70A00840EA66ED7
:104F8800B50EF8EC37F0010EF626000EF722000EEB
:104F9800F822112ADBD712000750D8B406D005C072
:104FA800D9FF06C0DAFF120E05D005C0D9FF06C02A
:104FB800DAFF110EDF6E20EE01F00550D9260650FB
:104FC800DA224B0EDF6E20EE02F00550D92606508D
:104FD800DA22160EDF6E030E0D6E0750D8B402D01B
:104FE800020E01D0000E0F6E0FC00EF01AD0000E88
:104FF800106E130E106401D013D010C001F00E50C3
:10500800E3EC37F0086E0D50010DF3500524D96E0E
:10501800F4500620DA6E08C0DFFF0D2A102AE9D7FF
:105028000E2A0F50086E096A020E0826000E092281
:105038000E500A6E0B6A08500A5C0B50800A0C6E00
:105048000950800A0C58D8B01200D1D71BC011F0F3
:105058001CC012F019C013F01AC014F0000E166E1E
:105068000A0E156E1FEC36F0100E195C270E1A5832
:10507800D8A00AD020EE05F01B50D9261C50DA2201
:10508800200EDF6E050E1200E80E195C030E1A588A
:10509800D8A00AD020EE04F01B50D9261C50DA22E2
:1050A800200EDF6E040E12001A5004E1640E195C23
:1050B800D8A00AD020EE03F01B50D9261C50DA22C3
:1050C800200EDF6E030E12001A5004E10A0E195C5E
:1050D800D8A00AD020EE02F01B50D9261C50DA22A4
:1050E800200EDF6E020E120020EE01F01B50D926B2
:1050F8001C50DA22200EDF6E010E12002D0E000168
:10510800A66FB3C01EF0FD0E1E16D8A444D0B3C0BF
:105118001EF0D8901E323F0E1E161E50040D000EB3
:10512800F3248E6F0D0EF4208F6F8EC08CF08FC01D
:105138008DF0040E8C198C6F8D518D6F8EC0D9FF38
:105148008FC0DAFFDF30E8320F0B0D0AD8A420D069
:10515800300E016E0D0E026E20EE02F08E51D92631
:105168008F51DA22DECF1EF0DDCF1FF01EC003F014
:105178001FC004F003500410D8A4200E056E000EC2
:10518800076E080E066E07EC31F0EDEC2CF01200FD
:1051980030EC32F012000001B351FD0B040AD8A420
:1051A80012004DEC26F01200000E0D01386F000EB3
:1051B800396F39D00001718F0001AA05D8A43ED0FB
:1051C8000D0138833BD00001718F38D00001718FF9
:1051D8000D0134BF0AD034510F0B016E0150020D7E
:1051E800390EF324D96E010E09D034510F0B016E1C
:1051F8000150020D740EF324D96E000EF420DA6EFD
:10520800DECF02F0DDCF03F002C0D9FF03C0DAFF22
:10521800DFAE14D002C0D9FF03C0DAFFDFA40ED07E
:10522800010E386F0BD030511F0B000AD8B4C2D70B
:10523800010AD8B4C8D7030AD8B4C8D7000171AFD7
:105248001200380E6E6F0D0E6F6F7181020E726F45
:10525800120027C0D9FF28C0DAFF560EDE18D8A4DE
:1052680014D020EE01F02750D9262850DA22DA0E81
:10527800DE18D8A40AD020EE02F02750D9262850EC
:10528800DA22220EDE18D8B402D0030E12001EEC69
:105298000FF02E6E2BC0D9FF2CC0DAFFDF50D8B428
:1052A8002BD02BC0D9FF2CC0DAFF3F0EDF6024D0F3
:1052B8002BC0D9FF2CC0DAFFDFCF2DF0010EDF267F
:1052C8002D50010DF3502924D96EF4502A20DA6E9E
:1052D800560EDF6E2BC0D9FF2CC0DAFFDFCF2DF0C2
:1052E800010EDF262D50010DF3502924D96EF450FC
:1052F8002A20DA6E2EC0DFFF030E1200F2A412007D
:10530800D10ED76E200ED66E0001642B000E656F8D
:10531800F2948450070B9619D8B41FD084B084A493
:1053280006D096B104D07F0E6019D8A4602B84B43F
:1053380084A007D096B505D06051800AFF0FD8B079
:10534800600784B296B302D0010E616F84A296A35F
:1053580001D061698450070B966F8050070B95192F
:10536800D8B4120080B480A006D095B504D07F0EC2
:105378006219D8A4622B80B080A407D095B105D05B
:105388006251800AFF0FD8B0620780B295B302D08D
:10539800010E636F80A295A301D063698050070B4B
:1053A800956F12005E0EF66E720EF76E000EF86EB6
:1053B80002EEB2F010EE1AF00900F5CFEEFFE5505C
:1053C800E150FAE1200EF66E730EF76E000EF86EDD
:1053D80001EEE9F010EE14F00900F5CFEEFFE5500C
:1053E800E150FAE1760EF66E740EF76E000EF86E66
:1053F8000900F5CFFEF002EECCF012EE00F0EE6AF6
:10540800E550E150FCE1E250FAE108EE00F014EE5C
:1054180000F0EE6AE550E150FCE1E250FAE102EEFC
:1054280000F0B20EEE6AE806FDE101EE00F0E90ECA
:10543800EE6AE806FDE100EE60F0550EEE6AE80659
:10544800FDE15F6A0001A1EF24F0000E296E000E55
:10545800286ECC0E2A6E020E2B6E59EC38F0000E18
:105468002F6E000E2E6E020E2F5CD8B016D0CC0E0A
:105478002E24D96E020E2F20DA6E2EC001F02FC016
:1054880002F0E6EC25F02D6EDE502D18D8B402D0CF
:10549800000E12002E4A2F2AE6D7000E296E010EA2
:1054A800286ECC0E2A6E020E2B6E59EC38F0000EC8
:1054B8002F6E000E2E6E020E2F5CD8B016D0CC0EBA
:1054C8002E24D96E020E2F20DA6E2EC001F02FC0C6
:1054D80002F0ADEC0BF02D6EDE502D18D8B402D0D2
:1054E800000E12002E4A2F2AE6D7010E12000AC01B
:1054F8000EF00BC00FF00EC001F00FC002F00CC090
:1055080003F00DC004F067EC34F001C00EF002C0E7
:105518000FF0084A092A0E500F10D8A4ECD708C07B
:10552800D9FF09C0DAFF000EDF6E0806D8A0090609
:105538000AC001F00BC002F00CC003F00DC004F06B
:1055480040EC36F00150106E0AC001F00BC002F0BA
:105558000CC003F00DC004F067EC34F001C00AF091
:1055680002C00BF0090E106402D0070E1026300E90
:10557800102608C0D9FF09C0DAFF10C0DFFF0806EF
:10558800D8A009060A500B10D8A4D2D7084A092A6D
:1055980012008F0E2C6E8F0E2D6EC80E2E6E8F0E73
:1055A8002F6EE3EC22F00001FE6FFE29D8B434D050
:1055B800FE5131EC30F036C07AF037C07BF038C09D
:1055C8007CF039C07DF0000E01016A6F000E696F32
:1055D800000E00017E6F000E7F6F000E806F000EC0
:1055E800816F01014769486949694A69000E436F3B
:1055F800000E446F000E456F000E466F000E3F6FA1
:10560800000E406F000E416F000E426F200E000129
:10561800666F200E676F1200000E7A6F000E7B6FA8
:10562800000E7C6F000E7D6F100E666F100E676F98
:105638001200200E5F6001D0120065B21200010155
:1056480071517211D8B406D071C1D9FF72C1DAFF95
:10565800DFBE12006F517011D8B406D06FC1D9FFE8
:1056680070C1DAFFDFBE19D0400E176E020E186E39
:10567800000E196E020E1A6EC3EC23F0010E016EB5
:10568800000E026E020E036E400E046E010E8FECC9
:1056980020F001C06FF102C070F1400E366E020EAC
:1056A800376E400E386E000E396E020E3A6E55ECAB
:1056B8001CF0000E016E400E026E020E036E400ECC
:1056C800046E010E8FEC20F001C071F102C072F17E
:1056D8001200000E3F6E000E3E6E3A043B10D8A436
:1056E8003ED038C030F039C031F012EC33F030C061
:1056F80038F031C039F0120038C001F039C002F07A
:1057080062EC39F001C040F002C041F038C001F04D
:1057180039C002F06EEC39F001C03CF002C03DF037
:105728003E50401804E13F504118D8B40AD040C058
:1057380028F041C029F0CC0E2A6E020E2B6E59ECCF
:1057480038F03CC001F03DC002F0CC0E036E020EF2
:10575800046E97EC35F001C038F002C039F03A50C9
:105768003B10D8A4C9D738C038F039C039F0120076
:10577800000E0001A26F000EA16F020EAB19D8A493
:105788001FD020EE01F08C51D9268D51DA22080E57
:10579800DF6E20EE02F08C51D9268D51DA22380EB8
:1057A800DE6E0D0EDD6E8CC0D9FF8DC0DAFF480E9F
:1057B800DF6E8CC0D9FF8DC0DAFF000EDB8E1200C1
:1057C80072510D01365D000173510D013759D8B082
:1057D80004D036CD72F037CD73F07CEC25F00001A3
:1057E80020EE02F07451D9267551DA22380EDE6E99
:1057F8000D0EDD6E74C0D9FF75C0DAFF480EDF6E7E
:1058080074C0D9FF75C0DAFF000EDB8E120001509C
:10581800036E0250046E056A066A03500101085DB2
:105828000450095905500A5906500B59D8B00ED0E2
:10583800000E0D01886F000E896F000E8A6F000E32
:105848008B6F08C186F009C187F0120000018651EC
:10585800015C87510258D8B004D001C086F002C05C
:1058680087F08651036E8751046E056A066A031E27
:10587800041E051E061E032A000E04220522062207
:105888000101085103240D01886F01010951042009
:105898000D01896F01010A5105200D018A6F01016F
:1058A8000B5106200D018B6F1200066E000E076E5D
:1058B8000D0E086E0150026E036AD8900236033648
:1058C8000650046E056AD89004360536D89004361A
:1058D80005360250042603500522D89004360536B2
:1058E800D89004360536045007260550082207C00C
:1058F800D9FF08C0DAFFDF9E0150D8A407D00650B0
:10590800020D390EF324D96E010E06D00650020D91
:10591800740EF324D96E000EF420DA6E07C0DEFF91
:1059280008C0DDFF07C0D9FF08C0DAFFDF9C20EE02
:1059380004F00750D9260850DA22DF8C1200889E1E
:10594800889C888A88988896888488928698869A77
:10595800869C869E869086928694869602506A6E6B
:1059680001C06BFFFF0E096EFF0E0A6E03C00BF03D
:1059780004C00CF009500B260A500C220CC00BF086
:105988000C6A0B50666E0304676E8C9E888088B024
:10599800FED7889A8888889688940650686E05C0CD
:1059A80069FFFF0E096EFF0E0A6E07C00BF008C0F4
:1059B8000CF009500B260A500C220CC00BF00C6A94
:1059C8000B50666E0704676E888088B0FED78C8E91
:1059D8001200000E0001AC6F000EA56F000EA26F42
:1059E800000EA16F000EA76F000EAB6F74C0D9FF39
:1059F80075C0DAFF7F0EDF16040E7419746F7551C7
:105A0800756F74C0D9FF75C0DAFF7F0EDF16040EFC
:105A18007419746F7551756F8CC0D9FF8DC0DAFF1A
:105A28007F0EDF16000E716F000E736F000E726F1F
:105A3800000E0101346F000E366F000E356F90ECCA
:105A480021F0000E116E030E106E000E126E000E85
:105A5800136E000E156E000E146E0BEC2EF010EC8B
:105A680021F01200246E33D0010E0C6E000E0B6E66
:105A7800000E0D6EDCEC35F00A0E92EC38F049ECB5
:105A880039F01200010E0C6E000E0B6E940E0D6EA6
:105A9800DCEC35F00A0E92EC38F049EC39F01200E3
:105AA800010E0C6E000E0B6E780E0D6EDCEC35F0F0
:105AB8000A0E92EC38F049EC39F012000001600748
:105AC80012000001602B12000001612B120024500B
:105AD800200AD8B4C9D7010AD8B4D4D7030AD8B48D
