:020000040000FA
:040000000EEF00F00F
:0400080004EF48F0C9
:100018000CEF48F025EF29F00E500C24D96E0F5044
:100028000D20DA6E3A0EDE18D8B405D00C680D68CB
:100038000E680F681200020E0E24146E000E0F20B8
:10004800156E14500C24D96E15500D20DA6EDF5041
:10005800036E010E0E24166E000E0F20176E16503A
:100068000C24D96E17500D20DA6EDF501AEC38F0D8
:10007800186E196A12C0D9FF13C0DAFF18C0DEFF64
:1000880019C0DDFF12C0D9FF13C0DAFF010EDB5023
:1000980004E1110EDE5CD8A009D0FC0E0C6EFF0E38
:1000A8000D6EFF0E0E6EFF0E0F6E1200040E0E2464
:1000B800146E000E0F20156E14500C24D96E1550B6
:1000C8000D20DA6EDF50036E050E0E24166E000E3C
:1000D8000F20176E16500C24D96E17500D20DA6EAB
:1000E800DF50046E060E0E24186E000E0F20196ED7
:1000F80018500C24D96E19500D20DA6EDF50056E99
:10010800030E0E241A6E000E0F201B6E1A500C24BC
:10011800D96E1B500D20DA6EDF500EEC2FF020EE5A
:1001280002F01250D9261350DA2203C0DEFF04C0B1
:10013800DDFF20EE04F01250D9261350DA22080E03
:100148000E24146E000E0F20156E14500C24E16E50
:1001580015500D20E26EE750036E070E0E24166E42
:10016800000E0F20176E16500C24E16E17500D204C
:10017800E26EE7501AEC38F0DF6E000E1C6E3DD0D0
:100188001C50010D050EF326000EF422F350122424
:10019800D96EF4501320DA6E1C501CC014F0156A86
:1001A8001426000E15220E5014260F5015220A0E82
:1001B8001426000E152214500C24E16E15500D2043
:1001C800E26EE750036E1C501CC016F0176A162624
:1001D800000E17220E5016260F501722090E16264B
:1001E800000E172216500C24E16E17500D20E26EF7
:1001F800E7501AEC38F0DF6E1C2A12C0D9FF13C082
:10020800DAFF1C50166E176ADE50165CDE5017585F
:10021800D8A0B6D720EE15F01250D9261350DA22FE
:100228001C501CC014F0156A1426000E15220E501E
:1002380014260F5015220A0E1426000E15221450EB
:100248000C24E16E15500D20E26EE750036E1C5031
:100258001CC016F0176A1626000E17220E50162616
:100268000F501722090E1626000E172216500C24BE
:10027800E16E17500D20E26EE7501AEC38F0DF6E91
:1002880012C0D9FF13C0DAFF10EE16F01250E126A3
:100298001350E222DFCFE7FF20EE02F01250D926FA
:1002A8001350DA22DECF14F0DDCF15F015C014F0AC
:1002B800156A20EE16F01250D9261350DA2214507F
:1002C800DF2620EE02F01250D9261350DA22DF5032
:1002D800146E20EE16F01250D9261350DA2214505C
:1002E800DF2620EE04F01250D9261350DA22DF5010
:1002F800146E20EE16F01250D9261350DA2214503C
:10030800DF26000E1C6E17D01C50010D050EF326BB
:10031800000EF422F3501224D96EF4501320DA6E32
:10032800DF50146E20EE16F01250D9261350DA2240
:100338001450DF261C2A12C0D9FF13C0DAFF1C5044
:10034800166E176ADE50165CDE501758D8A0DCD738
:1003580020EE15F01250D9261350DA22DF50146E11
:1003680020EE16F01250D9261350DA221450DF2648
:1003780020EE16F01250D9261350DA22DF50D8B4E6
:1003880009D0FE0E0C6EFF0E0D6EFF0E0E6EFF0EE8
:100398000F6E120020EE04F01250D9261350DA2204
:1003A800DE04D8A409D0000E0C6E000E0D6E000EEF
:1003B8000E6E000E0F6E12001C501CC014F0156A51
:1003C8001426000E15220B0E1424166E000E15208E
:1003D800176E186A17BE18061850196E16500E2692
:1003E80017500F221850102219501122010E0E26F4
:1003F800000E0F22102211220E500C24D96E0F501D
:100408000D20DA6E3A0EDE18D8A409D00EC00CF012
:100418000FC00DF010C00EF011C00FF01200010E49
:100428000E26000E0F22102211220E500C24D96E17
:100438000F500D20DA6E3A0EDE18D8A409D00EC07F
:100448000CF00FC00DF010C00EF011C00FF012002C
:10045800010E0E26000E0F22102211220E500C241F
:10046800D96E0F500D20DA6E3A0EDE18D8A409D0D6
:100478000EC00CF00FC00DF010C00EF011C00FF040
:100488001200FD0E0C6EFF0E0D6EFF0E0E6EFF0EAF
:100498000F6E1200B9D104EC12F00009D8A41200B2
:1004A80000019F6912000FEC09F00009D8A412009E
:1004B80000019F6912009905D8A402D09F69120013
:1004C80012C18BF013C18AF08AC00BF08BC00CF0FC
:1004D8000D6A0E6AA4EC21F00009D8A41200000EDF
:1004E800026E240E016E5AEC2BF0000E016E060E01
:1004F800026E490E036E8F0E046E03500410D8A4CA
:10050800000E056E000E076E240E066E1CEC30F011
:10051800FD0E00019F6F1200F2C101F0F3C102F05D
:1005280001D80AD00500FA6E0101E651FD6EE751C7
:10053800FE6EFF6AFA50120001C043F002C044F098
:1005480003C045F004C046F0F2C101F0F3C102F067
:1005580001D80AD00500FA6E0101E851FD6EE95193
:10056800FE6EFF6AFA50120001C03FF002C040F070
:10057800416A426A26EE00F046C0DFFF26EE01F02F
:1005880045C0DFFF26EE02F044C0DFFF26EE03F091
:1005980043C0DFFF26EE04F042C0DFFF26EE05F081
:1005A80041C0DFFF26EE06F040C0DFFF26EE07F071
:1005B8003FC0DFFF000E00018B6F080E8A6F000E30
:1005C800026E080E016E5AEC2BF0FD0E00019F6FB3
:1005D80012009905D8A402D09F691200000E8B6FF3
:1005E800120E8A6F000E026E120E016E5AEC2BF07C
:1005F800000E476E110E476401D014D04750010D0C
:100608001F0EF324D96E010EF420DA6E4750010D47
:10061800000EF324E16E060EF420E26EDFCFE7FF52
:10062800472AE8D7FD0E00019F6F1200030EE8CF9E
:1006380000F6000EE8CF01F6F2C101F0F3C102F0B6
:1006480001D80AD00500FA6E0101EE51FD6EEF5196
:10065800FE6EFF6AFA5012000009D8A404D0000EFA
:100668003D6E000E03D0000E3D6E800E3C6E26EEF1
:1006780002F03CC0DFFF000EE8CF03F6000E0001D9
:100688008B6F040E8A6F000E026E040E016E5AEC18
:100698002BF0FD0E00019F6F120001012151F00B9C
:1006A8000509216F200E2B6F000E2C6F010E0D0116
:1006B8008C6F000E886F000E896F000E8A6F000E17
:1006C8008B6F00019F691200000E0B6E000E0C6EFE
:1006D800000E0D6E000E0E6EA4EC21F00009D8A4D9
:1006E8001200010121510F0B060AD8A407D00D01F1
:1006F8008C05D8A403D000019F691200E4EC30F007
:10070800000E0D01886F000E896F000E8A6F000EB3
:100718008B6F00019F691200000E0D01886F000E9B
:10072800896F000E8A6F000E8B6F00019F6912009F
:100738008C518D11D8B406D08CC0D9FF8DC0DAFF8A
:10074800DFBE120001010B510A11091104E1400E2C
:10075800085DD8A009D0400E3E6E400E085F000E1E
:10076800095B0A5B0B5B0AD008C13EF0000E086FFC
:10077800000E096F000E0A6F000E0B6F3E503A6EA6
:100788003B6A3A5000018A5D3B508B59D8A005D08E
:100798003E508A5F000E8B5B1AD0000E476E13D056
:1007A8008A518B11D8B404D08A07D8A08B070AD0F5
:1007B8004750010D000EF324D96E060EF420DA6EB0
:1007C800000EDF6E472A3E50475CD8A0E9D7010EDD
:1007D800016E000E026E060E036E3EC004F0020E9D
:1007E800C4EC1EF001C08CF002C08DF0010108516C
:1007F80009110A110B11D8A4120000019F691200F7
:100808007F0E41EC1EF0120000019F51000AD8B47F
:100818005BD7030AD8B4DDD6110AD8B44CD6080A77
:10082800D8B404D7010AD8B477D7050AD8B435D7CD
:100838003B0AD8B471D60D0AD8B42DD6020AD8B45A
:1008480032D6050AD8B468D7D20AD8B471D7030A01
:10085800D7D7000E0001FE6F000EFD6F000EF26F7D
:10086800000EF36F000EF46F000EF56F82518311C6
:1008780084118511D8A410D0D20E306E000E316EBE
:10088800FF51D5EC2EF0ECC0B0F0EDC0B1F0000E89
:100898000001AF6F000EAE6F82C0C4F083C0C5F018
:1008A80084C0C6F085C0C7F00001C41FC51FC61F9D
:1008B800C71FC42B000EC523C623C7237E51C425DA
:1008C800C86F7F51C521C96F8051C621CA6F815138
:1008D800C721CB6FCB51CA11C91104E1320EC85DD3
:1008E800D8A01FD082C042F083C043F084C044F037
:1008F80085C045F0320E466E000E476E000E486EFB
:10090800000E496E800E4A6E020E4B6EB00E4C6E93
:10091800000E4D6EAE0E4E6E000E4F6E0BEC0EF0CE
:1009280034D082C042F083C043F084C044F085C014
:1009380045F082C0C4F083C0C5F084C0C6F085C04D
:10094800C7F00001C41FC51FC61FC71FC42B000E58
:10095800C523C623C7237E51C425466E7F51C521B2
:10096800476E8051C621486E8151C721496E800E5D
:100978004A6E020E4B6EB00E4C6E000E4D6EAE0EF1
:100988004E6E000E4F6E0BEC0EF0800E0C6E020ECB
:100998000D6E000E0E6E000E0F6E000E106E000E25
:1009A800116EC60E126E010E136E10EC00F00CC024
:1009B800F2F00DC0F3F00EC0F4F00FC0F5F0010135
:1009C800634B642BF10E0001F25DFF0EF359FF0E2D
:1009D800F459FF0EF559D8A005D0500E646F500E8B
:1009E800656F1200F2518227F3518323F451842357
:1009F800F5518523FCD00101CB51396F3A6B3B6B24
:100A08003C6B3BC13CF13AC13BF139C13AF1396B1E
:100A1800CC5139133BC13CF13AC13BF139C13AF1F0
:100A2800396B3BC13CF13AC13BF139C13AF1396B01
:100A380033D794C0FAF0000E0001946F0101C85139
:100A480039250001F66F0101C9513A210001F76FFC
:100A5800000E01013B210001F86F000E01013C214D
:100A68000001F96FFA51F625016E000EF721026EAA
:100A7800000EF821036E000EF921046E28EC38F000
:100A880001C0CEF002C0CFF00001FA51F625016E88
:100A9800000EF721026E000EF821036E000EF921F8
:100AA800046EFA5100080101C625056EB2EC24F067
:100AB8000009D8A4F1D60001FD51FE11D8A410D028
:100AC800CEC0FDF0CFC0FEF0FDC016F0FEC017F09E
:100AD800E3EC34F0CFEC38F001C0CCF002C0CDF03C
:100AE800FAC0FBF00001FC6B5DD0FB51F625016EEE
:100AF800FC51F721026E000EF821036E000EF92159
:100B0800046E28EC38F00001FD5101182AE1FE516D
:100B18000218D8A426D0FB51F625096EFC51F721FE
:100B28000A6E000EF8210B6E000EF9210C6EFDC046
:100B38000DF0FEC00EF015EC31F009C0D0F00AC07F
:100B4800D1F0CB0E0001FB25D96E010EFC21DA6E27
:100B5800D051CC25E16ED151CD21E26EDFCFE7FF38
:100B68001ED0F251825FF351835BF451845BF551DF
:100B7800855B01016307D8A06407FBC094F0FDC042
:100B880009F0FEC00AF07DEC2FF0FDC009F0FEC0B0
:100B98000AF017EC27F001015F4B602B12000001EF
:100BA800FB4BFC2B0101C6510001FB5D0101C75144
:100BB8000001FC59D8B070D698D70001FD51FE113C
:100BC800D8B41200FDC009F0FEC00AF07DEC2FF089
:100BD800FDC009F0FEC00AF017EC27F001015F4BD9
:100BE800602B700E0001646F700E656F12000101BA
:100BF800CA51000AD8B41DD7010AD8B4DED7050AED
:100C0800D8B4F9D649D6000E0001ED6F000EEE6F8C
:100C1800000EEF6F000EF06F825183118411851161
:100C2800D8A410D0CC0E306E000E316EFF51D5EC2A
:100C38002EF0E6C0B0F0E7C0B1F0000E0001AF6FD3
:100C4800000EAE6FFF5146EC2FF036C07EF037C075
:100C58007FF038C080F039C081F0000E0001EC6FE1
:100C68000F0EEC6501D0120082C0C4F083C0C5F03D
:100C780084C0C6F085C0C7F0C41FC51FC61FC71FE4
:100C8800C42B000EC523C623C7237E51C425C86FB5
:100C98007F51C521C96F8051C621CA6F8151C721B3
:100CA800CB6FCB51CA11C91104E1320EC85DD8A06F
:100CB8001FD082C042F083C043F084C044F085C096
:100CC80045F0320E466E000E476E000E486E000E5E
:100CD800496E800E4A6E020E4B6EB00E4C6E000EC0
:100CE8004D6EAE0E4E6E000E4F6E0BEC0EF034D005
:100CF80082C042F083C043F084C044F085C045F010
:100D080082C0C4F083C0C5F084C0C6F085C0C7F0F7
:100D18000001C41FC51FC61FC71FC42B000EC52353
:100D2800C623C7237E51C425466E7F51C521476E11
:100D38008051C621486E8151C721496E800E4A6E86
:100D4800020E4B6EB00E4C6E000E4D6EAE0E4E6E19
:100D5800000E4F6E0BEC0EF0800E0C6E020E0D6E38
:100D6800000E0E6E000E0F6E000E106E000E116E4D
:100D7800C60E126E010E136E10EC00F00CC0EDF0F2
:100D88000DC0EEF00EC0EFF00FC0F0F00101634BA4
:100D9800642B040ECA19D8A41CD0CB51396F3A6BF6
:100DA8003B6B3C6B3BC13CF13AC13BF139C13AF179
:100DB800396BCC5139133BC13CF13AC13BF139C1D4
:100DC8003AF1396B3BC13CF13AC13BF139C13AF1D7
:100DD800396BCA51D8A45DD0C85139250001F16FCB
:100DE8000101C9513A210001F26F000E01013B21B6
:100DF8000001F36F000E01013C210001F46F0101B5
:100E080041510001F15D010142510001F259010116
:100E180043510001F359010144510001F459D8B07C
:100E280008D0F1C041F1F2C042F1F3C043F1F4C07F
:100E380044F1F15101013D5D0001F25101013E59BA
:100E48000001F35101013F590001F45101014059DA
:100E5800D8B008D0F1C03DF1F2C03EF1F3C03FF187
:100E6800F4C040F1F1C001F0F2C002F0F3C003F0A9
:100E7800F4C004F0C6C105F0B2EC24F0FF0AD8A40F
:100E880008D00B0E0001956F500E646F500E656F01
:100E980012000001ED51EE11EF11F011D8A427D086
:100EA80063C161F164C162F1000E0101646F000E5B
:100EB800636F000E0001826F000E836F000E846F57
:100EC800000E856F000E0101396F000E3A6F000E9B
:100ED8003B6F000E3C6F000E606F000E5F6F000EE0
:100EE8000001946F400E646F400E656F1200F10EA2
:100EF800ED5DFF0EEE59FF0EEF59FF0EF059D8A029
:100F080007D0ED510F0B956F500E646F500EEDD753
:100F1800ED518227EE518323EF518423F05185232D
:100F2800EC2B9ED6000E1D6E17D01D50010D980E8D
:100F3800F324F66E8D0EF420F76EF86A000EF82290
:100F48001D50010D760EF324D96E010EF420DA6ED1
:100F58000800F5CFDFFF1D2A1D50010D980EF32460
:100F6800F66E8D0EF420F76EF86A000EF82208006F
:100F7800F5500009D8A4D9D7000E1D6E17D01D5002
:100F8800010DE20EF324F66E8C0EF420F76EF86A6B
:100F9800000EF8221D50010D8A0EF324D96E010EA1
:100FA800F420DA6E0800F5CFDFFF1D2A1D50010D71
:100FB800E20EF324F66E8C0EF420F76EF86A000E3B
:100FC800F8220800F5500009D8A4D9D7000E1D6EE4
:100FD800D6D01D50010DAA0EF324F66E8C0EF42007
:100FE800F76EF86A000EF8221D50010D9E0EF324CC
:100FF800D96E010EF420DA6E0800F5CFDFFF1D2A46
:101008001D50010DAA0EF324F66E8C0EF420F76E17
:10101800F86A000EF8220800F5500009D8B4C0D0CC
:10102800D8D71D50010DF80EF324F66E8D0EF4205E
:10103800F76EF86A000EF8221D50010D9E0EF3247B
:10104800D96E010EF420DA6E0800F5CFDFFF1D2AF5
:101058001D50010DF80EF324F66E8D0EF420F76E78
:10106800F86A000EF8220800F5500009D8B498D0A4
:10107800D8D71D50010D070EF324F66E8E0EF420FE
:10108800F76EF86A000EF8221D50010D9E0EF3242B
:10109800D96E010EF420DA6E0800F5CFDFFF1D2AA5
:1010A8001D50010D070EF324F66E8E0EF420F76E18
:1010B800F86A000EF8220800F5500009D8B470D07C
:1010C800D8D71D50010D250EF324F66E8E0EF42090
:1010D800F76EF86A000EF8221D50010D9E0EF324DB
:1010E800D96E010EF420DA6E0800F5CFDFFF1D2A55
:1010F8001D50010D250EF324F66E8E0EF420F76EAA
:10110800F86A000EF8220800F5500009D8B448D053
:10111800D8D71D50010D820EF324F66E8C0EF420E4
:10112800F76EF86A000EF8221D50010D9E0EF3248A
:10113800D96E010EF420DA6E0800F5CFDFFF1D2A04
:101148001D50010D820EF324F66E8C0EF420F76EFE
:10115800F86A000EF8220800F5500009D8A4D9D77B
:10116800F2EC38F001C00EF002C00FF0106A116AFC
:10117800C00E126E010E136EBDEC17F011D025ECE7
:1011880039F00B0AD8B4DCD7070AD8B4B1D7010AAA
:10119800D8B486D7030AD8B45BD7010AD8B430D7F5
:1011A800000E1D6E17D01D50010D690EF324F66E4A
:1011B8008E0EF420F76EF86A000EF8221D50010D0D
:1011C800B20EF324D96E010EF420DA6E0800F5CFC2
:1011D800DFFF1D2A1D50010D690EF324F66E8E0ED9
:1011E800F420F76EF86A000EF8220800F55000099E
:1011F800D8A4D9D7F7EC38F001C019F002C01AF01A
:101208001D50010DB20EF3241B6E010EF4201C6E4E
:10121800CDEC27F0120046D111C189F012C188F037
:1012280013C187F014C186F016C18BF017C18AF07C
:101238008A51306E8B51316E326A336A090ED890FA
:101248003036313632363336E82EF9D730C00BF027
:1012580031C00CF032C00DF033C00EF0A4EC21F018
:101268000009D8A431D1F2C101F0F3C102F001D8CC
:101278000AD00500FA6E0101EE51FD6EEF51FE6EC7
:10128800FF6AFA5012000009D8B416D0010E0D01F9
:101298008C6F01012151F00B0709216F270E2B6F6D
:1012A800000E2C6F000E016E020E3AEC1DF0000EBF
:1012B80000019D6F9D511200010E0001A06F8A511F
:1012C8008B11D8A402D0000E56D0030E9D6F000ECD
:1012D8000101716F060E726F000E0D01886F020E0C
:1012E800896F000E8A6F000E8B6F0D01885189116E
:1012F8008A118B11D8B41ED000018E518F11D8B429
:1013080006D08EC0D9FF8FC0DAFFDFBEDDD0000E59
:10131800016E71C102F072C103F0400E046E020E3C
:10132800C4EC1EF001C08EF002C08FF0040E000164
:101338009D6F23D0F2C101F0F3C102F001D80AD0A9
:101348000500FA6E0101EE51FD6EEF51FE6EFF6A67
:10135800FA5012000009D8B40CD0010E0D018C6FA0
:1013680001012151F00B0209216F270E2B6F000E8E
:101378002C6F020E95D09D6FA7D08E518F11D8B4C7
:1013880006D08EC0D9FF8FC0DAFFDFBE9DD020EE19
:1013980001F08E51D9268F51DA22DF50306E30C0DD
:1013A80031F0326A336A346A31500101085F3250D1
:1013B800095B33500A5B34500B5B000120EE01F0EF
:1013C8008E51D9268F51DA22DF50306E30C031F07D
:1013D800326A336A346A31500D01885F3250895B52
:1013E80033508A5B34508B5B400E01017127000E2D
:1013F8007223030E55D00D018C51D8A43CD0F2C1F4
:1014080025F0F3C126F086C027F087C028F088C0F1
:1014180029F089C02AF0000E2B6E060E2C6E0001F2
:101428008651871188118911D8A402D0010E01D0E4
:10143800000E2D6E01D80AD00500FA6E0101F05198
:10144800FD6EF151FE6EFF6AFA501200E806D8B43C
:1014580012D0640E00019C6102D09C2B35D0010E85
:101468000D018C6F01012151F00B0309216F000E52
:101478002B6F000E2C6F010E00018627000E8723AC
:10148800882389238A07D8A08B07010E74D7020EF8
:101498000D018C6F000E016E020E3AEC1DF0000E6D
:1014A800000169D700019D51000AD8B4B5D6010AD8
:1014B800D8B405D7030AD8B49ED7010AD8B415D72B
:1014C800070AD8B45AD7E3D700019D5112000D017D
:1014D8003205D8A411D030511F0B0009D8A40CD064
:1014E80000016F8F030E0D013119D8A402D0010E2F
:1014F80001D0000E0001AB6F0D013251D8A41200CB
:1015080030511F0B020AD8A4120034510F0B0009E6
:10151800D8B4120034510F0B186E030E1860120065
:10152800200E5F18D8A4120000016F8F0D0134BF80
:1015380019D034510F0B186E1850020D780EF32481
:10154800D96E000EF420DA6EDECF1CF0DDCF1DF070
:1015580034510F0B186E1850010D570EF324D96E25
:10156800010E18D034510F0B186E1850020D720E60
:10157800F324D96E000EF420DA6EDECF1CF0DDCF36
:101588001DF034510F0B186E1850010D5A0EF3242C
:10159800D96E010EF420DA6EDF501B6E1BB006D038
:1015A800FB0E1C141C6EFF0E1D1404D0040E1C1020
:1015B8001C6E1D501D6E34BF0AD034510F0B186EAF
:1015C8001850020D780EF324D96E000E09D034514C
:1015D8000F0B186E1850020D720EF324D96E000E00
:1015E800F420DA6E1CC0DEFF1DC0DDFF030E3119CA
:1015F800D8A42DD01CC0D9FF1DC0DAFFDFAE1AD089
:1016080034BF0AD034510F0B186E1850010D570E05
:10161800F324D96E010E0AD00D0134510F0B186E48
:101628001850010D5A0EF324D96E010EF420DA6E0B
:101638000101DF821CC0D9FF1DC0DAFF000EDB8468
:101648001CC0D9FF1DC0DAFF000EDB8E1200040E8D
:101658001C181C6E1D501D6E1CC0D9FF1DC0DAFF62
:10166800DFAE1BD01CC0D9FF1DC0DAFF7F0EDF160E
:101678001CC0D9FF1DC0DAFF000EDB8C000E116EF6
:10168800050E106E1CC012F01DC013F0000E156E72
:10169800020E146E5AEC2DF006D01CC0D9FF1DC0E6
:1016A800DAFF000EDB8C040E1C181C6E1D501D6E1C
:1016B8001BB206D01CC0D9FF1DC0DAFFDFAE30D088
:1016C8000D0134BF0AD034510F0B186E1850010D9C
:1016D800570EF324D96E010E0AD00D0134510F0BA9
:1016E800186E1850010D5A0EF324D96E010EF4200D
:1016F800DA6E0101DF921CC0D9FF1DC0DAFF3B0E74
:10170800DF16000E116E050E106E1CC012F01DC003
:1017180013F0000E156E020E146E5AEC2DF006D062
:101728001CC0D9FF1DC0DAFF3B0EDF160D01345176
:101738000F0B186E1850010D260EF324196E0F0E9C
:10174800F4201A6E19C0D9FF1AC0DAFFFE0EDF1690
:10175800120091D0EB0E12003C0E1200900E1200F7
:10176800F10EF66E8F0EF76E000EF86E0800F5504B
:101778001200F20EF66E8F0EF76EF86A0800F5503A
:101788001200F30EF66E8F0EF76EF86A0800F55029
:101798001200F40EF66E8F0EF76EF86A0800F55018
:1017A8001200F50EF66E8F0EF76EF86A0800F55007
:1017B8001200F60EF66E8F0EF76EF86A0800F550F6
:1017C8001200F70EF66E8F0EF76EF86A0800F550E5
:1017D8001200F80EF66E8F0EF76EF86A0800F550D4
:1017E8001200000E1200020E1200010E1200010E6D
:1017F8001200000E1200010E1200400E1200000E20
:101808001200FF0E12001F0E1200F80E1200200E1A
:101818001200000E12003F0E1200000E1200100EF1
:101828001200000E1200000E1200000E1200000E30
:101838001200000E1200010E1200000E1200220EFD
:101848001200000E1200000E1200460E1200410E89
:101858001200540E1200310E1200360E1200200E25
:101868001200200E1200200E1200550E1200AA0EB1
:101878001200000E120001C003F002C004F0045070
:10188800000AD8B404D0010AD8B48DD0F2D70350D6
:10189800000AD8B45FD7010AD8B45ED7030AD8B40F
:1018A8005DD7010AD8B45CD7070AD8B462D7010A51
:1018B800D8B467D7030AD8B46CD7010AD8B471D79B
:1018C8000F0AD8B476D7010AD8B47BD7030AD8B49C
:1018D80080D7010AD8B485D7070AD8B484D7010AB3
:1018E800D8B483D7030AD8B482D7010AD8B481D729
:1018F8001F0AD8B480D7010AD8B47FD7030AD8B44E
:101908007ED7010AD8B47DD7070AD8B47CD7010A94
:10191800D8B47BD7030AD8B47AD7010AD8B479D710
:101928000F0AD8B478D7010AD8B477D7030AD8B43D
:1019380076D7010AD8B475D7070AD8B474D7010A7C
:10194800D8B473D7030AD8B472D7010AD8B471D7F8
:10195800370AD8B470D7010AD8B46FD7050AD8B4F3
:101968006ED7010AD8B46DD7030AD8B46CD7010A68
:10197800D8B469D7190AD8B468D7010AD8B467D7D0
:101988000F0AD8B466D7010AD8B465D7030AD8B401
:1019980064D7010AD8B463D7070AD8B462D7010A52
:1019A800D8B461D766D70350FE0AD8B45ED7010A07
:1019B800D8B45DD75ED7200E5F18D8A4120018D10E
:1019C80000018E518F11D8B406D08EC0D9FF8FC0B8
:1019D800DAFFDFBE1200000E526E1E0E526401D0F6
:1019E80014D05250010D400EF324D96E0D0EF42080
:1019F800DA6E5250010D000EF324E16E010EF42050
:101A0800E26EDFCFE7FF522AE8D7000120EE01F0AF
:101A18008E51D9268F51DA221F0EDE18D8A472D023
:101A2800550E010100196EE1530E01196BE1420ECA
:101A3800021968E1430E0319D8A464D0010E00010D
:101A4800986F01010D51D8A452D0110E0E614FD0DC
:101A58000E51D8B44CD00CC14DF03F0E4D16D8A441
:101A680046D0550E0D01806F530E816F420E826F66
:101A7800530E836F04C184FD05C185FD06C186FD33
:101A880007C187FD000E886F000E896F000E8A6FF0
:101A9800000E8B6F000E8C6F00019F69000E9E6F09
:101AA800000E9D6F000E9C6F030E01010F19D8B434
:101AB80008D02191219321952197000E2B6F000EBC
:101AC8002C6F0CAF02D0010E01D0020E0001A06FE6
:101AD8000101085109110A110B11D8B402D0000EE6
:101AE80001D0010E0001996F0FC19FF01200010E85
:101AF800016E020E3AEC1DF0000E016E020E3AEC79
:101B08001DF01200010E016E020E3AEC1DF0000EDF
:101B1800016E020E3AEC1DF0000E0001986F1200E3
:101B2800B1EC1CF0FF0AD8A41200030E0001A06F4C
:101B38001200B1EC1CF0FF0AD8A412000D018C5160
:101B4800D8A408D0885189118A118B11D8B402D031
:101B5800020E8C6F030E0001A06F120076C04EF0CB
:101B680077C04FF04E504F10D8B40AD076C050F01E
:101B780077C051F050C0D9FF51C0DAFFDFBE120064
:101B8800010E016E800E026E0D0E036E0D0E046EB8
:101B9800020EC4EC1EF001C08CF002C08DF00001F2
:101BA8008E518F11D8B406D08EC0D9FF8FC0DAFFFE
:101BB800DFBE0FD0000E016E400E026E0D0E036EDA
:101BC800400E046E020EC4EC1EF001C08EF002C07E
:101BD8008FF0000E0001A06F1200000EA06F020E21
:101BE8000D018C6F000E016E020E3AEC1DF0120012
:101BF8000001A051000AD8B4E3D6010AD8B490D79E
:101C0800030AD8B496D7010AD8B4A8D7E6D742C0F1
:101C180050F043C051F044C052F045C053F00A0E92
:101C280005D0D8905332523251325032E82EF9D77B
:101C380050C0BCF051C0BDF04EC0D9FF4FC0DAFF54
:101C4800DE500001BC5DDE50BD59D8B002D0FF0E99
:101C580012004CC0D9FF4DC0DAFFDECF38F0DDCF1F
:101C680039F04EC0D9FF4FC0DAFFDECF50F0DDCFDC
:101C780051F0501E511E504A512ABC5150243A6E00
:101C8800BD5151203B6EBCEC2AF04CC0D9FF4DC071
:101C9800DAFF38C0DEFF39C0DDFF4EC0D9FF4FC0C4
:101CA800DAFFBCC0DEFFBDC0DDFF4CC0D9FF4DC0B0
:101CB800DAFFDECFB8F0DDCFB9F0BCC050F0BDC060
:101CC80051F0090ED89050365136E82EFBD750C047
:101CD800C0F051C0C1F00001C26BC36BC0C050F06E
:101CE800C1C051F0501E511E504A512A4250502432
:101CF800BA6F43505120BB6F000EC06F000EC16F0A
:101D0800000EC26F000EC36F89D0020EBB19BA1144
:101D1800D8A40FD0B8C030F0B9C031F025EC32F0FB
:101D280030C0B8F031C0B9F0000E0001BB6F000E32
:101D3800BA6FB8C001F0B9C002F0C8EC38F001C001
:101D4800B6F002C0B7F0BAC050F0BBC051F0501E98
:101D5800511E504A512A000E50240001BE6F020E37
:101D68005120BF6FBE51506EBF51516E526A536AB7
:101D7800C0C054F0C1C055F0C2C056F0C3C057F03F
:101D8800541E551E561E571E542A000E5522562202
:101D9800572246505424586E47505520596E485083
:101DA80056205A6E495057205B6E5050585C51501F
:101DB800595852505A5853505B58D8B00ED0C0C0DA
:101DC80050F0C1C051F0501E511E504A512A465081
:101DD8005024BE6F47505120BF6FB6C028F0B7C01F
:101DE80029F0BAC02AF0BBC02BF0BEC02CF0BFC08F
:101DF8002DF0C0514A242E6EC1514B202F6E3CEC61
:101E080037F00001BE51C027BF51C123000EC223C5
:101E1800000EC323BE51BA27BF51BB234650C05D35
:101E28004750C1594850C2594950C359D8A06DD7D5
:101E3800000E1200000E266E000E256E020E265CA5
:101E4800D8B010D0C40E2524D96E020E2620DA6E22
:101E580025C001F026C002F089EC25F0DF6E254A86
:101E6800262AECD7000E216E000E206EC40E226EBC
:101E7800020E236EC9EC33F0000E266E000E256E9E
:101E8800020E265CD8B010D0C40E2524D96E020EDE
:101E98002620DA6E25C001F026C002F0ADEC0BF06A
:101EA800DF6E254A262AECD7000E216E010E206E21
:101EB800C40E226E020E236EC9EC33F0000E266E9D
:101EC800000E256E020E265CD8B010D0C40E252454
:101ED800D96E020E2620DA6E25C001F026C002F067
:101EE800D1EC32F0DF6E254A262AECD7000E216E9F
:101EF800020E206EC40E226E020E236EC9EC33F061
:101F0800000E266E000E256E020E265CD8B00BD091
:101F1800C40E2524D96E020E2620DA6E000EDF6E5E
:101F2800254A262AF1D7000E266E030E256E265066
:101F380011E1220E255CD8B00DD025C020F026C0B6
:101F480021F0C40E226E020E236EC9EC33F0254A2E
:101F5800262AEDD7000E266E000E256E020E265C90
:101F6800D8B010D0C40E2524D96E020E2620DA6E01
:101F780025C001F026C002F0C2EC14F0DF6E254A3D
:101F8800262AECD7000E216E220E206EC40E226E79
:101F9800020E236EC9EC33F0000E266E000E256E7D
:101FA800020E265CD8B00BD0C40E2524D96E020EC2
:101FB8002620DA6E000EDF6E254A262AF1D7000E9B
:101FC800266E230E256E265011E1260E255CD8B00C
:101FD8000DD025C020F026C021F0C40E226E020EBE
:101FE800236EC9EC33F0254A262AEDD7000E266E5B
:101FF800000E256E020E265CD8B010D0C40E252423
:10200800D96E020E2620DA6E25C001F026C002F035
:1020180028EC37F0DF6E254A262AECD7000E216E11
:10202800260E206EC40E226E020E236EC9EC33F00B
:10203800000E120005C0D9FF06C0DAFF130EDF6ECE
:1020480020EE01F00550D9260650DA224B0EDF6E3D
:1020580020EE02F00550D9260650DA22160EDF6E61
:10206800A0EC38F001C00CF002C00DF003C00EF077
:1020780004C00FF020EE03F00550D9260650DA22EE
:102088000F50DF6E20EE04F00550D9260650DA22F4
:102098000EC0DFFF20EE05F00550D9260650DA22E3
:1020A8000D50DF6E20EE06F00550D9260650DA22D4
:1020B8000CC0DFFFF7EC38F001C010F002C011F0DF
:1020C80020EE07F00550D9260650DA221150DF6EAF
:1020D80020EE08F00550D9260650DA2210C0DFFF9E
:1020E80001EC39F001C010F002C011F020EE09F047
:1020F8000550D9260650DA221150DF6E20EE0AF07C
:102108000550D9260650DA2210C0DFFF20EE0BF06A
:102118000550D9260650DA2225EC39F0DF6EFCECA2
:1021280038F001C010F002C011F020EE0CF005509C
:10213800D9260650DA221150DF6E20EE0DF0055038
:10214800D9260650DA2210C0DFFFEDEC38F001C0C6
:1021580010F002C011F020EE0EF00550D9260650FE
:10216800DA221150DF6E20EE0FF00550D926065006
:10217800DA2210C0DFFFF2EC38F001C010F002C024
:1021880011F020EE10F00550D9260650DA22115031
:10219800DF6E20EE11F00550D9260650DA2210C065
:1021A800DFFF20EE12F00550D9260650DA2219EC8E
:1021B80039F0DF6E20EE13F00550D9260650DA22EA
:1021C8001FEC39F0DF6E20EE14F00550D9260650CA
:1021D800DA221CEC39F0DF6EEDEC38F001500A6EB3
:1021E8002B0E0A6402D02B0E0A6E000E0B6E14D052
:1021F8000B5068EC38F0076E0B50086E096A150E24
:102208000826000E092208500524D96E0950062018
:10221800DA6E07C0DFFF0B2A0A500B5CD8B0120039
:10222800E7D7000E196E17D01950010DC80EF32408
:10223800F66E8D0EF420F76EF86A000EF82219502B
:10224800010D760EF324D96E010EF420DA6E080023
:10225800F5CFDFFF192A1950010DC80EF324F66EC9
:102268008D0EF420F76EF86A000EF8220800F5507B
:102278000009D8A4D9D7000E196E17D01950010D2E
:10228800BD0EF324F66E8C0EF420F76EF86A000E7D
:10229800F8221950010D8A0EF324D96E010EF4208C
:1022A800DA6E0800F5CFDFFF192A1950010DBD0EAF
:1022B800F324F66E8C0EF420F76EF86A000EF822FE
:1022C8000800F5500009D8A4D9D7000E196E17D008
:1022D8001950010D960EF324F66E8E0EF420F76E4B
:1022E800F86A000EF8221950010D9E0EF324D96EDB
:1022F800010EF420DA6E0800F5CFDFFF192A195015
:10230800010D960EF324F66E8E0EF420F76EF86A21
:10231800000EF8220800F5500009D8A4D9D719C032
:1023280018F0A0EC38F001C00EF002C00FF003C0A6
:1023380010F004C011F01950010D9E0EF324126E16
:10234800010EF420136EBDEC17F01826000E196E5E
:102358001CD01950010D8F0EF324F66E8E0EF4204A
:10236800F76EF86A000EF822195018C016F0176AAE
:102378001626000E17229E0E1624D96E010E17205F
:10238800DA6E0800F5CFDFFF192A1950010D8F0EFC
:10239800F324F66E8E0EF420F76EF86A000EF8221B
:1023A8000800F5500009D8A4D4D7000E196E17D02C
:1023B8001950010DF40EF324F66E8C0EF420F76E0E
:1023C800F86A000EF8221950010DB20EF324D96EE6
:1023D800010EF420DA6E0800F5CFDFFF192A195034
:1023E800010DF40EF324F66E8C0EF420F76EF86AE5
:1023F800000EF8220800F5500009D8B41200D8D70A
:10240800D7D011C189F012C188F013C187F014C167
:1024180086F016C18BF017C18AF08A51366E8B513F
:10242800376E386A396A090ED890363637363836F4
:102438003936E82EF9D736C00BF037C00CF038C063
:102448000DF039C00EF0A4EC21F00009D8A4C2D0D8
:10245800010E00019E6F8A518B11D8A402D0000E84
:1024680046D08A07D8A08B07020E9E6F8C518D111B
:10247800D8B406D08CC0D9FF8DC0DAFFDFBEAAD091
:10248800F2C12CF0F3C12DF086C02EF087C02FF0DA
:1024980088C030F089C031F0000E326E060E336EFF
:1024A80001D80AD00500FA6E0101EC51FD6EED511C
:1024B800FE6EFF6AFA501200E806D8B41AD0640E0D
:1024C80000019C6102D09C2B85D0020E0D018C6FFF
:1024D80001012151F00B0309216F000E2B6F000E33
:1024E8002C6F010E016E020E3AEC1DF05ED09E6F4D
:1024F80071D0010E00018627000E872388238923C7
:10250800000E0D01886F020E896F000E8A6F000E93
:102518008B6F000E0101716F060E726F030E0001C2
:102528009E6F0D01885189118A118B11D8A402D090
:10253800010E3CD0040E00019E6F8C518D11D8B451
:1025480006D08CC0D9FF8DC0DAFFDFBE43D0010EA4
:10255800016E71C102F072C103F0400E046E020EEA
:10256800C4EC1EF001C08CF002C08DF0030E000117
:102578009E6F400E0101085F000E095B0A5B0B5B52
:10258800400E0D01885F000E895B8A5B8B5B400EF5
:1025980001017127000E72231DD0020E0D018C6FF0
:1025A800010E016E020E3AEC1DF0000E00019FD7DD
:1025B80000019E51000AD8B424D7010AD8B44BD7D9
:1025C800030AD8B453D7010AD8B4ABD7070AD8B48A
:1025D800B4D7E3D700019E511200000E1D6E17D02C
:1025E8001D50010DE80EF324F66E8D0EF420F76EE3
:1025F800F86A000EF8221D50010D760EF324D96EEC
:10260800010EF420DA6E0800F5CFDFFF1D2A1D50F9
:10261800010DE80EF324F66E8D0EF420F76EF86ABD
:10262800000EF8220800F5500009D8A4D9D7000EEA
:102638001D6E17D01D50010D600EF324F66E8E0E20
:10264800F420F76EF86A000EF8221D50010D8A0E6C
:10265800F324D96E010EF420DA6E0800F5CFDFFFFF
:102668001D2A1D50010D600EF324F66E8E0EF42007
:10267800F76EF86A000EF8220800F5500009D8A491
:10268800D9D7000E1A6E000E196E1D50010D8A0E54
:10269800F3241B6E010EF4201C6ECDEC27F01D26D2
:1026A8001D50010D8A0EF324D96E010EF420DA6E46
:1026B8002E0EDF6E1D2A000E1A6E050E196E1D50A5
:1026C800010D8A0EF3241B6E010EF4201C6ECDEC56
:1026D80027F01D261D50010D8A0EF324D96E010E18
:1026E800F420DA6E2E0EDF6E1D2A000E1A6E000E12
:1026F800196E1D50010D8A0EF3241B6E010EF42075
:102708001C6ECDEC27F01D26000E1D6E17D01D5037
:10271800010DA60EF324F66E8E0EF420F76EF86AFD
:10272800000EF8221D50010D9E0EF324D96E010EE5
:10273800F420DA6E0800F5CFDFFF1D2A1D50010DC9
:10274800A60EF324F66E8E0EF420F76EF86A000ECD
:10275800F8220800F5500009D8A4D9D7000E1D6E3C
:1027680017D01D50010D160EF324F66E8E0EF420B0
:10277800F76EF86A000EF8221D50010DB20EF32410
:10278800D96E010EF420DA6E0800F5CFDFFF1D2A9E
:102798001D50010D160EF324F66E8E0EF420F76E02
:1027A800F86A000EF8220800F5500009D8B41200A3
:1027B800D8D7000E1D6E17D01D50010D880EF324BA
:1027C800F66E8D0EF420F76EF86A000EF8221D5092
:1027D800010D760EF324D96E010EF420DA6E08008E
:1027E800F5CFDFFF1D2A1D50010D880EF324F66E6C
:1027F8008D0EF420F76EF86A000EF8220800F550E6
:102808000009D8A4D9D7000E1D6E17D01D50010D90
:10281800D00EF324F66E8C0EF420F76EF86A000ED4
:10282800F8221D50010D8A0EF324D96E010EF420F2
:10283800DA6E0800F5CFDFFF1D2A1D50010DD00EFE
:10284800F324F66E8C0EF420F76EF86A000EF82268
:102858000800F5500009D8A4D9D7000E1D6E17D06E
:102868001D50010D810EF324F66E8E0EF420F76EC6
:10287800F86A000EF8221D50010D9E0EF324D96E41
:10288800010EF420DA6E0800F5CFDFFF1D2A1D5077
:10289800010D810EF324F66E8E0EF420F76EF86AA1
:1028A800000EF8220800F5500009D8A4D9D7F7EC93
:1028B80038F001C019F002C01AF01D50010D9E0E2B
:1028C800F3241B6E010EF4201C6ECDEC27F01D26A0
:1028D8001D50010D9E0EF324D96E010EF420DA6E00
:1028E8002F0EDF6E1D2A01EC39F001C019F002C06D
:1028F8001AF01D50010D9E0EF3241B6E010EF420DC
:102908001C6ECDEC27F0000E1D6E17D01D50010D6A
:10291800780EF324F66E8D0EF420F76EF86A000E2A
:10292800F8221D50010DB20EF324D96E010EF420C9
:10293800DA6E0800F5CFDFFF1D2A1D50010D780E55
:10294800F324F66E8D0EF420F76EF86A000EF82266
:102958000800F5500009D8A4D9D7FCEC38F001C01C
:1029680019F002C01AF01D50010DB20EF3241B6EAF
:10297800010EF4201C6ECDEC27F0120002501DE170
:10298800200E015CD8B019D0025010E10B0E015C8A
:10299800D8B00CD0DC0E0124F66E8F0E0220F76E34
:1029A800F86A000EF8220800F55012000B0E011804
:1029B8000210D8A402D0080E1200025003E1400E03
:1029C800015CD8B0A4D0200E015E000E025A02505D
:1029D80010E1080E015CD8B00CD0E80E0124F66EA8
:1029E8008F0E0220F76EF86A000EF8220800F550E4
:1029F8001200025046E10B0E015CD8B042D0F80E2E
:102A0800036EFF0E046E01C005F002C006F003500D
:102A1800052604500622FA0E0524F66E8F0E0620AF
:102A2800F76EF86A000EF8220800F5501200200E22
:102A38001200060E1200280E1200780E1200DE0E8A
:102A48001200380E12005F0E12004B0E1200000E1C
:102A58001200000E1200040E1200770E1200DE0E95
:102A68001200380E1200020E1200000E12000C0E98
:102A78001200000E1200000E1200000E1200000ECE
:102A8800120001C003F002C004F00450000AD8A4E8
:102A9800F6D703500B0AD8B4CAD7060AD8B4C9D790
:102AA800030AD8B4C8D7010AD8B4C7D71F0AD8B4FC
:102AB800C6D7010AD8B4C5D7030AD8B4C4D7010AFF
:102AC800D8B4C3D7070AD8B4C2D7010AD8B4C1D773
:102AD800030AD8B4C0D7010AD8B4BFD70F0AD8B4EC
:102AE800BED7010AD8B4BDD7030AD8B4BCD7010AE7
:102AF800D8B4BBD7070AD8B4BAD7010AD8B4B9D75B
:102B0800030AD8B4B8D7010AD8B4B7D7B8D7000ED3
:102B18001200000E206E17D02050010DA80EF324CD
:102B2800F66E8D0EF420F76EF86A000EF82220502B
:102B3800010D760EF324D96E010EF420DA6E08002A
:102B4800F5CFDFFF202A2050010DA80EF324F66EE2
:102B58008D0EF420F76EF86A000EF8220800F55082
:102B68000009D8A4D9D7000E206E17D02050010D27
:102B78006D0EF324F66E8C0EF420F76EF86A000ED4
:102B8800F8222050010D8A0EF324D96E010EF4208C
:102B9800DA6E0800F5CFDFFF202A2050010D6D0EF8
:102BA800F324F66E8C0EF420F76EF86A000EF82205
:102BB8000800F5500009D8A4D9D701EC39F001C0B4
:102BC80019F002C01AF09E0E1B6E010E1C6ECDECA1
:102BD80027F01F6E1F2A000E206E1CD02050010DFA
:102BE800710EF324F66E8E0EF420F76EF86A000E5E
:102BF800F82220501FC01DF01E6A1D26000E1E223E
:102C08009E0E1D24D96E010E1E20DA6E0800F5CF27
:102C1800DFFF202A2050010D710EF324F66E8E0E70
:102C2800F420F76EF86A000EF8220800F550000943
:102C3800D8A4D4D7000E206E17D02050010D060E50
:102C4800F324F66E8D0EF420F76EF86A000EF82263
:102C58002050010DB20EF324D96E010EF420DA6E65
:102C68000800F5CFDFFF202A2050010D060EF324BF
:102C7800F66E8D0EF420F76EF86A000EF822080042
:102C8800F5500009D8B41200D8D75F50D8A411D095
:102C9800000E656E000E0F01366F160E396F9F0E0F
:102CA800376F7B0E366F01D0658665A6FDD7010E9E
:102CB8005F6E5F04D8B465BA09D0000E626E000E6C
:102CC8000F01366F36813689020E5F6E62A406D018
:102CD8000F0136A503D06294D8EC35F065A202D076
:102CE800A198120062A008D00F0136A105D0BBEC54
:102CF80019F0040E5F6E629062A804D00F0136B915
:102D08008EEC36F062AC1CD00F0136AD0ED0000E42
:102D1800116E730E106E000E126E000E136E000E02
:102D2800156E010E146E5AEC2DF0629CADEC37F066
:102D38000001A751D8A4A707A751D8B454EC26F08E
:102D480062AA04D00F0136BB9FEC34F062A212D005
:102D58000F0136A30FD07F0E116E1068000E126E91
:102D6800000E136E000E156E010E146E5AEC2DF047
:102D7800000E636E040E5F6002D0A19812000F016E
:102D880036A73CD0000E206E030E206401D036D04A
:102D980062A634D064CFB4F00001B431E832E8322E
:102DA8000F0BA96F6296B4B507D0A951010D570E44
:102DB800F324D96E010E07D00001A951010D5A0E56
:102DC800F324D96E010EF420DA6E0101DF700001E0
:102DD800A951D8A403D025EC28F00ED0000E116E0E
:102DE800720E106EB40E126E000E136E000E156E7B
:102DF800000E146E5AEC2DF0202AC6D7A1981200A6
:102E0800000E1D6E17D01D50010D680EF324F66ECE
:102E18008D0EF420F76EF86A000EF8221D50010D91
:102E2800760EF324D96E010EF420DA6E0800F5CF81
:102E3800DFFF1D2A1D50010D680EF324F66E8D0E5E
:102E4800F420F76EF86A000EF8220800F550000921
:102E5800D8A4D9D7000E1D6E17D01D50010D9D0E98
:102E6800F324F66E8E0EF420F76EF86A000EF82240
:102E78001D50010D8A0EF324D96E010EF420DA6E6E
:102E88000800F5CFDFFF1D2A1D50010D9D0EF3240C
:102E9800F66E8E0EF420F76EF86A000EF82208001F
:102EA800F5500009D8A4D9D7000E1D6E17D01D50B3
:102EB800010D580EF324F66E8D0EF420F76EF86AA5
:102EC800000EF8221D50010D9E0EF324D96E010E3E
:102ED800F420DA6E0800F5CFDFFF1D2A1D50010D22
:102EE800580EF324F66E8D0EF420F76EF86A000E75
:102EF800F8220800F5500009D8A4D9D7FCEC38F01E
:102F080001C019F002C01AF01D50010D9E0EF324E5
:102F18001B6E010EF4201C6ECDEC27F0000E1D6E0A
:102F280017D01D50010D480EF324F66E8D0EF420B7
:102F3800F76EF86A000EF8221D50010DB20EF32448
:102F4800D96E010EF420DA6E0800F5CFDFFF1D2AD6
:102F58001D50010D480EF324F66E8D0EF420F76E09
:102F6800F86A000EF8220800F5500009D8B41200DB
:102F7800D8D7115010100F1006E10A0E0E5CD8B009
:102F880002D0010E59D0115010100F1006E1640E36
:102F98000E5CD8B002D0020E4FD01150101008E1CC
:102FA800E80E0E5C030E0F58D8B002D0030E44D0C2
:102FB8001150101008E1100E0E5C270E0F58D8B0F3
:102FC80002D0040E39D011500AE1A00E0E5C860E14
:102FD8000F58010E1058D8B002D0050E2DD0115040
:102FE8000AE1400E0E5C420E0F580F0E1058D8B072
:102FF80002D0060E21D011500AE1800E0E5C960E0A
:103008000F58980E1058D8B002D0070E15D0E10E00
:103018000F5CF50E1058050E1158D8B002D0080EE6
:103028000BD0CA0E0F5C9A0E10583B0E1158D8B030
:1030380002D0090E01D00A0E156E1504146E14BEC6
:1030480042D01450016E026A01BE0206000E046EE0
:10305800010E036E75EC37F001501224D96E025040
:103068001320DA6E0EC001F00FC002F010C003F09A
:1030780011C004F00A0E056E000E066E000E076EF3
:10308800000E086E4FEC30F00150300FDF6E0EC0AE
:1030980001F00FC002F010C003F011C004F00A0ED6
:1030A800056E000E066E000E076E000E086EDFEC51
:1030B8002DF001C00EF002C00FF003C010F004C0E4
:1030C80011F01406BCD715501200000E016E17D06F
:1030D8000150010D380EF324F66E8D0EF420F76EB4
:1030E800F86A000EF8220150010D760EF324D96E0D
:1030F800010EF420DA6E0800F5CFDFFF012A015037
:10310800010D380EF324F66E8D0EF420F76EF86A72
:10311800000EF8220800F5500009D8A4D9D7000EEF
:10312800016E17D00150010D4D0EF324F66E8E0E70
:10313800F420F76EF86A000EF8220150010D8A0E8D
:10314800F324D96E010EF420DA6E0800F5CFDFFF04
:10315800012A0150010D4D0EF324F66E8E0EF42057
:10316800F76EF86A000EF8220800F5500009D8A496
:10317800D9D7000E016E17D00150010DA50EF3240A
:10318800F66E8E0EF420F76EF86A000EF8220150E3
:10319800010D9E0EF324D96E010EF420DA6E08009C
:1031A800F5CFDFFF012A0150010DA50EF324F66EBD
:1031B8008E0EF420F76EF86A000EF8220800F5501B
:1031C8000009D8A4D9D7000E016E17D00150010DFF
:1031D800280EF324F66E8D0EF420F76EF86A000EB2
:1031E800F8220150010DB20EF324D96E010EF4201D
:1031F800DA6E0800F5CFDFFF012A0150010D280E15
:10320800F324F66E8D0EF420F76EF86A000EF8229D
:103218000800F5500009D8B41200D8D7000E016E86
:1032280017D00150010DD80EF324F66E8D0EF42040
:10323800F76EF86A000EF8220150010D760EF3249D
:10324800D96E010EF420DA6E0800F5CFDFFF012AEF
:103258000150010DD80EF324F66E8D0EF420F76E92
:10326800F86A000EF8220800F5500009D8A4D9D74A
:10327800000E016E17D00150010D170EF324F66EE3
:103288008D0EF420F76EF86A000EF8220150010D39
:103298008A0EF324D96E010EF420DA6E0800F5CFF9
:1032A800DFFF012A0150010D170EF324F66E8D0E73
:1032B800F420F76EF86A000EF8220800F5500009AD
:1032C800D8A4D9D7000E016E17D00150010D960E63
:1032D800F324F66E8C0EF420F76EF86A000EF822CE
:1032E8000150010D9E0EF324D96E010EF420DA6E02
:1032F8000800F5CFDFFF012A0150010D960EF324D7
:10330800F66E8C0EF420F76EF86A000EF8220800AC
:10331800F5500009D8A4D9D7000E016E17D0015076
:10332800010D570EF324F66E8E0EF420F76EF86A30
:10333800000EF8220150010DB20EF324D96E010ED1
:10334800F420DA6E0800F5CFDFFF012A0150010DE5
:10335800570EF324F66E8E0EF420F76EF86A000E00
:10336800F8220800F5500009D8B41200D8D7A09860
:10337800000E636E000E626E000E0F01266F270EA0
:10338800016E0F0E026E000E046E000E036E000E2C
:10339800066E020E056EE9EC36F0160E0F01396F57
:1033A8009F0E376F7B0E366F000E096E0B0E096489
:1033B80001D00ED00950040D000EF324D96E0D0E65
:1033C800F420DA6EDE6ADE6ADE6ADD6A092AEED782
:1033D800658C000E0F01386F6598659C6296000E2B
:1033E80000016F6F000E0101346F000E366F000E82
:1033F800356F62B6F3D7010E0001A56F010EA46FF9
:10340800000EA36F000EA26F000EAA6F000E096EC9
:10341800020E096401D02ED00950020D720EF32459
:10342800D96E000EF420DA6E000EDE6E000EDD6E30
:103438000950020D780EF324D96E000EF420DA6ECE
:10344800000EDE6E000EDD6E0950010D5A0EF324DB
:10345800D96E010EF420DA6E000EDF6E0950010DF0
:10346800570EF324D96E010EF420DA6E000EDF6ECB
:10347800092ACED7080E0001726F0D0E736F160E53
:103488000F01266F0D0E0D01036F300E026F080E2F
:10349800016F040E006F008F000E0001B56F000E63
:1034A80001014D6F000E4E6F000E4F6F000E506FF2
:1034B800000E0001A16F000E5F6E1200800E0D015C
:1034C8003019D8A41200C00E00016F6F88D0A40E66
:1034D80000016C6F8F0E6D6F000E716F120E706FA2
:1034E80012000D013251D8A443D03251020DA30E5F
:1034F800F324F66E8E0EF420F76EF86A000EF822AA
:103508000900F5CF6CF00A00F5CF6DF0020E00014E
:103518006C25016E000E6D21026E01C0F6FF02C01F
:10352800F7FFF86A0E0EF76403D00800F55005D0CF
:10353800F6CFE9FFF7CFEAFFEF500001706F030EF7
:103548006C25016E000E6D21026E01C0F6FF02C0EF
:10355800F7FFF86A0E0EF76403D00800F55005D09F
:10356800F6CFE9FFF7CFEAFFEF500001716F1200C5
:10357800000E00016F6F1200040E0D01326127D09A
:103588003251020D790EF324F66E8E0EF420F76E8A
:10359800F86A000EF8220900F5CF6CF00A00F5CFA2
:1035A8006DF06CC0F6FF6DC0F7FFF86A0E0EF76499
:1035B80003D00800F55005D0F6CFE9FFF7CFEAFFB2
:1035C800EF50016E01500001706F716B1200000E18
:1035D80000016F6F1200000E00016F6F12000D01E5
:1035E8003351010AD8B473D7030AD8B47AD7010A79
:1035F800D8B4C2D7F0D7000E1F6E17D01F50010DD8
:10360800B80EF324F66E8D0EF420F76EF86A000EED
:10361800F8221F50010D760EF324D96E010EF42006
:10362800DA6E0800F5CFDFFF1F2A1F50010DB80E14
:10363800F324F66E8D0EF420F76EF86A000EF82269
:103648000800F5500009D8A4D9D7000E1F6E17D06E
:103658001F50010D400EF324F66E8E0EF420F76E07
:10366800F86A000EF8221F50010D8A0EF324D96E55
:10367800010EF420DA6E0800F5CFDFFF1F2A1F5075
:10368800010D400EF324F66E8E0EF420F76EF86AE4
:10369800000EF8220800F5500009D8A4D9D7000E6A
:1036A8001F6E17D01F50010D880EF324F66E8E0E74
:1036B800F420F76EF86A000EF8221F50010D9E0ED6
:1036C800F324D96E010EF420DA6E0800F5CFDFFF7F
:1036D8001F2A1F50010D880EF324F66E8E0EF4205B
:1036E800F76EF86A000EF8220800F5500009D8A411
:1036F800D9D7F7EC38F001C019F002C01AF01F5002
:103708001D6E1E6A010E1D26000E1E229E0E1D2411
:103718001B6E010E1E201C6ECDEC27F01200000E51
:103728003F6E3F0E3D6E000E3E6E36C0D9FF37C06D
:10373800DAFF7F0EDF6401D0120036C0D9FF37C030
:10374800DAFF200EDE18D8B4120036C0D9FF37C011
:10375800DAFFDF50D8A418D039C0D9FF3AC0DAFF51
:10376800000EDF6E20EE01F03950D9263A50DA22E9
:103778004B0EDF6E20EE02F03950D9263A50DA228D
:10378800160EDF6E030E3F6E010E406E55D0405090
:10379800010DF3503624D96EF4503720DA6E990EA5
:1037A800DE18D8B412002DD04050010DF350362445
:1037B800D96EF4503720DA6EDF5085EC2CF00BD040
:1037C8004050010DF3503624D96EF4503720DA6E8C
:1037D800DF5085EC2CF0402A2FD04050010DF350DB
:1037E80036242F6EF4503720306E39C031F03AC08D
:1037F80032F03DC033F03EC034F09FEC35F0402647
:103808001BD04050010DF3503624D96EF4503720A8
:10381800DA6EDF50F00B3B6E3C6A3C50000AD8A4CD
:1038280012003B50200AD8B4BFD7100AD8B4C8D762
:10383800600AD8A41200D1D73850405CD8B0120022
:10384800A6D7000120EE01F09251D9269351DA2231
:10385800DF50026E02500101355D000E3659D8A0C6
:1038680035C102F00250355F000E365B000E016E66
:1038780011D00150010D380EF324D96E0D0EF4202D
:10388800DA6E31C1E1FF32C1E2FFDFCFE7FF314B32
:10389800322B012A0250015CD8A0EBD735513611E2
:1038A800D8B433D0000120EE01F09051D9269151BF
:1038B800DA22080EDF6E20EE02F09051D9269151DF
:1038C800DA22380EDE6E0D0EDD6E92C0D9FF93C07F
:1038D800DAFFDFBC0DD090C0D9FF91C0DAFF480EE7
:1038E800DF6E90C0D9FF91C0DAFF000EDB8E1200A8
:1038F80090C0D9FF91C0DAFF080EDF6E90C0D9FFE3
:1039080091C0DAFF000EDB8E1200000120EE01F0FC
:103918009051D9269151DA22080EDF6E20EE02F07E
:103928009051D9269151DA22300EDE6E0D0EDD6EE1
:1039380090C0D9FF91C0DAFF040EDF6E90C0D9FFA6
:1039480091C0DAFF000EDB8E0101349F0001A65101
:10395800D8A4120054EC26F01200F2C101F0F3C111
:1039680002F001D80AD00500FA6E0101EA51FD6E95
:10397800EB51FE6EFF6AFA5012000009D8B40CD061
:1039880001010D51010D9A0EF324D96E000EF42099
:10399800DA6EDE04D8A419D00DC148F0010E496EC4
:1039A800000E4A6E482A03D0D89049364A36482E27
:1039B800FBD7491C4B6E4A1C4C6E4B5001016D17CE
:1039C8004C506E17B3EC30F04ED00DC148F0010EDC
:1039D800496E000E4A6E482A03D0D89049364A36B6
:1039E800482EFBD701016D5149166E514A164950B0
:1039F8004A10D8A436D0F2C101F0F3C102F001D8C0
:103A080009D00500FA6EE451FD6EE551FE6EFF6ABD
:103A1800FA50120001500210D8B420D00DC148F05D
:103A2800010E496E000E4A6E482A03D0D8904936D6
:103A38004A36482EFBD7495001016D134A506E1380
:103A48002151F00B0609216F280E2B6F000E2C6FE9
:103A5800010E0D018C6F4EEC02F005D0B3EC30F086
:103A680002D04EEC02F000019F511200066E065083
:103A7800D8A42CD0000120EE01F09051D926915104
:103A8800DA22080EDF6E20EE02F09051D92691510D
:103A9800DA22300EDE6E0D0EDD6E90C0D9FF91C0B9
:103AA800DAFF0C0EDF6E90C0D9FF91C0DAFF000E6E
:103AB800DB8E72C0D9FF73C0DAFF040EDF6E72C0EE
:103AC800D9FF73C0DAFF000EDB8E12000150026EC0
:103AD800036AD890023603360650046E056AD890F9
:103AE80004360536D89004360536025004260350AD
:103AF8000522D89004360536D89004360536000ECF
:103B08000424076E0D0E0520086E07C0D9FF08C0F3
:103B1800DAFF000EDB8407C0D9FF08C0DAFF000E09
:103B2800DB8E0650040DF3CF02F0F4CF03F0015002
:103B3800020DF3500226F4500322D89002360336C1
:103B4800D89002360336040E0226000E0322000E19
:103B58000224076E0D0E0320086E07C0D9FF08C0A7
:103B6800DAFF000EDB8407C0D9FF08C0DAFF000EB9
:103B7800DB8E1200000E016E400E026E0D0E036EFB
:103B8800400E046E020EC4EC1EF001C08EF002C09E
:103B98008FF076C08CF077C08DF0000E0001A06F1A
:103BA8009F69000E9E6F000E9D6F000E996F000EAC
:103BB8000101496F000E4A6F000E4B6F000E4C6FEB
:103BC800000E456F000E466F000E476F000E486FDF
:103BD800010E0001986F000E01016E6F000E6D6FEF
:103BE800000E0D6F46D00D51010D9A0EF324D96EBB
:103BF800000EF420DA6E000EDF6EF2C101F0F3C1A0
:103C080002F001D809D00500FA6EEA51FD6EEB51B9
:103C1800FE6EFF6AFA5012000009D8B426D0F2C12D
:103C280001F0F3C102F001D80AD00500FA6E0101D3
:103C3800E451FD6EE551FE6EFF6AFA501200015024
:103C48000210D8B412D00DC10CF0010E0D6E000E8A
:103C58000E6E0C2A03D0D8900D360E360C2EFBD7DC
:103C68000D5001016D130E506E13E4EC30F001019C
:103C78000D2B0D51D8A41200B6D7096E00018C5136
:103C88008D11D8B406D08CC0D9FF8DC0DAFFDFBE45
:103C980012008E518F11D8B406D08EC0D9FF8FC0B4
:103CA800DAFFDFBE1200A0C00AF09F69000E9E6F07
:103CB800000E9D6F08C188FD09C189FD0AC18AFDF2
:103CC8000BC18BFD010E0D018C6F030E0001A06F5F
:103CD80043D0020E0D018C6F1200010E016E020E10
:103CE8003AEC1DF01200020E0D018C6F010E016EF0
:103CF800020E3AEC1DF01200000E016E020E3AECB4
:103D08001DF01200020E0D018C6F000E016E020EE6
:103D18003AEC1DF01200E4EC30F001012151F00BF7
:103D28000509216F200E2B6F000E2C6F020E0A184A
:103D3800D8A40CD0085109110A110B11D8B406D017
:103D4800000E016E020E3AEC1DF01200010E016E1B
:103D5800020E3AEC1DF012000950010AD8B4B9D786
:103D6800030AD8B4BAD7010AD8B4BDD7070AD8B459
:103D7800C3D7010AD8B4C6D77A0AD8A41200CBD7B9
:103D8800096E0150D8B407D00950020D720EF32401
:103D9800D96E000E06D00950020D780EF324D96EA4
:103DA800000EF420DA6EDECF0AF0DDCF0BF00A50F9
:103DB8000B10D8A405D0000E016E000E026E120082
:103DC80020EE02F00A50D9260B50DA2202C0DEFF9C
:103DD80003C0DDFF20EE01F00A50D9260B50DA228D
:103DE80004C0DFFF0AC0D9FF0BC0DAFF400EDF16A0
:103DF8000AC0D9FF0BC0DAFF000EDB860AC0D9FF64
:103E08000BC0DAFF000EDB8E0150D8B418D0095071
:103E1800020D720EF324D96E000EF420DA6EDECF96
:103E280005F0DDCF06F0040E0518076E0650086E83
:103E38000950020D720EF324D96E000E17D00950E6
:103E4800020D780EF324D96E000EF420DA6EDECF60
:103E580005F0DDCF06F0040E0518076E0650086E53
:103E68000950020D780EF324D96E000EF420DA6E94
:103E780007C0DEFF08C0DDFF0AC001F00BC002F07A
:103E8800120061D000016151800A7F0FD8A0120092
:103E9800000E616F12006151800A7F0FD8A01200D6
:103EA800000E616F12006151800A7F0FD8A01200C6
:103EB800300E646F300E656F000E616F1200615135
:103EC800800A7F0FD8A01200000E616F12006151A6
:103ED800800A7F0FD8A01200000E616F1200615196
:103EE800800A7F0FD8A01200600E646F600E656FA5
:103EF800000E616F12006151800A7F0FD8A0120076
:103F0800000E616F12006151800A7F0FD8A0120065
:103F1800010E0C6E000E0B6E780E0D6EC1EC34F0B7
:103F28000A0E9BEC37F043EC38F0120000016151A7
:103F3800800A7F0FD8A01200100E646F100E656FF4
:103F4800000E616F120000016551000AD8B49AD7BB
:103F5800100AD8B4A0D7300AD8B4A5D7100AD8B454
:103F6800AED7700AD8B4BBD7100AD8B4B0D7300AC5
:103F7800D8B4C1D7100AD8B4C6D7E00AD8A412005A
:103F8800D5D7659800016FBF3CD0010134AF0DD083
:103F9800020E0001AC6FA251D8B40BEC2BF0000E4E
:103FA8000001A46F000EA56F1200000120EE01F0C1
:103FB8009051D9269151DA22080EDF6E20EE02F0D8
:103FC8009051D9269151DA22300EDE6E0D0EDD6E3B
:103FD80090C0D9FF91C0DAFF0C0EDF6E90C0D9FFF8
:103FE80091C0DAFF000EDB8E72C0D9FF73C0DAFF12
:103FF800040EDF6E72C0D9FF73C0DAFF000EDB8ECD
:1040080012000D0130AF12D0010E0001AC6FA351A8
:10401800D8B40BEC2BF0000E0001A46F000EA56FB6
:10402800A651D8A4120054EC26F01200020E00018A
:10403800AC6F20EE01F09051D9269151DA22080E8A
:10404800DF6E20EE02F09051D9269151DA22300E1F
:10405800DE6E0D0EDD6E90C0D9FF91C0DAFF040E42
:10406800DF6E90C0D9FF91C0DAFF000EDB8E000E24
:10407800A46F000EA56FA651D8A4120054EC26F028
:10408800120067D000016151D8B4120085EC38F0F5
:10409800000E0001616F1200000E0101686F000E32
:1040A800676F020E0001976F12008996000E0101DA
:1040B800686F000E676F030E0001976F1200010111
:1040C800674B682B685104E1040E675DD8A01200A5
:1040D8008986000E686F000E676F040E0001976FE7
:1040E8001200EEEC33F08B82A9EC38F0000E0101DF
:1040F800686F000E676F000E666F000E656F050E25
:104108000001976F12006551D8A40BD00101654BCF
:10411800662BFA0E65196611D8A403D0100E00019B
:10412800656F00016051D8A40CD06151D8A409D0A2
:104138000101672903E16829D8B41200674B682B8D
:104148001200000E0101686F000E676F45EC1FF04A
:10415800120000019751000AD8B494D7010AD8B4C4
:104168009BD7030AD8B4A1D7010AD8B4A8D7070A9D
:10417800D8B4B7D7010AD8A41200C5D70D01303971
:10418800E832030B0009D8A4120047D000016F8F52
:10419800080E5F6E120062EC1AF01200F6EC22F0C4
:1041A8001200B50E00016C6F000E6D6F6F81010E6D
:1041B800706F6F8F12007BEC28F012006BEC0AF026
:1041C80012000D013451010DE20EF32400016C6F51
:1041D800010EF4206D6F6F81010E706F6F8F1200EA
:1041E80000016F8F0D013451010DE20EF324D96ED9
:1041F800010EF420DA6E32CDDFFF1200000E116ED0
:10420800020E106E000E126E000E136E000E156E6A
:10421800000E146E5AEC2DF012000D013151000AF7
:10422800D8B4C9D7010AD8B4C9D7020AD8B4C6D7EE
:10423800060AD8B4ABD7030AD8B4ADD7010AD8B4A4
:10424800DDD70F0AD8B4ADD7010AD8B4A7D7030A67
:10425800D8B4B7D7010AD8B4C3D7070A12000D01DA
:1042680030511F0BE806D8A412003451D8A412000C
:10427800060E3119D8B41AD022D00001B505D8A439
:104288001ED0B90E6C6F8E0E6D6F000E716F090E19
:104298000BD0C00E6F6F13D06D0E00016C6F8F0EB8
:1042A8006D6F000E716F1D0E706FF3D70D013351D6
:1042B800210AD8B4E2D7030AD8B4EED7010A0D010F
:1042C8003039E832030BE806D8A4120024D0B30E24
:1042D80000016C6F000E6D6F000E716F010E706F34
:1042E800C10E6F6F1200800E00016F6F33CDB3F0F7
:1042F8001200B20E00016C6F000E6D6F000E716F30
:10430800010E706F810E6F6F1200800E00016F6FCB
:1043180032CDB2F012000D013151010AD8B41200A9
:10432800030AD8B4D4D7010AD8B4E3D70A0AD8B450
:104338001200030AD8B4D7D7010AD8A41200E5D7C7
:104348000B500C100D100E10D8A402D0010E01D085
:10435800000E116E00019905D8A405D01104D8A447
:1043680002D0000E12000B50010108191AE10C507E
:10437800091917E10D500A1914E10E500B19D8A4A8
:1043880010D00001A005D8A406D02A0E9F19D8B4D1
:1043980008D0000E12002A0E9F19D8A402D0000ED1
:1043A8001200010108510B5C09510C580A510D58B3
:1043B8000B510E58D8B002D0010E01D0000E0F6E6E
:1043C800020E0001A019D8A414D02A0E9F19D8B43F
:1043D80005D01150D8A402D0050E1DD09905D8B427
:1043E8000FD01104D8B403D00F04D8A4F5D7040E05
:1043F80012D02A0E9F19D8B40DD09905D8A402D08E
:10440800010E09D01104D8B403D00F04D8A402D0E7
:10441800020E01D0030E106E105041EC1EF0105029
:10442800120015C0D9FF16C0DAFF100EDF6E20EE9D
:1044380001F01550D9261650DA224B0EDF6E20EE09
:1044480002F01550D9261650DA22160EDF6E20EE2D
:1044580003F01550D9261650DA22E8EC38F0DF6E52
:1044680020EE04F01550D9261650DA22000EDF6E21
:1044780020EE05F01550D9261650DA22050EDF6E0B
:1044880020EE06F01550D9261650DA22000EDF6EFF
:1044980020EE07F01550D9261650DA2222EC39F012
:1044A800DF6E20EE08F01550D9261650DA2260C0CB
:1044B800DFFF20EE09F01550D9261650DA2261C028
:1044C800DFFF20EE0AF01550D9261650DA2262C016
:1044D800DFFF20EE0BF01550D9261650DA2263C004
:1044E800DFFF20EE0CF01550D9261650DA2264C0F2
:1044F800DFFF20EE0DF01550D9261650DA2265C0E0
:10450800DFFF1200000E326E000E346E220E336E84
:10451800345066E1260E335CD8B062D033C028F040
:1045280034C029F0C40E2A6E020E2B6E62EC37F0EE
:10453800000E366E000E356E020E365CD8B04BD0CB
:10454800C40E3524D96E020E3620DA6EDF50D8A498
:1045580002D0FF0E1200C40E3524D96E020E36208A
:10456800DA6EE50EDE18D8B430D02CC001F02DC0BC
:1045780002F0C40E3524036E020E3620046E000EBF
:10458800066E080E056E9DEC2DF001500210D8A4A1
:104598001CD02EC001F02FC002F0080E3524306E5A
:1045A800000E3620316EC40E3024036E020E312008
:1045B800046E000E066E030E056E9DEC2DF0015084
:1045C8000210D8A402D032501200322A200E35260A
:1045D800000E3622B1D7334A342A345001E19AD733
:1045E800FF0E120000016F8F270E016E0F0E026E74
:1045F800000E046E000E036E000E066E020E056EAF
:10460800E9EC36F0000E016E0D0E026E000E046E1F
:10461800000E036E000E066E300E056EE9EC36F0E5
:10462800658C000E186E020E186401D016D0185052
:10463800010D5A0EF324D96E010EF420DA6E000E25
:10464800DF6E1850010D570EF324D96E010EF420B9
:10465800DA6E000EDF6E182AE6D7E20E016E010E42
:10466800026E000E046E000E036E000E066E020E41
:10467800056EE9EC36F0659C080E0001726F0D0EB0
:10468800736F000E926F0D0E936F92C090F093C0EF
:1046980091F032CDB5F0B551D8A403D0100E5F6EAD
:1046A8001200000E116E010E106EB50E126E000E85
:1046B800136E000E156E010E146E5AEC2DF0200EBE
:1046C8005F6E120017C0D9FF18C0DAFFDF501B6EEB
:1046D8007F0E1B6452D019C0D9FF1AC0DAFF990E99
:1046E800DF6E20EE01F01950D9261A50DA22990E01
:1046F800DF6E120019C015F01AC016F015EC22F082
:10470800120019C005F01AC006F0000E076E73EC0F
:1047180027F0120019C005F01AC006F0010E076E46
:1047280073EC27F0120019C005F01AC006F01EEC51
:1047380010F0120019C001F01AC002F017C003F0FF
:1047480018C004F003500410D8A4200E056E000E03
:10475800076E400E066E1CEC30F0120019C0D9FF2F
:104768001AC0DAFF990EDF6E20EE01F01950D92633
:104778001A50DA22990EDF6E12001B50000AD8B4C4
:104788001200100AD8B4B6D7010AD8B4BAD7030AA7
:10479800D8B4C0D7010AD8B4C6D7330AD8B4CAD750
:1047A800DDD7236E12EC34F01ED0F1EC12F04DD0B0
:1047B80012EC19F04AD015EC11F047D0FFEC1AF0C2
:1047C80044D08DEC15F041D096EC07F03ED0DDECEE
:1047D80013F03BD004EC17F038D07BEC32F035D036
:1047E80069EC18F032D02350F00B216E226A225067
:1047F800000AD8A42AD02150000AD8B4D6D7100A63
:10480800D8B4D6D7300AD8B4D6D7100AD8B4D6D7A1
:10481800700AD8B4D6D7100AD8B4D6D7300AD8B4C4
:10482800D6D7100AD8B4D6D7F00AD8B4D6D7100A33
:10483800D8B4D6D70AD02E0E0101876F2E0E0101EB
:10484800866F2E0E0101856F15D000016239E8428E
:10485800070B030B216E226A2250000AD8A40AD043
:104868002150010AD8B4EDD7030AD8B4E7D7010A12
:10487800D8B4E1D7F2AE1200490E0101886F1200D8
:1048880004007CEC38F075EC31F00009D8B404D0A1
:1048980006EC39F016EC39F07DEC34F0000E26EC1D
:1048A80033F0BBEC19F0040049EC16F08EEC38F04C
:1048B8006CEC2AF00FEC36F000016351D8A4F3D762
:1048C80045EC20F025D0000EE8EC2FF043D0010E87
:1048D800E8EC2FF03FD0020EE8EC2FF03BD0030EAF
:1048E800E8EC2FF037D0040EE8EC2FF033D0050EAB
:1048F800E8EC2FF02FD000016551D5EC23F02AD039
:1049080022EC39F0050AD8A425D0B3EC2FF022D038
:1049180000016251070B5D6E5E6A5E50000AD8A402
:1049280019D05D50000AD8B4CED7010AD8B4CFD771
:10493800030AD8B4D0D7010AD8B4D1D7070AD8B453
:10494800D2D7010AD8B4D3D7030AD8B4D4D7010A26
:10495800D8B4D6D7010E0001636FA5D7000E0A6E32
:10496800000E0C6E62D00C500124066E000E022060
:10497800076E000E0320086E000E0420096E095011
:10498800081004E1900E075CD8A018D00C50012440
:10499800066E000E0220076E000E0320086E000E41
:1049A8000420096E09500AE1F80E065CFF0E07584C
:1049B800010E0858D8B002D0000E29D00C5001249E
:1049C800066E000E0220076E000E0320086E000E11
:1049D8000420096E095008E1F80E065CFF0E07581E
:1049E800010E0858D8A015D00C500124066E000EF0
:1049F8000220076E000E0320086E000E0420096EC8
:104A0800095007E1020E085CD8B003D0010E0B6E06
:104A180001D00B680B28D8A402D0FF0E12000B504F
:104A28000A5CD8A00BC00AF00C2A05500C5CD8A070
:104A38009AD70A501200080E016E0001715110E158
:104A4800080E705DD8B00CD070C001F0AD51D8A47C
:104A580002D0010E04D0AD05D8A402D0020EAD6F6D
:104A68000150705F000E715B20EE01F07251D92683
:104A78007351DA2201C0DFFF380E0101736F0D0E8A
:104A8800746F00016FA11DD03CD06CC0F6FF6DC0E3
:104A9800F7FFF86A73C1D9FF74C1DAFF0E0EF76425
:104AA80003D00800F55005D0F6CFE9FFF7CFEAFFAD
:104AB800EF50DF6E00016C4B6D2B0101734B742BB3
:104AC80001060150D8B41200E0D76CC0F6FF6DC0E3
:104AD800F7FFF86A73C1D9FF74C1DAFF0E0EF764E5
:104AE80003D00800F55005D0F6CFE9FFF7CFEAFF6D
:104AF800EF50DF6E00016C4B6D2B0101734B742B73
:104B080001060150D8B41200E0D726D0800E12005A
:104B1800000E1200020E1200000E1200040E120007
:104B2800020E1200030E1200080E1200010E1200EF
:104B3800000E1200000E1200000E1200FF0E1200EE
:104B48001F0E1200000E1200000E1200550E120069
:104B5800AA0E1200000E120001C003F002C004F0F9
:104B68000450010AD8A4F6D70350BE0AD8B4CED749
:104B7800010AD8B4CDD77F0AD8B4CCD7010AD8B4A3
:104B8800CBD7030AD8B4CAD7010AD8B4C9D7070AF9
:104B9800D8B4C8D7010AD8B4C7D7030AD8B4C6D777
:104BA800010AD8B4C5D70F0AD8B4C4D7010AD8B4F3
:104BB800C3D7030AD8B4C2D7010AD8B4C1D7070AE1
:104BC800D8B4C0D7010AD8B4BFD7330AD8B4BED72F
:104BD800010AD8B4BDD7BED772C0D9FF73C0DAFFF7
:104BE8000001000EDFBC010E026E040E7219726F16
:104BF8007351736F080E5F18D8A40CD00D01325191
:104C08007F0B0F01386F3851D8B402D0100E01D085
:104C1800040E5F6E0001AC05D8A43BD020EE02F074
:104C28007251D9267351DA22380EDE6E0D0EDD6E02
:104C38001FEC25F0020E0001AD19D8A40DD072C0EA
:104C4800D9FF73C0DAFF040EDF6E72C0D9FF73C0DC
:104C5800DAFF000EDB8E12000250D8A40DD072C00D
:104C6800D9FF73C0DAFF480EDF6E72C0D9FF73C078
:104C7800DAFF000EDB8E120072C0D9FF73C0DAFFB4
:104C8800080EDF6E72C0D9FF73C0DAFF000EDB8E2C
:104C98001200010134BF349F000E0001AC6F1200F6
:104CA8000001A551D8A41200010EA56FA451D8A4E3
:104CB8001200010EA46F020EAC19D8A415D020EE74
:104CC80001F07251D9267351DA22000EDF6E72C0DC
:104CD800D9FF73C0DAFF480EDF6E72C0D9FF73C008
:104CE800DAFF000EDB8E1200AC05D8A41200000E0D
:104CF800A86F20EE01F09251D9269351DA22080EBE
:104D0800DF6E20EE02F09251D9269351DA22300E4E
:104D1800DE6E0D0EDD6E92C0D9FF93C0DAFF040E71
:104D2800DF6E92C0D9FF93C0DAFF000EDB8E010E52
:104D3800A86F20EE01F09051D9269151DA22080E81
:104D4800DF6E20EE02F09051D9269151DA22300E12
:104D5800DE6E0D0EDD6E90C0D9FF91C0DAFF800EB9
:104D6800DF6E12000D0130511F0BE806D8A41200A7
:104D78003451D8A412004ED032513311D8A41200A5
:104D880036513711D8A41200000E0001A06F9F6998
:104D9800000E9E6F000E9D6F010E986F7CC00CF088
:104DA8007DC00DF00C500D10D8B40AD07CC00EF0A8
:104DB8007DC00FF00EC0D9FF0FC0DAFFDFBE0FD0E5
:104DC800000E016E400E026E0D0E036E400E046E54
:104DD800020EC4EC1EF001C08EF002C08FF0800EEF
:104DE80000016F6F12000D0132513311D8A4120067
:104DF80036053711D8A41200000E386F380E00019E
:104E08006C6F0D0E6D6F000E716F010E706FC10E1D
:104E18006F6F12000D013151FE0AD8B4E4D7010AB0
:104E2800D8A41200A9D709C001F00AC002F0A6EC64
:104E380036F001C013F002C014F003C015F004C02E
:104E480016F013C0F6FF14C0F7FF15C0F8FF165090
:104E5800151004E1900E145CD8A01200FF0E132464
:104E68000B6E030E14200C6E000E15200D6E000E36
:104E780016200E6E0E5032E10B28FF0E0C58010E54
:104E88000D58D8B01200000E106E000E0F6E000EF6
:104E9800116E0F0E116401D01200000E126E3F0E3B
:104EA800126401D00DD0000E0F24D96E080E102008
:104EB800DA6EDF50F56E0D000F4A102A122AEFD76E
:104EC8000A00840EA66EB50E14EC37F0010EF62615
:104ED800000EF722000EF822112ADBD71200075025
:104EE800D8B406D005C0D9FF06C0DAFF120E05D027
:104EF80005C0D9FF06C0DAFF110EDF6E20EE01F003
:104F08000550D9260650DA224B0EDF6E20EE02F04D
:104F18000550D9260650DA22160EDF6E030E0D6EE6
:104F28000750D8B402D0020E01D0000E0F6E0FC089
:104F38000EF01AD0000E106E130E106401D013D0AC
:104F480010C001F00E50FFEC36F0086E0D50010D48
:104F5800F3500524D96EF4500620DA6E08C0DFFF3E
:104F68000D2A102AE9D70E2A0F50086E096A020E78
:104F78000826000E09220E500A6E0B6A08500A5CB9
:104F88000B50800A0C6E0950800A0C58D8B01200D9
:104F9800D1D71BC011F01CC012F019C013F01AC0F1
:104FA80014F0000E166E0A0E156E04EC35F0100E95
:104FB800195C270E1A58D8A00AD020EE05F01B500D
:104FC800D9261C50DA22200EDF6E050E1200E80EDC
:104FD800195C030E1A58D8A00AD020EE04F01B5012
:104FE800D9261C50DA22200EDF6E040E12001A5049
:104FF80004E1640E195CD8A00AD020EE03F01B501F
:10500800D9261C50DA22200EDF6E030E12001A5029
:1050180004E10A0E195CD8A00AD020EE02F01B5059
:10502800D9261C50DA22200EDF6E020E120020EE66
:1050380001F01B50D9261C50DA22200EDF6E010E1B
:1050480012002D0E0001A76FB4C01EF0FD0E1E1633
:10505800D8A444D0B4C01EF0D8901E323F0E1E16FD
:105068001E50040D000EF324926F0D0EF420936F62
:1050780092C090F093C091F0040E9019906F9151E6
:10508800916F92C0D9FF93C0DAFFDF30E8320F0B7F
:105098000D0AD8A420D0300E016E0D0E026E20EE3F
:1050A80002F09251D9269351DA22DECF1EF0DDCFDD
:1050B8001FF01EC003F01FC004F003500410D8A452
:1050C800200E056E000E076E080E066E1CEC30F002
:1050D8003CEC2CF0120045EC31F012000001B45108
:1050E800FD0B040AD8A41200F0EC25F01200000E03
:1050F8000D01386F000E396F39D000016F8F000134
:10510800AB05D8A43ED00D0138833BD000016F8F8A
:1051180038D000016F8F0D0134BF0AD034510F0B06
:10512800016E0150020D780EF324D96E000E09D0DD
:1051380034510F0B016E0150020D720EF324D96E1B
:10514800000EF420DA6EDECF02F0DDCF03F002C0ED
:10515800D9FF03C0DAFFDFAE14D002C0D9FF03C005
:10516800DAFFDFA40ED0010E386F0BD030511F0BC1
:10517800000AD8B4C2D7010AD8B4C8D7030AD8B429
:10518800C8D700016FAF1200380E6C6F0D0E6D6F2F
:105198006F81020E706F120027C0D9FF28C0DAFF96
:1051A800560EDE18D8A414D020EE01F02750D926C8
:1051B8002850DA22DA0EDE18D8A40AD020EE02F03F
:1051C8002750D9262850DA22220EDE18D8B402D069
:1051D800030E12001EEC0FF02E6E2BC0D9FF2CC050
:1051E800DAFFDF50D8B42BD02BC0D9FF2CC0DAFFA0
:1051F8003F0EDF6024D02BC0D9FF2CC0DAFFDFCFF1
:105208002DF0010EDF262D50010DF3502924D96E03
:10521800F4502A20DA6E560EDF6E2BC0D9FF2CC050
:10522800DAFFDFCF2DF0010EDF262D50010DF350F0
:105238002924D96EF4502A20DA6E2EC0DFFF030E1F
:105248001200E60EF66E700EF76E000EF86E02EEA5
:10525800B2F010EE12F00900F5CFEEFFE550E15084
:10526800FAE1FC0EF66E6F0EF76E000EF86E01EEA8
:10527800E4F010EE1CF00900F5CFEEFFE550E15028
:10528800FAE1580EF66E720EF76E000EF86E09000F
:10529800F5CFFFF002EEC4F012EE00F0EE6AE55032
:1052A800E150FCE1E250FAE108EE00F014EE00F003
:1052B800EE6AE550E150FCE1E250FAE102EE00F05E
:1052C800B20EEE6AE806FDE101EE00F0E40EEE6AC9
:1052D800E806FDE100EE60F0560EEE6AE806FDE134
:1052E8005F6A000144EF24F0000E296E000E286E5C
:1052F800C40E2A6E020E2B6E62EC37F0000E2F6E73
:10530800000E2E6E020E2F5CD8B016D0C40E2E24BE
:10531800D96E020E2F20DA6E2EC001F02FC002F0D7
:1053280089EC25F02D6EDE502D18D8B402D0000E71
:1053380012002E4A2F2AE6D7000E296E010E286E7B
:10534800C40E2A6E020E2B6E62EC37F0000E2F6E22
:10535800000E2E6E020E2F5CD8B016D0C40E2E246E
:10536800D96E020E2F20DA6E2EC001F02FC002F087
:10537800ADEC0BF02D6EDE502D18D8B402D0000E17
:1053880012002E4A2F2AE6D7010E12000AC00EF08C
:105398000BC00FF00EC001F00FC002F00CC003F0FC
:1053A8000DC004F050EC33F001C00EF002C00FF055
:1053B800084A092A0E500F10D8A4ECD708C0D9FF04
:1053C80009C0DAFF000EDF6E0806D8A009060AC079
:1053D80001F00BC002F00CC003F00DC004F025EC86
:1053E80035F00150106E0AC001F00BC002F00CC07D
:1053F80003F00DC004F050EC33F001C00AF002C015
:105408000BF0090E106402D0070E1026300E10267D
:1054180008C0D9FF09C0DAFF10C0DFFF0806D8A00E
:1054280009060A500B10D8A4D2D7084A092A120034
:10543800B60E2C6E8F0E2D6EC70E2E6E8F0E2F6E23
:1054480086EC22F00001FF6FFF29D8B434D0FF5159
:1054580046EC2FF036C07EF037C07FF038C080F0C1
:1054680039C081F0000E0101646F000E636F000EF9
:105478000001826F000E836F000E846F000E856F2F
:1054880001014169426943694469000E3D6F000E9C
:105498003E6F000E3F6F000E406F000E396F000E1A
:1054A8003A6F000E3B6F000E3C6F200E0001646FD8
:1054B800200E656F1200000E7E6F000E7F6F000ECB
:1054C800806F000E816F100E646F100E656F1200F2
:1054D800200E5F6001D0120065B2120001016B510D
:1054E8006C11D8B406D06BC1D9FF6CC1DAFFDFBE2E
:1054F800120069516A11D8B406D069C1D9FF6AC1CE
:10550800DAFFDFBE19D0400E176E020E186E000EBD
:10551800196E020E1A6E66EC23F0010E016E000E73
:10552800026E020E036E400E046E010EC4EC1EF0F5
:1055380001C069F102C06AF1400E366E020E376E84
:10554800400E386E000E396E020E3A6E93EC1BF068
:10555800000E016E400E026E020E036E400E046EC7
:10556800010EC4EC1EF001C06BF102C06CF1120018
:10557800000E3F6E000E3E6E3A043B10D8A43ED09B
:1055880038C030F039C031F025EC32F030C038F096
:1055980031C039F0120038C001F039C002F050ECC7
:1055A80038F001C040F002C041F038C001F039C005
:1055B80002F05CEC38F001C03CF002C03DF03E5017
:1055C800401804E13F504118D8B40AD040C028F030
:1055D80041C029F0C40E2A6E020E2B6E62EC37F021
:1055E8003CC001F03DC002F0C40E036E020E046E12
:1055F8005AEC34F001C038F002C039F03A503B1090
:10560800D8A4C9D738C038F039C039F01200000E14
:105618000001A36F000EA26F020EAC19D8A41FD010
:1056280020EE01F09051D9269151DA22080EDF6E52
:1056380020EE02F09051D9269151DA22380EDE6E12
:105648000D0EDD6E90C0D9FF91C0DAFF480EDF6EF7
:1056580090C0D9FF91C0DAFF000EDB8E12007051A6
:105668000D01365D000171510D013759D8B004D0D4
:1056780036CD70F037CD71F01FEC25F0000120EE2B
:1056880002F07251D9267351DA22380EDE6E0D0EF1
:10569800DD6E72C0D9FF73C0DAFF480EDF6E72C0CC
:1056A800D9FF73C0DAFF000EDB8E12000150036EC3
:1056B8000250046E056A066A03500101085D045031
:1056C800095905500A5906500B59D8B00ED0000E8A
:1056D8000D01886F000E896F000E8A6F000E8B6FA8
:1056E80008C18AF009C18BF0120000018A51015CDF
:1056F8008B510258D8B004D001C08AF002C08BF098
:105708008A51036E8B51046E056A066A031E041ED5
:10571800051E061E032A000E042205220622010188
:10572800085103240D01886F0101095104200D015E
:10573800896F01010A5105200D018A6F01010B5182
:1057480006200D018B6F1200066E000E076E0D0EFF
:10575800086E0150026E036AD8900236033606506E
:10576800046E056AD89004360536D8900436053696
:105778000250042603500522D89004360536D890E6
:1057880004360536045007260550082207C0D9FFFD
:1057980008C0DAFFDF9E0150D8A407D00650020DDA
:1057A800780EF324D96E000E06D00650020D720E44
:1057B800F324D96E000EF420DA6E07C0DEFF08C0AD
:1057C800DDFF07C0D9FF08C0DAFFDF9C20EE04F038
:1057D8000750D9260850DA22DF8C1200889E889C50
:1057E800888A88988896888488928698869A869CDB
:1057F800869E869086928694869602506A6E01C02E
:105808006BFFFF0E096EFF0E0A6E03C00BF004C09B
:105818000CF009500B260A500C220CC00BF00C6A35
:105828000B50666E0304676E8C9E888088B0FED726
:10583800889A8888889688940650686E05C069FF9B
:10584800FF0E096EFF0E0A6E07C00BF008C00CF0C1
:1058580009500B260A500C220CC00BF00C6A0B5096
:10586800666E0704676E888088B0FED78C8E12003B
:10587800000E0001AD6F000EA66F000EA36F000EA4
:10588800A26F000EA86F000EAC6F72C0D9FF73C074
:10589800DAFF7F0EDF16040E7219726F7351736F81
:1058A80072C0D9FF73C0DAFF7F0EDF16040E7219BB
:1058B800726F7351736F90C0D9FF91C0DAFF7F0E7A
:1058C800DF16000E6F6F000E716F000E706F000E06
:1058D8000101346F000E366F000E356FC2EC20F0F8
:1058E800000E116E030E106E000E126E000E136E77
:1058F800000E156E000E146E5AEC2DF0C5EC1FF05C
:105908001200246E33D0010E0C6E000E0B6E000ECA
:105918000D6EC1EC34F00A0E9BEC37F043EC38F016
:105928001200010E0C6E000E0B6E940E0D6EC1EC83
:1059380034F00A0E9BEC37F043EC38F01200010EFD
:105948000C6E000E0B6E780E0D6EC1EC34F00A0E64
:105958009BEC37F043EC38F01200000160071200AE
:105968000001602B12000001612B12002450200A54
:10597800D8B4C9D7010AD8B4D4D7030AD8B4DFD762
:105988001E0AD8B4EAD7010AD8B4EAD7030AD8A4B9
:105998001200E9D7106EA1EC31F00EEC39F0A1EC51
:1059A80031F01050010912EC39F0A1EC31F0000E81
:1059B800116E0ED01150010DF3500624D96EF4501B
:1059C8000720DA6ED9EC38F0DF6EDEEC38F0112AF9
:1059D800FF0E096EFF0E0A6E08500B6E0C6A095016
:1059E8000B260A500C2211500D6E0E6A0B500D5CDE
:1059F8000E50800A0F6E0C50800A0F58D8A0DAD7C4
:105A08001150010DF3500624D96EF4500720DA6EB8
:105A1800D9EC38F0DF6ED4EC38F00AEC39F012002B
:105A2800889E889C888A8898889688848892869890
:105A3800869A869C869E8690869286948696025042
:105A48006A6E01C06BFFFF0E096EFF0E0A6E03C07F
:105A58000BF004C00CF009500B260A500C220CC0A5
:105A68000BF00C6A0B50666E0304676E8C9E888080
:105A780088B0FED706506A6E05C06BFFFF0E096E30
:105A8800FF0E0A6E07C00BF008C00CF009500B2679
:105A98000A500C220CC00BF00C6A0B50666E0704FF
:105AA800676E888088B0FED78C8E120019D0010EE0
:105AB80026EC33F01200020E26EC33F0120029EC2B
:105AC80036F0B9EC38F0120033EC21F0B6EC26F0E1
:105AD800120012C00CF013C00DF050EC32F012009E
